{"abi":[{"inputs":[{"internalType":"address","name":"_vault","type":"address"}],"stateMutability":"nonpayable","type":"constructor","name":"constructor"},{"anonymous":false,"inputs":[],"name":"EmergencyExitEnabled","type":"event"},{"anonymous":false,"inputs":[{"indexed":false,"internalType":"uint256","name":"profit","type":"uint256"},{"indexed":false,"internalType":"uint256","name":"loss","type":"uint256"},{"indexed":false,"internalType":"uint256","name":"debtPayment","type":"uint256"},{"indexed":false,"internalType":"uint256","name":"debtOutstanding","type":"uint256"}],"name":"Harvested","type":"event"},{"anonymous":false,"inputs":[{"indexed":false,"internalType":"uint256","name":"debtThreshold","type":"uint256"}],"name":"UpdatedDebtThreshold","type":"event"},{"anonymous":false,"inputs":[{"indexed":false,"internalType":"address","name":"newKeeper","type":"address"}],"name":"UpdatedKeeper","type":"event"},{"anonymous":false,"inputs":[{"indexed":false,"internalType":"uint256","name":"delay","type":"uint256"}],"name":"UpdatedMaxReportDelay","type":"event"},{"anonymous":false,"inputs":[{"indexed":false,"internalType":"string","name":"metadataURI","type":"string"}],"name":"UpdatedMetadataURI","type":"event"},{"anonymous":false,"inputs":[{"indexed":false,"internalType":"uint256","name":"delay","type":"uint256"}],"name":"UpdatedMinReportDelay","type":"event"},{"anonymous":false,"inputs":[{"indexed":false,"internalType":"uint256","name":"profitFactor","type":"uint256"}],"name":"UpdatedProfitFactor","type":"event"},{"anonymous":false,"inputs":[{"indexed":false,"internalType":"address","name":"rewards","type":"address"}],"name":"UpdatedRewards","type":"event"},{"anonymous":false,"inputs":[{"indexed":false,"internalType":"address","name":"newStrategist","type":"address"}],"name":"UpdatedStrategist","type":"event"},{"inputs":[],"name":"apiVersion","outputs":[{"internalType":"string","name":"","type":"string"}],"stateMutability":"pure","type":"function"},{"inputs":[],"name":"balanceOfPool","outputs":[{"internalType":"uint256","name":"","type":"uint256"}],"stateMutability":"view","type":"function"},{"inputs":[],"name":"balanceOfWant","outputs":[{"internalType":"uint256","name":"","type":"uint256"}],"stateMutability":"view","type":"function"},{"inputs":[],"name":"bonus","outputs":[{"internalType":"address","name":"","type":"address"}],"stateMutability":"view","type":"function"},{"inputs":[{"internalType":"address","name":"_vault","type":"address"},{"internalType":"address","name":"_strategist","type":"address"},{"internalType":"address","name":"_rewards","type":"address"},{"internalType":"address","name":"_keeper","type":"address"},{"internalType":"address","name":"_wantPool","type":"address"},{"internalType":"address","name":"_poolToken","type":"address"},{"internalType":"address","name":"_unirouter","type":"address"},{"internalType":"address","name":"_bonus","type":"address"},{"internalType":"address","name":"_faucet","type":"address"},{"internalType":"address","name":"_ticket","type":"address"}],"name":"clone","outputs":[{"internalType":"address","name":"newStrategy","type":"address"}],"stateMutability":"nonpayable","type":"function"},{"inputs":[],"name":"debtThreshold","outputs":[{"internalType":"uint256","name":"","type":"uint256"}],"stateMutability":"view","type":"function"},{"inputs":[],"name":"delegatedAssets","outputs":[{"internalType":"uint256","name":"","type":"uint256"}],"stateMutability":"view","type":"function"},{"inputs":[],"name":"emergencyExit","outputs":[{"internalType":"bool","name":"","type":"bool"}],"stateMutability":"view","type":"function"},{"inputs":[],"name":"estimatedTotalAssets","outputs":[{"internalType":"uint256","name":"","type":"uint256"}],"stateMutability":"view","type":"function"},{"inputs":[],"name":"faucet","outputs":[{"internalType":"address","name":"","type":"address"}],"stateMutability":"view","type":"function"},{"inputs":[],"name":"harvest","outputs":[],"stateMutability":"nonpayable","type":"function"},{"inputs":[{"internalType":"uint256","name":"callCost","type":"uint256"}],"name":"harvestTrigger","outputs":[{"internalType":"bool","name":"","type":"bool"}],"stateMutability":"view","type":"function"},{"inputs":[{"internalType":"address","name":"_wantPool","type":"address"},{"internalType":"address","name":"_poolToken","type":"address"},{"internalType":"address","name":"_unirouter","type":"address"},{"internalType":"address","name":"_bonus","type":"address"},{"internalType":"address","name":"_faucet","type":"address"},{"internalType":"address","name":"_ticket","type":"address"}],"name":"initialize","outputs":[],"stateMutability":"nonpayable","type":"function"},{"inputs":[{"internalType":"address","name":"_vault","type":"address"},{"internalType":"address","name":"_strategist","type":"address"},{"internalType":"address","name":"_rewards","type":"address"},{"internalType":"address","name":"_keeper","type":"address"}],"name":"initialize","outputs":[],"stateMutability":"nonpayable","type":"function"},{"inputs":[{"internalType":"address","name":"_vault","type":"address"},{"internalType":"address","name":"_strategist","type":"address"},{"internalType":"address","name":"_rewards","type":"address"},{"internalType":"address","name":"_keeper","type":"address"}],"name":"initializeParent","outputs":[],"stateMutability":"nonpayable","type":"function"},{"inputs":[],"name":"isActive","outputs":[{"internalType":"bool","name":"","type":"bool"}],"stateMutability":"view","type":"function"},{"inputs":[],"name":"keeper","outputs":[{"internalType":"address","name":"","type":"address"}],"stateMutability":"view","type":"function"},{"inputs":[],"name":"maxReportDelay","outputs":[{"internalType":"uint256","name":"","type":"uint256"}],"stateMutability":"view","type":"function"},{"inputs":[],"name":"metadataURI","outputs":[{"internalType":"string","name":"","type":"string"}],"stateMutability":"view","type":"function"},{"inputs":[{"internalType":"address","name":"_newStrategy","type":"address"}],"name":"migrate","outputs":[],"stateMutability":"nonpayable","type":"function"},{"inputs":[],"name":"minReportDelay","outputs":[{"internalType":"uint256","name":"","type":"uint256"}],"stateMutability":"view","type":"function"},{"inputs":[],"name":"name","outputs":[{"internalType":"string","name":"","type":"string"}],"stateMutability":"view","type":"function"},{"inputs":[],"name":"poolToken","outputs":[{"internalType":"address","name":"","type":"address"}],"stateMutability":"view","type":"function"},{"inputs":[],"name":"profitFactor","outputs":[{"internalType":"uint256","name":"","type":"uint256"}],"stateMutability":"view","type":"function"},{"inputs":[],"name":"refer","outputs":[{"internalType":"address","name":"","type":"address"}],"stateMutability":"view","type":"function"},{"inputs":[],"name":"rewards","outputs":[{"internalType":"address","name":"","type":"address"}],"stateMutability":"view","type":"function"},{"inputs":[{"internalType":"uint256","name":"_debtThreshold","type":"uint256"}],"name":"setDebtThreshold","outputs":[],"stateMutability":"nonpayable","type":"function"},{"inputs":[],"name":"setEmergencyExit","outputs":[],"stateMutability":"nonpayable","type":"function"},{"inputs":[{"internalType":"address","name":"_keeper","type":"address"}],"name":"setKeeper","outputs":[],"stateMutability":"nonpayable","type":"function"},{"inputs":[{"internalType":"uint256","name":"_delay","type":"uint256"}],"name":"setMaxReportDelay","outputs":[],"stateMutability":"nonpayable","type":"function"},{"inputs":[{"internalType":"string","name":"_metadataURI","type":"string"}],"name":"setMetadataURI","outputs":[],"stateMutability":"nonpayable","type":"function"},{"inputs":[{"internalType":"uint256","name":"_delay","type":"uint256"}],"name":"setMinReportDelay","outputs":[],"stateMutability":"nonpayable","type":"function"},{"inputs":[{"internalType":"uint256","name":"_profitFactor","type":"uint256"}],"name":"setProfitFactor","outputs":[],"stateMutability":"nonpayable","type":"function"},{"inputs":[{"internalType":"address","name":"_refer","type":"address"}],"name":"setReferrer","outputs":[],"stateMutability":"nonpayable","type":"function"},{"inputs":[{"internalType":"address","name":"_rewards","type":"address"}],"name":"setRewards","outputs":[],"stateMutability":"nonpayable","type":"function"},{"inputs":[{"internalType":"address","name":"_strategist","type":"address"}],"name":"setStrategist","outputs":[],"stateMutability":"nonpayable","type":"function"},{"inputs":[],"name":"strategist","outputs":[{"internalType":"address","name":"","type":"address"}],"stateMutability":"view","type":"function"},{"inputs":[{"internalType":"address","name":"_token","type":"address"}],"name":"sweep","outputs":[],"stateMutability":"nonpayable","type":"function"},{"inputs":[],"name":"tend","outputs":[],"stateMutability":"nonpayable","type":"function"},{"inputs":[{"internalType":"uint256","name":"callCost","type":"uint256"}],"name":"tendTrigger","outputs":[{"internalType":"bool","name":"","type":"bool"}],"stateMutability":"view","type":"function"},{"inputs":[],"name":"ticket","outputs":[{"internalType":"address","name":"","type":"address"}],"stateMutability":"view","type":"function"},{"inputs":[],"name":"unirouter","outputs":[{"internalType":"address","name":"","type":"address"}],"stateMutability":"view","type":"function"},{"inputs":[],"name":"vault","outputs":[{"internalType":"contract VaultAPI","name":"","type":"address"}],"stateMutability":"view","type":"function"},{"inputs":[],"name":"want","outputs":[{"internalType":"contract IERC20","name":"","type":"address"}],"stateMutability":"view","type":"function"},{"inputs":[],"name":"wantPool","outputs":[{"internalType":"address","name":"","type":"address"}],"stateMutability":"view","type":"function"},{"inputs":[{"internalType":"uint256","name":"_amountNeeded","type":"uint256"}],"name":"withdraw","outputs":[{"internalType":"uint256","name":"_loss","type":"uint256"}],"stateMutability":"nonpayable","type":"function"}],"bytecode":"608060405260006006819055620151806007556064600855600955601080546001600160a01b0319167316388463d60ffe0661cf7f1f31a7d658ac790ff71790553480156200004d57600080fd5b5060405162003d5038038062003d50833981016040819052620000709162000527565b8080620000808133808062000089565b50505062000760565b6005546001600160a01b031615620000be5760405162461bcd60e51b8152600401620000b59062000618565b60405180910390fd5b600180546001600160a01b0319166001600160a01b03868116919091179182905560408051637e062a3560e11b81529051929091169163fc0c546a91600480820192602092909190829003018186803b1580156200011b57600080fd5b505afa15801562000130573d6000803e3d6000fd5b505050506040513d601f19601f8201168201806040525081019062000156919062000527565b600580546001600160a01b0319166001600160a01b0392831617908190556200019091168560001962000258602090811b62001c3717901c565b600280546001600160a01b038086166001600160a01b03199283161790925560038054858416908316179081905560048054858516931692909217825560015460405163095ea7b360e01b81529084169363095ea7b393620001fb93909116916000199101620005ca565b602060405180830381600087803b1580156200021657600080fd5b505af11580156200022b573d6000803e3d6000fd5b505050506040513d601f19601f8201168201806040525081019062000251919062000557565b5050505050565b801580620002e75750604051636eb1769f60e11b81526001600160a01b0384169063dd62ed3e90620002919030908690600401620005b0565b60206040518083038186803b158015620002aa57600080fd5b505afa158015620002bf573d6000803e3d6000fd5b505050506040513d601f19601f82011682018060405250810190620002e5919062000579565b155b620003065760405162461bcd60e51b8152600401620000b590620006d0565b620003618363095ea7b360e01b848460405160240162000328929190620005ca565b60408051808303601f190181529190526020810180516001600160e01b0319939093166001600160e01b03938416179052906200036616565b505050565b6060620003c2826040518060400160405280602081526020017f5361666545524332303a206c6f772d6c6576656c2063616c6c206661696c6564815250856001600160a01b03166200040260201b62001d36179092919060201c565b805190915015620003615780806020019051810190620003e3919062000557565b620003615760405162461bcd60e51b8152600401620000b59062000686565b60606200041384846000856200041b565b949350505050565b60606200042885620004ed565b620004475760405162461bcd60e51b8152600401620000b5906200064f565b60006060866001600160a01b0316858760405162000466919062000592565b60006040518083038185875af1925050503d8060008114620004a5576040519150601f19603f3d011682016040523d82523d6000602084013e620004aa565b606091505b50915091508115620004c0579150620004139050565b805115620004d15780518082602001fd5b8360405162461bcd60e51b8152600401620000b59190620005e3565b6000813f7fc5d2460186f7233c927e7db2dcc703c0e500b653ca82273b7bfad8045d85a47081811480159062000413575050151592915050565b60006020828403121562000539578081fd5b81516001600160a01b038116811462000550578182fd5b9392505050565b60006020828403121562000569578081fd5b8151801515811462000550578182fd5b6000602082840312156200058b578081fd5b5051919050565b60008251620005a68184602087016200072d565b9190910192915050565b6001600160a01b0392831681529116602082015260400190565b6001600160a01b03929092168252602082015260400190565b6000602082528251806020840152620006048160408501602087016200072d565b601f01601f19169190910160400192915050565b6020808252601c908201527f537472617465677920616c726561647920696e697469616c697a656400000000604082015260600190565b6020808252601d908201527f416464726573733a2063616c6c20746f206e6f6e2d636f6e7472616374000000604082015260600190565b6020808252602a908201527f5361666545524332303a204552433230206f7065726174696f6e20646964206e6040820152691bdd081cdd58d8d9595960b21b606082015260800190565b60208082526036908201527f5361666545524332303a20617070726f76652066726f6d206e6f6e2d7a65726f60408201527f20746f206e6f6e2d7a65726f20616c6c6f77616e636500000000000000000000606082015260800190565b60005b838110156200074a57818101518382015260200162000730565b838111156200075a576000848401525b50505050565b6135e080620007706000396000f3fe608060405234801561001057600080fd5b506004361061028a5760003560e01c80638bf3d68a1161015c578063cbdf382c116100ce578063ed882c2b11610087578063ed882c2b146104b3578063efbb5cb0146104c6578063f017c92f146104ce578063f8c8765e14610382578063fbfa77cf146104e1578063fcf2d0ad146104e95761028a565b8063cbdf382c14610462578063cc2a9a5b1461046a578063ce5494bb1461047d578063db4b1bbd14610490578063de5f72fd14610498578063ec38a862146104a05761028a565b80639ec5a894116101205780639ec5a8941461041c578063a18a7bfc14610424578063aacbf88b14610437578063aced16611461043f578063c1a3d44c14610447578063c7b9d5301461044f5761028a565b80638bf3d68a146103de5780638cdfe166146103f15780638e6350e2146103f957806391397ab41461040157806395e80c50146104145761028a565b806328b7ccf7116102005780635a2e8c18116101b95780635a2e8c1814610382578063650d1880146103955780636cc25db7146103a8578063748747e6146103b0578063750521f5146103c357806375b4d78c146103d65761028a565b806328b7ccf71461033c5780632e1a7d4d1461034457806339a172a814610357578063440368a31461036a5780634641257d146103725780635641ec031461037a5761028a565b80631d12f28b116102525780631d12f28b146102f25780631f1fcd51146102fa5780631fe4a6861461030f57806322f3e2d414610317578063257ae0de1461032c57806325829410146103345761028a565b806301681a621461028f57806303ee438c146102a457806306fdde03146102c25780630f969b87146102ca57806311588086146102dd575b600080fd5b6102a261029d366004612cdb565b6104f1565b005b6102ac610690565b6040516102b99190613211565b60405180910390f35b6102ac61071e565b6102a26102d8366004613055565b6107c3565b6102e5610850565b6040516102b99190613498565b6102e56108d6565b6103026108dc565b6040516102b991906130d6565b6103026108eb565b61031f6108fa565b6040516102b991906131d7565b61030261099b565b6102ac6109aa565b6102e56109c9565b6102e5610352366004613055565b6109cf565b6102a2610365366004613055565b610a2a565b6102a2610aac565b6102a2610cd5565b61031f61103f565b6102a2610390366004612d13565b611048565b61031f6103a3366004613055565b61105a565b610302611062565b6102a26103be366004612cdb565b611071565b6102a26103d1366004612ede565b61111c565b6103026111b3565b6103026103ec366004612def565b6111c2565b6102e56112e9565b6102e56112ef565b6102a261040f366004613055565b6112f4565b6102e5611376565b61030261137c565b6102a2610432366004612cdb565b61138b565b6103026113e5565b6103026113f4565b6102e5611403565b6102a261045d366004612cdb565b611434565b6103026114df565b6102a2610478366004612d6e565b6114ee565b6102a261048b366004612cdb565b611504565b610302611675565b610302611689565b6102a26104ae366004612cdb565b611698565b61031f6104c1366004613055565b61182f565b6102e5611aa7565b6102a26104dc366004613055565b611ac2565b610302611b44565b6102a2611b53565b6104f9611d4d565b6001600160a01b0316336001600160a01b0316146105325760405162461bcd60e51b8152600401610529906133af565b60405180910390fd5b6005546001600160a01b03828116911614156105605760405162461bcd60e51b815260040161052990613269565b6001546001600160a01b038281169116141561058e5760405162461bcd60e51b815260040161052990613357565b6060610598611dca565b905060005b81518110156105f3578181815181106105b257fe5b60200260200101516001600160a01b0316836001600160a01b031614156105eb5760405162461bcd60e51b81526004016105299061341e565b60010161059d565b5061068c6105ff611d4d565b6040516370a0823160e01b81526001600160a01b038516906370a082319061062b9030906004016130d6565b60206040518083038186803b15801561064357600080fd5b505afa158015610657573d6000803e3d6000fd5b505050506040513d601f19601f8201168201806040525081019061067b919061306d565b6001600160a01b0385169190611e7c565b5050565b6000805460408051602060026001851615610100026000190190941693909304601f810184900484028201840190925281815292918301828280156107165780601f106106eb57610100808354040283529160200191610716565b820191906000526020600020905b8154815290600101906020018083116106f957829003601f168201915b505050505081565b600554604080516306fdde0360e01b815290516060926001600160a01b0316916306fdde03916004808301926000929190829003018186803b15801561076357600080fd5b505afa158015610777573d6000803e3d6000fd5b505050506040513d6000823e601f3d908101601f1916820160405261079f9190810190612f4b565b6040516020016107af91906130a1565b604051602081830303815290604052905090565b6002546001600160a01b03163314806107f457506107df611d4d565b6001600160a01b0316336001600160a01b0316145b6108105760405162461bcd60e51b8152600401610529906133af565b60098190556040517fa68ba126373d04c004c5748c300c9fca12bd444b3d4332e261f3bd2bac4a860090610845908390613498565b60405180910390a150565b600f546040516370a0823160e01b81526000916001600160a01b0316906370a08231906108819030906004016130d6565b60206040518083038186803b15801561089957600080fd5b505afa1580156108ad573d6000803e3d6000fd5b505050506040513d601f19601f820116820180604052508101906108d1919061306d565b905090565b60095481565b6005546001600160a01b031681565b6002546001600160a01b031681565b6001546040516339ebf82360e01b815260009182916001600160a01b03909116906339ebf8239061092f9030906004016130d6565b6101206040518083038186803b15801561094857600080fd5b505afa15801561095c573d6000803e3d6000fd5b505050506040513d601f19601f820116820180604052508101906109809190612fd7565b6040015111806108d157506000610995611aa7565b11905090565b600c546001600160a01b031681565b604080518082019091526005815264181719971960d91b602082015290565b60075481565b6001546000906001600160a01b031633146109fc5760405162461bcd60e51b815260040161052990613337565b6000610a0783611e9b565b600554909350909150610a24906001600160a01b03163383611e7c565b50919050565b6002546001600160a01b0316331480610a5b5750610a46611d4d565b6001600160a01b0316336001600160a01b0316145b610a775760405162461bcd60e51b8152600401610529906133af565b60068190556040517fbb2c369a0355a34b02ab5fce0643150c87e1c8dfe7c918d465591879f57948b190610845908390613498565b6004546001600160a01b0316331480610acf57506002546001600160a01b031633145b80610af25750610add611d4d565b6001600160a01b0316336001600160a01b0316145b80610b935750600160009054906101000a90046001600160a01b03166001600160a01b031663452a93206040518163ffffffff1660e01b815260040160206040518083038186803b158015610b4657600080fd5b505afa158015610b5a573d6000803e3d6000fd5b505050506040513d601f19601f82011682018060405250810190610b7e9190612cf7565b6001600160a01b0316336001600160a01b0316145b80610c345750600160009054906101000a90046001600160a01b03166001600160a01b03166388a8d6026040518163ffffffff1660e01b815260040160206040518083038186803b158015610be757600080fd5b505afa158015610bfb573d6000803e3d6000fd5b505050506040513d601f19601f82011682018060405250810190610c1f9190612cf7565b6001600160a01b0316336001600160a01b0316145b610c505760405162461bcd60e51b8152600401610529906133af565b6001546040805163bf3759b560e01b81529051610cd3926001600160a01b03169163bf3759b5916004808301926020929190829003018186803b158015610c9657600080fd5b505afa158015610caa573d6000803e3d6000fd5b505050506040513d601f19601f82011682018060405250810190610cce919061306d565b611efa565b565b6004546001600160a01b0316331480610cf857506002546001600160a01b031633145b80610d1b5750610d06611d4d565b6001600160a01b0316336001600160a01b0316145b80610dbc5750600160009054906101000a90046001600160a01b03166001600160a01b031663452a93206040518163ffffffff1660e01b815260040160206040518083038186803b158015610d6f57600080fd5b505afa158015610d83573d6000803e3d6000fd5b505050506040513d601f19601f82011682018060405250810190610da79190612cf7565b6001600160a01b0316336001600160a01b0316145b80610e5d5750600160009054906101000a90046001600160a01b03166001600160a01b03166388a8d6026040518163ffffffff1660e01b815260040160206040518083038186803b158015610e1057600080fd5b505afa158015610e24573d6000803e3d6000fd5b505050506040513d601f19601f82011682018060405250810190610e489190612cf7565b6001600160a01b0316336001600160a01b0316145b610e795760405162461bcd60e51b8152600401610529906133af565b6000806000600160009054906101000a90046001600160a01b03166001600160a01b031663bf3759b56040518163ffffffff1660e01b815260040160206040518083038186803b158015610ecc57600080fd5b505afa158015610ee0573d6000803e3d6000fd5b505050506040513d601f19601f82011682018060405250810190610f04919061306d565b600a5490915060009060ff1615610f5a576000610f1f611aa7565b9050610f38838211610f315783610f33565b815b611e9b565b9450915082821115610f5457610f4e8284611fad565b94508291505b50610f6b565b610f6382611ff8565b919550935090505b6001546040516328766ebf60e21b81526001600160a01b039091169063a1d9bafc90610f9f90879087908690600401613511565b602060405180830381600087803b158015610fb957600080fd5b505af1158015610fcd573d6000803e3d6000fd5b505050506040513d601f19601f82011682018060405250810190610ff1919061306d565b9150610ffc82611efa565b7f4c0f499ffe6befa0ca7c826b0916cf87bea98de658013e76938489368d60d509848483856040516110319493929190613527565b60405180910390a150505050565b600a5460ff1681565b6110548484848461225b565b50505050565b60005b919050565b600f546001600160a01b031681565b6002546001600160a01b03163314806110a2575061108d611d4d565b6001600160a01b0316336001600160a01b0316145b6110be5760405162461bcd60e51b8152600401610529906133af565b6001600160a01b0381166110d157600080fd5b600480546001600160a01b0319166001600160a01b0383161790556040517f2f202ddb4a2e345f6323ed90f8fc8559d770a7abbbeee84dde8aca3351fe7154906108459083906130d6565b6002546001600160a01b031633148061114d5750611138611d4d565b6001600160a01b0316336001600160a01b0316145b6111695760405162461bcd60e51b8152600401610529906133af565b61117560008383612bfc565b507f300e67d5a415b6d015a471d9c7b95dd58f3e8290af965e84e0f845de2996dda682826040516111a79291906131e2565b60405180910390a15050565b600d546001600160a01b031681565b604051733d602d80600a3d3981f3363d3d373d3d3d363d7360601b81523060601b601482018190526e5af43d82803e903d91602b57fd5bf360881b602883015260009160378184f0604051630b45d18360e31b81529093506001600160a01b0384169150635a2e8c1890611240908f908f908f908f90600401613104565b600060405180830381600087803b15801561125a57600080fd5b505af115801561126e573d6000803e3d6000fd5b505060405163cc2a9a5b60e01b81526001600160a01b038516925063cc2a9a5b91506112a8908b908b908b908b908b908b9060040161312f565b600060405180830381600087803b1580156112c257600080fd5b505af11580156112d6573d6000803e3d6000fd5b50505050509a9950505050505050505050565b60085481565b600090565b6002546001600160a01b03163314806113255750611310611d4d565b6001600160a01b0316336001600160a01b0316145b6113415760405162461bcd60e51b8152600401610529906133af565b60088190556040517fd94596337df4c2f0f44d30a7fc5db1c7bb60d9aca4185ed77c6fd96eb45ec29890610845908390613498565b60065481565b6003546001600160a01b031681565b611393611d4d565b6001600160a01b0316336001600160a01b0316146113c35760405162461bcd60e51b8152600401610529906133af565b601080546001600160a01b0319166001600160a01b0392909216919091179055565b6010546001600160a01b031681565b6004546001600160a01b031681565b6005546040516370a0823160e01b81526000916001600160a01b0316906370a08231906108819030906004016130d6565b6002546001600160a01b03163314806114655750611450611d4d565b6001600160a01b0316336001600160a01b0316145b6114815760405162461bcd60e51b8152600401610529906133af565b6001600160a01b03811661149457600080fd5b600280546001600160a01b0319166001600160a01b0383161790556040517f352ececae6d7d1e6d26bcf2c549dfd55be1637e9b22dc0cf3b71ddb36097a6b4906108459083906130d6565b600b546001600160a01b031681565b6114fc868686868686612406565b505050505050565b6001546001600160a01b03163314806115355750611520611d4d565b6001600160a01b0316336001600160a01b0316145b61153e57600080fd5b6001546040805163fbfa77cf60e01b815290516001600160a01b039283169284169163fbfa77cf916004808301926020929190829003018186803b15801561158557600080fd5b505afa158015611599573d6000803e3d6000fd5b505050506040513d601f19601f820116820180604052508101906115bd9190612cf7565b6001600160a01b0316146115d057600080fd5b6115d9816124ca565b6005546040516370a0823160e01b81526116729183916001600160a01b03909116906370a082319061160f9030906004016130d6565b60206040518083038186803b15801561162757600080fd5b505afa15801561163b573d6000803e3d6000fd5b505050506040513d601f19601f8201168201806040525081019061165f919061306d565b6005546001600160a01b03169190611e7c565b50565b600a5461010090046001600160a01b031681565b600e546001600160a01b031681565b6002546001600160a01b031633146116c25760405162461bcd60e51b815260040161052990613244565b6001600160a01b0381166116d557600080fd5b60015460035460405163095ea7b360e01b81526001600160a01b039283169263095ea7b39261170c92911690600090600401613169565b602060405180830381600087803b15801561172657600080fd5b505af115801561173a573d6000803e3d6000fd5b505050506040513d601f19601f8201168201806040525081019061175e9190612ebe565b50600380546001600160a01b0319166001600160a01b03838116919091179182905560015460405163095ea7b360e01b81529082169263095ea7b3926117ad9291169060001990600401613169565b602060405180830381600087803b1580156117c757600080fd5b505af11580156117db573d6000803e3d6000fd5b505050506040513d601f19601f820116820180604052508101906117ff9190612ebe565b507fafbb66abf8f3b719799940473a4052a3717cdd8e40fb6c8a3faadab316b1a0698160405161084591906130d6565b6000611839612c7a565b6001546040516339ebf82360e01b81526001600160a01b03909116906339ebf823906118699030906004016130d6565b6101206040518083038186803b15801561188257600080fd5b505afa158015611896573d6000803e3d6000fd5b505050506040513d601f19601f820116820180604052508101906118ba9190612fd7565b90508060200151600014156118d357600091505061105d565b60065460a08201516118e6904290611fad565b10156118f657600091505061105d565b60075460a0820151611909904290611fad565b1061191857600191505061105d565b6001546040805163bf3759b560e01b815290516000926001600160a01b03169163bf3759b5916004808301926020929190829003018186803b15801561195d57600080fd5b505afa158015611971573d6000803e3d6000fd5b505050506040513d601f19601f82011682018060405250810190611995919061306d565b90506009548111156119ac5760019250505061105d565b60006119b6611aa7565b90508260c001516119d2600954836127b790919063ffffffff16565b10156119e4576001935050505061105d565b60008360c00151821115611a055760c0840151611a02908390611fad565b90505b6001546040805163112c1f9b60e01b815290516000926001600160a01b03169163112c1f9b916004808301926020929190829003018186803b158015611a4a57600080fd5b505afa158015611a5e573d6000803e3d6000fd5b505050506040513d601f19601f82011682018060405250810190611a82919061306d565b9050611a8e81836127b7565b600854611a9b90896127dc565b10979650505050505050565b60006108d1611ab4610850565b611abc611403565b906127b7565b6002546001600160a01b0316331480611af35750611ade611d4d565b6001600160a01b0316336001600160a01b0316145b611b0f5760405162461bcd60e51b8152600401610529906133af565b60078190556040517f5430e11864ad7aa9775b07d12657fe52df9aa2ba734355bd8ef8747be2c800c590610845908390613498565b6001546001600160a01b031681565b6002546001600160a01b0316331480611b845750611b6f611d4d565b6001600160a01b0316336001600160a01b0316145b611ba05760405162461bcd60e51b8152600401610529906133af565b600a805460ff19166001908117909155546040805163507257cd60e11b815290516001600160a01b039092169163a0e4af9a9160048082019260009290919082900301818387803b158015611bf457600080fd5b505af1158015611c08573d6000803e3d6000fd5b50506040517f97e963041e952738788b9d4871d854d282065b8f90a464928d6528f2e9a4fd0b925060009150a1565b801580611cbf5750604051636eb1769f60e11b81526001600160a01b0384169063dd62ed3e90611c6d90309086906004016130ea565b60206040518083038186803b158015611c8557600080fd5b505afa158015611c99573d6000803e3d6000fd5b505050506040513d601f19601f82011682018060405250810190611cbd919061306d565b155b611cdb5760405162461bcd60e51b815260040161052990613442565b611d318363095ea7b360e01b8484604051602401611cfa929190613169565b60408051601f198184030181529190526020810180516001600160e01b03166001600160e01b031990931692909217909152612816565b505050565b6060611d4584846000856128a5565b949350505050565b60015460408051635aa6e67560e01b815290516000926001600160a01b031691635aa6e675916004808301926020929190829003018186803b158015611d9257600080fd5b505afa158015611da6573d6000803e3d6000fd5b505050506040513d601f19601f820116820180604052508101906108d19190612cf7565b604080516003808252608082019092526060918291906020820183803683375050600f5482519293506001600160a01b031691839150600090611e0957fe5b6001600160a01b039283166020918202929092010152600b54825191169082906001908110611e3457fe5b6001600160a01b039283166020918202929092010152600d54825191169082906002908110611e5f57fe5b6001600160a01b0390921660209283029190910190910152905090565b611d318363a9059cbb60e01b8484604051602401611cfa929190613169565b60008082611ea7611403565b1015611ec957611ec7611ec2611ebb611403565b8590611fad565b612969565b505b6000611ed3611403565b9050838110611ee457839250611ef4565b915081611ef18482611fad565b91505b50915091565b600a5460ff1615611f0a57611672565b611f12611403565b811115611f1e57611672565b6000611f3282611f2c611403565b90611fad565b9050801561068c57600a54600f5460105460405163e323f82560e01b81526101009093046001600160a01b039081169363e323f82593611f7f933093889392811692911690600401613182565b600060405180830381600087803b158015611f9957600080fd5b505af11580156114fc573d6000803e3d6000fd5b6000611fef83836040518060400160405280601e81526020017f536166654d6174683a207375627472616374696f6e206f766572666c6f770000815250612a09565b90505b92915050565b60008080831561201f57600061200d85611e9b565b9350905061201b8186612a35565b9150505b6000612029611403565b6001546040516339ebf82360e01b81529192506000916001600160a01b03909116906339ebf8239061205f9030906004016130d6565b6101206040518083038186803b15801561207857600080fd5b505afa15801561208c573d6000803e3d6000fd5b505050506040513d601f19601f820116820180604052508101906120b09190612fd7565b60c00151905060006120c0611aa7565b9050818111156120e55760006120d68284611fad565b90506120e181611e9b565b5050505b6120ed612a4b565b600b546040516370a0823160e01b81526000916001600160a01b0316906370a082319061211e9030906004016130d6565b60206040518083038186803b15801561213657600080fd5b505afa15801561214a573d6000803e3d6000fd5b505050506040513d601f19601f8201168201806040525081019061216e919061306d565b9050801561218d57600b5461218d9082906001600160a01b0316612aa9565b600d546040516370a0823160e01b81526000916001600160a01b0316906370a08231906121be9030906004016130d6565b60206040518083038186803b1580156121d657600080fd5b505afa1580156121ea573d6000803e3d6000fd5b505050506040513d601f19601f8201168201806040525081019061220e919061306d565b9050801561222d57600d5461222d9082906001600160a01b0316612aa9565b6000612237611403565b90508581111561224e5761224b8187611fad565b98505b5050505050509193909250565b6005546001600160a01b0316156122845760405162461bcd60e51b8152600401610529906132bf565b600180546001600160a01b0319166001600160a01b03868116919091179182905560408051637e062a3560e11b81529051929091169163fc0c546a91600480820192602092909190829003018186803b1580156122e057600080fd5b505afa1580156122f4573d6000803e3d6000fd5b505050506040513d601f19601f820116820180604052508101906123189190612cf7565b600580546001600160a01b0319166001600160a01b039283161790819055612344911685600019611c37565b600280546001600160a01b038086166001600160a01b03199283161790925560038054858416908316179081905560048054858516931692909217825560015460405163095ea7b360e01b81529084169363095ea7b3936123ad93909116916000199101613169565b602060405180830381600087803b1580156123c757600080fd5b505af11580156123db573d6000803e3d6000fd5b505050506040513d601f19601f820116820180604052508101906123ff9190612ebe565b5050505050565b600a8054610100600160a81b0319166101006001600160a01b0389811682029290921792839055600b80546001600160a01b03199081168a851617909155600c80548216898516179055600d80548216888516179055600e80548216878516179055600f805490911685841617905560055461248c939083169291900416600019611c37565b600c54600b546124ab916001600160a01b039182169116600019611c37565b600c54600d546114fc916001600160a01b039182169116600019611c37565b600b546040516370a0823160e01b81526001600160a01b039091169063a9059cbb90839083906370a08231906125049030906004016130d6565b60206040518083038186803b15801561251c57600080fd5b505afa158015612530573d6000803e3d6000fd5b505050506040513d601f19601f82011682018060405250810190612554919061306d565b6040518363ffffffff1660e01b8152600401612571929190613169565b602060405180830381600087803b15801561258b57600080fd5b505af115801561259f573d6000803e3d6000fd5b505050506040513d601f19601f820116820180604052508101906125c39190612ebe565b50600d546040516370a0823160e01b81526001600160a01b039091169063a9059cbb90839083906370a08231906125fe9030906004016130d6565b60206040518083038186803b15801561261657600080fd5b505afa15801561262a573d6000803e3d6000fd5b505050506040513d601f19601f8201168201806040525081019061264e919061306d565b6040518363ffffffff1660e01b815260040161266b929190613169565b602060405180830381600087803b15801561268557600080fd5b505af1158015612699573d6000803e3d6000fd5b505050506040513d601f19601f820116820180604052508101906126bd9190612ebe565b50600f546040516370a0823160e01b81526001600160a01b039091169063a9059cbb90839083906370a08231906126f89030906004016130d6565b60206040518083038186803b15801561271057600080fd5b505afa158015612724573d6000803e3d6000fd5b505050506040513d601f19601f82011682018060405250810190612748919061306d565b6040518363ffffffff1660e01b8152600401612765929190613169565b602060405180830381600087803b15801561277f57600080fd5b505af1158015612793573d6000803e3d6000fd5b505050506040513d601f19601f8201168201806040525081019061068c9190612ebe565b600082820183811015611fef5760405162461bcd60e51b815260040161052990613288565b6000826127eb57506000611ff2565b828202828482816127f857fe5b0414611fef5760405162461bcd60e51b8152600401610529906132f6565b606061286b826040518060400160405280602081526020017f5361666545524332303a206c6f772d6c6576656c2063616c6c206661696c6564815250856001600160a01b0316611d369092919063ffffffff16565b805190915015611d3157808060200190518101906128899190612ebe565b611d315760405162461bcd60e51b8152600401610529906133d4565b60606128b085612bc3565b6128cc5760405162461bcd60e51b815260040161052990613378565b60006060866001600160a01b031685876040516128e99190613085565b60006040518083038185875af1925050503d8060008114612926576040519150601f19603f3d011682016040523d82523d6000602084013e61292b565b606091505b5091509150811561293f579150611d459050565b80511561294f5780518082602001fd5b8360405162461bcd60e51b81526004016105299190613211565b600080612974611403565b600a54600f5460405163a016240b60e01b81529293506001600160a01b0361010090920482169263a016240b926129c19230928992919091169068056bc75e2d63100000906004016131ad565b600060405180830381600087803b1580156129db57600080fd5b505af11580156129ef573d6000803e3d6000fd5b5050505060006129fd611403565b9050611d458183611fad565b60008184841115612a2d5760405162461bcd60e51b81526004016105299190613211565b505050900390565b6000818310612a445781611fef565b5090919050565b600e54604051630f41a04d60e11b81526001600160a01b0390911690631e83409a90612a7b9030906004016130d6565b600060405180830381600087803b158015612a9557600080fd5b505af1158015611054573d6000803e3d6000fd5b604080516003808252608082019092526060916020820183803683370190505090508181600081518110612ad957fe5b60200260200101906001600160a01b031690816001600160a01b03168152505073c02aaa39b223fe8d0a0e5c4f27ead9083c756cc281600181518110612b1b57fe5b6001600160a01b039283166020918202929092010152600554825191169082906002908110612b4657fe5b6001600160a01b039283166020918202929092010152600c546040516338ed173960e01b81529116906338ed173990612b8c9086906000908690309042906004016134a1565b600060405180830381600087803b158015612ba657600080fd5b505af1158015612bba573d6000803e3d6000fd5b50505050505050565b6000813f7fc5d2460186f7233c927e7db2dcc703c0e500b653ca82273b7bfad8045d85a470818114801590611d45575050151592915050565b828054600181600116156101000203166002900490600052602060002090601f016020900481019282601f10612c3d5782800160ff19823516178555612c6a565b82800160010185558215612c6a579182015b82811115612c6a578235825591602001919060010190612c4f565b50612c76929150612cc6565b5090565b6040518061012001604052806000815260200160008152602001600081526020016000815260200160008152602001600081526020016000815260200160008152602001600081525090565b5b80821115612c765760008155600101612cc7565b600060208284031215612cec578081fd5b8135611fef81613595565b600060208284031215612d08578081fd5b8151611fef81613595565b60008060008060808587031215612d28578283fd5b8435612d3381613595565b93506020850135612d4381613595565b92506040850135612d5381613595565b91506060850135612d6381613595565b939692955090935050565b60008060008060008060c08789031215612d86578182fd5b8635612d9181613595565b95506020870135612da181613595565b94506040870135612db181613595565b93506060870135612dc181613595565b92506080870135612dd181613595565b915060a0870135612de181613595565b809150509295509295509295565b6000806000806000806000806000806101408b8d031215612e0e578384fd5b8a35612e1981613595565b995060208b0135612e2981613595565b985060408b0135612e3981613595565b975060608b0135612e4981613595565b965060808b0135612e5981613595565b955060a08b0135612e6981613595565b945060c08b0135612e7981613595565b935060e08b0135612e8981613595565b92506101008b0135612e9a81613595565b91506101208b0135612eab81613595565b809150509295989b9194979a5092959850565b600060208284031215612ecf578081fd5b81518015158114611fef578182fd5b60008060208385031215612ef0578182fd5b823567ffffffffffffffff80821115612f07578384fd5b818501915085601f830112612f1a578384fd5b813581811115612f28578485fd5b866020828501011115612f39578485fd5b60209290920196919550909350505050565b600060208284031215612f5c578081fd5b815167ffffffffffffffff80821115612f73578283fd5b818401915084601f830112612f86578283fd5b815181811115612f94578384fd5b612fa7601f8201601f1916602001613542565b9150808252856020828501011115612fbd578384fd5b612fce816020840160208601613569565b50949350505050565b6000610120808385031215612fea578182fd5b612ff381613542565b9050825181526020830151602082015260408301516040820152606083015160608201526080830151608082015260a083015160a082015260c083015160c082015260e083015160e08201526101008084015181830152508091505092915050565b600060208284031215613066578081fd5b5035919050565b60006020828403121561307e578081fd5b5051919050565b60008251613097818460208701613569565b9190910192915050565b60006c02837b7b62a37b3b2ba3432b91609d1b825282516130c981600d850160208701613569565b91909101600d0192915050565b6001600160a01b0391909116815260200190565b6001600160a01b0392831681529116602082015260400190565b6001600160a01b03948516815292841660208401529083166040830152909116606082015260800190565b6001600160a01b0396871681529486166020860152928516604085015290841660608401528316608083015290911660a082015260c00190565b6001600160a01b03929092168252602082015260400190565b6001600160a01b03948516815260208101939093529083166040830152909116606082015260800190565b6001600160a01b039485168152602081019390935292166040820152606081019190915260800190565b901515815260200190565b60006020825282602083015282846040840137818301604090810191909152601f909201601f19160101919050565b6000602082528251806020840152613230816040850160208701613569565b601f01601f19169190910160400192915050565b6020808252600b908201526a085cdd1c985d1959da5cdd60aa1b604082015260600190565b602080825260059082015264085dd85b9d60da1b604082015260600190565b6020808252601b908201527f536166654d6174683a206164646974696f6e206f766572666c6f770000000000604082015260600190565b6020808252601c908201527f537472617465677920616c726561647920696e697469616c697a656400000000604082015260600190565b60208082526021908201527f536166654d6174683a206d756c7469706c69636174696f6e206f766572666c6f6040820152607760f81b606082015260800190565b602080825260069082015265085d985d5b1d60d21b604082015260600190565b6020808252600790820152662173686172657360c81b604082015260600190565b6020808252601d908201527f416464726573733a2063616c6c20746f206e6f6e2d636f6e7472616374000000604082015260600190565b6020808252600b908201526a08585d5d1a1bdc9a5e995960aa1b604082015260600190565b6020808252602a908201527f5361666545524332303a204552433230206f7065726174696f6e20646964206e6040820152691bdd081cdd58d8d9595960b21b606082015260800190565b6020808252600a9082015269085c1c9bdd1958dd195960b21b604082015260600190565b60208082526036908201527f5361666545524332303a20617070726f76652066726f6d206e6f6e2d7a65726f60408201527520746f206e6f6e2d7a65726f20616c6c6f77616e636560501b606082015260800190565b90815260200190565b600060a082018783526020878185015260a0604085015281875180845260c0860191508289019350845b818110156134f05784516001600160a01b0316835293830193918301916001016134cb565b50506001600160a01b03969096166060850152505050608001529392505050565b9283526020830191909152604082015260600190565b93845260208401929092526040830152606082015260800190565b60405181810167ffffffffffffffff8111828210171561356157600080fd5b604052919050565b60005b8381101561358457818101518382015260200161356c565b838111156110545750506000910152565b6001600160a01b038116811461167257600080fdfea264697066735822122076072616715242d81094c73284856e98576ed854896967a7eff9294c054e611d64736f6c634300060c0033","bytecodeSha1":"844c8bfe0bc4ee2ae5d0352b90523fc6ac35b97b","compiler":{"evm_version":"istanbul","optimizer":{"enabled":true,"runs":200},"version":"0.6.12"},"contractName":"StrategyDAIPoolTogether","language":"Solidity","natspec":{"kind":"dev","methods":{"apiVersion()":{"details":"The Strategy's version must match the Vault's `API_VERSION`.","notice":"Used to track which version of `StrategyAPI` this Strategy  implements.","returns":{"_0":"A string which holds the current API version of this contract."}},"delegatedAssets()":{"details":"You can override this field to set it to a non-zero value if some of the assets of this  Strategy is somehow delegated inside another part of of Yearn's ecosystem e.g. another Vault.  Note that this value must be strictly less than or equal to the amount provided by  `estimatedTotalAssets()` below, as the TVL calc will be total assets minus delegated assets.","notice":"The amount (priced in want) of the total assets managed by this strategy should not count  towards Yearn's TVL calculations.","returns":{"_0":"The amount of assets this strategy manages that should not be included in Yearn's Total Value  Locked (TVL) calculation across it's ecosystem."}},"estimatedTotalAssets()":{"details":"Care must be taken in using this function, since it relies on external  systems, which could be manipulated by the attacker to give an inflated  (or reduced) value produced by this function, based on current on-chain  conditions (e.g. this function is possible to influence through  flashloan attacks, oracle manipulations, or other DeFi attack  mechanisms).  It is up to governance to use this function to correctly order this  Strategy relative to its peers in the withdrawal queue to minimize  losses for the Vault based on sudden withdrawals. This value should be  higher than the total debt of the Strategy and higher than its expected  value to be \"safe\".","notice":"Provide an accurate estimate for the total amount of assets  (principle + return) that this Strategy is currently managing,  denominated in terms of `want` tokens.  This total should be \"realizable\" e.g. the total value that could  *actually* be obtained from this Strategy if it were to divest its  entire position based on current on-chain conditions.","returns":{"_0":"The estimated total assets in this Strategy."}},"harvest()":{"details":"When `harvest()` is called, the Strategy reports to the Vault (via  `vault.report()`), so in some cases `harvest()` must be called in order  to take in profits, to borrow newly available funds from the Vault, or  otherwise adjust its position. In other cases `harvest()` must be  called to report to the Vault on the Strategy's position, especially if  any losses have occurred.","notice":"Harvests the Strategy, recognizing any profits or losses and adjusting  the Strategy's position.  In the rare case the Strategy is in emergency shutdown, this will exit  the Strategy's position.  This may only be called by governance, the strategist, or the keeper."},"harvestTrigger(uint256)":{"details":"`callCost` must be priced in terms of `want`.  This call and `tendTrigger` should never return `true` at the  same time.  See `min/maxReportDelay`, `profitFactor`, `debtThreshold` to adjust the  strategist-controlled parameters that will influence whether this call  returns `true` or not. These parameters will be used in conjunction  with the parameters reported to the Vault (see `params`) to determine  if calling `harvest()` is merited.  It is expected that an external system will check `harvestTrigger()`.  This could be a script run off a desktop or cloud bot (e.g.  https://github.com/iearn-finance/yearn-vaults/blob/master/scripts/keep.py),  or via an integration with the Keep3r network (e.g.  https://github.com/Macarse/GenericKeep3rV2/blob/master/contracts/keep3r/GenericKeep3rV2.sol).","notice":"Provide a signal to the keeper that `harvest()` should be called. The  keeper will provide the estimated gas cost that they would pay to call  `harvest()`, and this function should use that estimate to make a  determination if calling it is \"worth it\" for the keeper. This is not  the only consideration into issuing this trigger, for example if the  position would be negatively affected if `harvest()` is not called  shortly, then this can return `true` even if the keeper might be \"at a  loss\" (keepers are always reimbursed by Yearn).","params":{"callCost":"The keeper's estimated cast cost to call `harvest()`."},"returns":{"_0":"`true` if `harvest()` should be called, `false` otherwise."}},"migrate(address)":{"details":"The new Strategy's Vault must be the same as this Strategy's Vault.","notice":"Transfers all `want` from this Strategy to `_newStrategy`.  This may only be called by governance or the Vault.","params":{"_newStrategy":"The Strategy to migrate to."}},"name()":{"details":"You can use this field to manage the \"version\" of this Strategy, e.g.  `StrategySomethingOrOtherV1`. However, \"API Version\" is managed by  `apiVersion()` function above.","notice":"This Strategy's name.","returns":{"_0":"This Strategy's name."}},"setDebtThreshold(uint256)":{"notice":"Sets how far the Strategy can go into loss without a harvest and report  being required.  By default this is 0, meaning any losses would cause a harvest which  will subsequently report the loss to the Vault for tracking. (See  `harvestTrigger()` for more details.)  This may only be called by governance or the strategist.","params":{"_debtThreshold":"How big of a loss this Strategy may carry without being required to report to the Vault."}},"setEmergencyExit()":{"details":"See `vault.setEmergencyShutdown()` and `harvest()` for further details.","notice":"Activates emergency exit. Once activated, the Strategy will exit its  position upon the next harvest, depositing all funds into the Vault as  quickly as is reasonable given on-chain conditions.  This may only be called by governance or the strategist."},"setKeeper(address)":{"notice":"Used to change `keeper`.  `keeper` is the only address that may call `tend()` or `harvest()`,  other than `governance()` or `strategist`. However, unlike  `governance()` or `strategist`, `keeper` may *only* call `tend()`  and `harvest()`, and no other authorized functions, following the  principle of least privilege.  This may only be called by governance or the strategist.","params":{"_keeper":"The new address to assign as `keeper`."}},"setMaxReportDelay(uint256)":{"notice":"Used to change `maxReportDelay`. `maxReportDelay` is the maximum number  of blocks that should pass for `harvest()` to be called.  For external keepers (such as the Keep3r network), this is the maximum  time between jobs to wait. (see `harvestTrigger()`  for more details.)  This may only be called by governance or the strategist.","params":{"_delay":"The maximum number of seconds to wait between harvests."}},"setMetadataURI(string)":{"notice":"Used to change `metadataURI`. `metadataURI` is used to store the URI of the file describing the strategy.  This may only be called by governance or the strategist.","params":{"_metadataURI":"The URI that describe the strategy."}},"setMinReportDelay(uint256)":{"notice":"Used to change `minReportDelay`. `minReportDelay` is the minimum number  of blocks that should pass for `harvest()` to be called.  For external keepers (such as the Keep3r network), this is the minimum  time between jobs to wait. (see `harvestTrigger()`  for more details.)  This may only be called by governance or the strategist.","params":{"_delay":"The minimum number of seconds to wait between harvests."}},"setProfitFactor(uint256)":{"notice":"Used to change `profitFactor`. `profitFactor` is used to determine  if it's worthwhile to harvest, given gas costs. (See `harvestTrigger()`  for more details.)  This may only be called by governance or the strategist.","params":{"_profitFactor":"A ratio to multiply anticipated `harvest()` gas cost against."}},"setRewards(address)":{"notice":"Used to change `rewards`. EOA or smart contract which has the permission  to pull rewards from the vault.  This may only be called by the strategist.","params":{"_rewards":"The address to use for pulling rewards."}},"setStrategist(address)":{"notice":"Used to change `strategist`.  This may only be called by governance or the existing strategist.","params":{"_strategist":"The new address to assign as `strategist`."}},"sweep(address)":{"details":"Implement `protectedTokens()` to specify any additional tokens that  should be protected from sweeping in addition to `want`.","notice":"Removes tokens from this Strategy that are not the type of tokens  managed by this Strategy. This may be used in case of accidentally  sending the wrong kind of token to this Strategy.  Tokens will be sent to `governance()`.  This will fail if an attempt is made to sweep `want`, or any tokens  that are protected by this Strategy.  This may only be called by governance.","params":{"_token":"The token to transfer out of this vault."}},"tend()":{"notice":"Adjust the Strategy's position. The purpose of tending isn't to  realize gains, but to maximize yield by reinvesting any returns.  See comments on `adjustPosition()`.  This may only be called by governance, the strategist, or the keeper."},"tendTrigger(uint256)":{"details":"`callCost` must be priced in terms of `want`.  This call and `harvestTrigger()` should never return `true` at the same  time.","notice":"Provide a signal to the keeper that `tend()` should be called. The  keeper will provide the estimated gas cost that they would pay to call  `tend()`, and this function should use that estimate to make a  determination if calling it is \"worth it\" for the keeper. This is not  the only consideration into issuing this trigger, for example if the  position would be negatively affected if `tend()` is not called  shortly, then this can return `true` even if the keeper might be  \"at a loss\" (keepers are always reimbursed by Yearn).","params":{"callCost":"The keeper's estimated cast cost to call `tend()`."},"returns":{"_0":"`true` if `tend()` should be called, `false` otherwise."}},"withdraw(uint256)":{"notice":"Withdraws `_amountNeeded` to `vault`.  This may only be called by the Vault.","params":{"_amountNeeded":"How much `want` to withdraw."},"returns":{"_loss":"Any realized losses"}}},"version":1},"opcodes":"PUSH1 0x80 PUSH1 0x40 MSTORE CALLVALUE DUP1 ISZERO PUSH2 0x10 JUMPI PUSH1 0x0 DUP1 REVERT JUMPDEST POP PUSH1 0x4 CALLDATASIZE LT PUSH2 0x28A JUMPI PUSH1 0x0 CALLDATALOAD PUSH1 0xE0 SHR DUP1 PUSH4 0x8BF3D68A GT PUSH2 0x15C JUMPI DUP1 PUSH4 0xCBDF382C GT PUSH2 0xCE JUMPI DUP1 PUSH4 0xED882C2B GT PUSH2 0x87 JUMPI DUP1 PUSH4 0xED882C2B EQ PUSH2 0x4B3 JUMPI DUP1 PUSH4 0xEFBB5CB0 EQ PUSH2 0x4C6 JUMPI DUP1 PUSH4 0xF017C92F EQ PUSH2 0x4CE JUMPI DUP1 PUSH4 0xF8C8765E EQ PUSH2 0x382 JUMPI DUP1 PUSH4 0xFBFA77CF EQ PUSH2 0x4E1 JUMPI DUP1 PUSH4 0xFCF2D0AD EQ PUSH2 0x4E9 JUMPI PUSH2 0x28A JUMP JUMPDEST DUP1 PUSH4 0xCBDF382C EQ PUSH2 0x462 JUMPI DUP1 PUSH4 0xCC2A9A5B EQ PUSH2 0x46A JUMPI DUP1 PUSH4 0xCE5494BB EQ PUSH2 0x47D JUMPI DUP1 PUSH4 0xDB4B1BBD EQ PUSH2 0x490 JUMPI DUP1 PUSH4 0xDE5F72FD EQ PUSH2 0x498 JUMPI DUP1 PUSH4 0xEC38A862 EQ PUSH2 0x4A0 JUMPI PUSH2 0x28A JUMP JUMPDEST DUP1 PUSH4 0x9EC5A894 GT PUSH2 0x120 JUMPI DUP1 PUSH4 0x9EC5A894 EQ PUSH2 0x41C JUMPI DUP1 PUSH4 0xA18A7BFC EQ PUSH2 0x424 JUMPI DUP1 PUSH4 0xAACBF88B EQ PUSH2 0x437 JUMPI DUP1 PUSH4 0xACED1661 EQ PUSH2 0x43F JUMPI DUP1 PUSH4 0xC1A3D44C EQ PUSH2 0x447 JUMPI DUP1 PUSH4 0xC7B9D530 EQ PUSH2 0x44F JUMPI PUSH2 0x28A JUMP JUMPDEST DUP1 PUSH4 0x8BF3D68A EQ PUSH2 0x3DE JUMPI DUP1 PUSH4 0x8CDFE166 EQ PUSH2 0x3F1 JUMPI DUP1 PUSH4 0x8E6350E2 EQ PUSH2 0x3F9 JUMPI DUP1 PUSH4 0x91397AB4 EQ PUSH2 0x401 JUMPI DUP1 PUSH4 0x95E80C50 EQ PUSH2 0x414 JUMPI PUSH2 0x28A JUMP JUMPDEST DUP1 PUSH4 0x28B7CCF7 GT PUSH2 0x200 JUMPI DUP1 PUSH4 0x5A2E8C18 GT PUSH2 0x1B9 JUMPI DUP1 PUSH4 0x5A2E8C18 EQ PUSH2 0x382 JUMPI DUP1 PUSH4 0x650D1880 EQ PUSH2 0x395 JUMPI DUP1 PUSH4 0x6CC25DB7 EQ PUSH2 0x3A8 JUMPI DUP1 PUSH4 0x748747E6 EQ PUSH2 0x3B0 JUMPI DUP1 PUSH4 0x750521F5 EQ PUSH2 0x3C3 JUMPI DUP1 PUSH4 0x75B4D78C EQ PUSH2 0x3D6 JUMPI PUSH2 0x28A JUMP JUMPDEST DUP1 PUSH4 0x28B7CCF7 EQ PUSH2 0x33C JUMPI DUP1 PUSH4 0x2E1A7D4D EQ PUSH2 0x344 JUMPI DUP1 PUSH4 0x39A172A8 EQ PUSH2 0x357 JUMPI DUP1 PUSH4 0x440368A3 EQ PUSH2 0x36A JUMPI DUP1 PUSH4 0x4641257D EQ PUSH2 0x372 JUMPI DUP1 PUSH4 0x5641EC03 EQ PUSH2 0x37A JUMPI PUSH2 0x28A JUMP JUMPDEST DUP1 PUSH4 0x1D12F28B GT PUSH2 0x252 JUMPI DUP1 PUSH4 0x1D12F28B EQ PUSH2 0x2F2 JUMPI DUP1 PUSH4 0x1F1FCD51 EQ PUSH2 0x2FA JUMPI DUP1 PUSH4 0x1FE4A686 EQ PUSH2 0x30F JUMPI DUP1 PUSH4 0x22F3E2D4 EQ PUSH2 0x317 JUMPI DUP1 PUSH4 0x257AE0DE EQ PUSH2 0x32C JUMPI DUP1 PUSH4 0x25829410 EQ PUSH2 0x334 JUMPI PUSH2 0x28A JUMP JUMPDEST DUP1 PUSH4 0x1681A62 EQ PUSH2 0x28F JUMPI DUP1 PUSH4 0x3EE438C EQ PUSH2 0x2A4 JUMPI DUP1 PUSH4 0x6FDDE03 EQ PUSH2 0x2C2 JUMPI DUP1 PUSH4 0xF969B87 EQ PUSH2 0x2CA JUMPI DUP1 PUSH4 0x11588086 EQ PUSH2 0x2DD JUMPI JUMPDEST PUSH1 0x0 DUP1 REVERT JUMPDEST PUSH2 0x2A2 PUSH2 0x29D CALLDATASIZE PUSH1 0x4 PUSH2 0x2CDB JUMP JUMPDEST PUSH2 0x4F1 JUMP JUMPDEST STOP JUMPDEST PUSH2 0x2AC PUSH2 0x690 JUMP JUMPDEST PUSH1 0x40 MLOAD PUSH2 0x2B9 SWAP2 SWAP1 PUSH2 0x3211 JUMP JUMPDEST PUSH1 0x40 MLOAD DUP1 SWAP2 SUB SWAP1 RETURN JUMPDEST PUSH2 0x2AC PUSH2 0x71E JUMP JUMPDEST PUSH2 0x2A2 PUSH2 0x2D8 CALLDATASIZE PUSH1 0x4 PUSH2 0x3055 JUMP JUMPDEST PUSH2 0x7C3 JUMP JUMPDEST PUSH2 0x2E5 PUSH2 0x850 JUMP JUMPDEST PUSH1 0x40 MLOAD PUSH2 0x2B9 SWAP2 SWAP1 PUSH2 0x3498 JUMP JUMPDEST PUSH2 0x2E5 PUSH2 0x8D6 JUMP JUMPDEST PUSH2 0x302 PUSH2 0x8DC JUMP JUMPDEST PUSH1 0x40 MLOAD PUSH2 0x2B9 SWAP2 SWAP1 PUSH2 0x30D6 JUMP JUMPDEST PUSH2 0x302 PUSH2 0x8EB JUMP JUMPDEST PUSH2 0x31F PUSH2 0x8FA JUMP JUMPDEST PUSH1 0x40 MLOAD PUSH2 0x2B9 SWAP2 SWAP1 PUSH2 0x31D7 JUMP JUMPDEST PUSH2 0x302 PUSH2 0x99B JUMP JUMPDEST PUSH2 0x2AC PUSH2 0x9AA JUMP JUMPDEST PUSH2 0x2E5 PUSH2 0x9C9 JUMP JUMPDEST PUSH2 0x2E5 PUSH2 0x352 CALLDATASIZE PUSH1 0x4 PUSH2 0x3055 JUMP JUMPDEST PUSH2 0x9CF JUMP JUMPDEST PUSH2 0x2A2 PUSH2 0x365 CALLDATASIZE PUSH1 0x4 PUSH2 0x3055 JUMP JUMPDEST PUSH2 0xA2A JUMP JUMPDEST PUSH2 0x2A2 PUSH2 0xAAC JUMP JUMPDEST PUSH2 0x2A2 PUSH2 0xCD5 JUMP JUMPDEST PUSH2 0x31F PUSH2 0x103F JUMP JUMPDEST PUSH2 0x2A2 PUSH2 0x390 CALLDATASIZE PUSH1 0x4 PUSH2 0x2D13 JUMP JUMPDEST PUSH2 0x1048 JUMP JUMPDEST PUSH2 0x31F PUSH2 0x3A3 CALLDATASIZE PUSH1 0x4 PUSH2 0x3055 JUMP JUMPDEST PUSH2 0x105A JUMP JUMPDEST PUSH2 0x302 PUSH2 0x1062 JUMP JUMPDEST PUSH2 0x2A2 PUSH2 0x3BE CALLDATASIZE PUSH1 0x4 PUSH2 0x2CDB JUMP JUMPDEST PUSH2 0x1071 JUMP JUMPDEST PUSH2 0x2A2 PUSH2 0x3D1 CALLDATASIZE PUSH1 0x4 PUSH2 0x2EDE JUMP JUMPDEST PUSH2 0x111C JUMP JUMPDEST PUSH2 0x302 PUSH2 0x11B3 JUMP JUMPDEST PUSH2 0x302 PUSH2 0x3EC CALLDATASIZE PUSH1 0x4 PUSH2 0x2DEF JUMP JUMPDEST PUSH2 0x11C2 JUMP JUMPDEST PUSH2 0x2E5 PUSH2 0x12E9 JUMP JUMPDEST PUSH2 0x2E5 PUSH2 0x12EF JUMP JUMPDEST PUSH2 0x2A2 PUSH2 0x40F CALLDATASIZE PUSH1 0x4 PUSH2 0x3055 JUMP JUMPDEST PUSH2 0x12F4 JUMP JUMPDEST PUSH2 0x2E5 PUSH2 0x1376 JUMP JUMPDEST PUSH2 0x302 PUSH2 0x137C JUMP JUMPDEST PUSH2 0x2A2 PUSH2 0x432 CALLDATASIZE PUSH1 0x4 PUSH2 0x2CDB JUMP JUMPDEST PUSH2 0x138B JUMP JUMPDEST PUSH2 0x302 PUSH2 0x13E5 JUMP JUMPDEST PUSH2 0x302 PUSH2 0x13F4 JUMP JUMPDEST PUSH2 0x2E5 PUSH2 0x1403 JUMP JUMPDEST PUSH2 0x2A2 PUSH2 0x45D CALLDATASIZE PUSH1 0x4 PUSH2 0x2CDB JUMP JUMPDEST PUSH2 0x1434 JUMP JUMPDEST PUSH2 0x302 PUSH2 0x14DF JUMP JUMPDEST PUSH2 0x2A2 PUSH2 0x478 CALLDATASIZE PUSH1 0x4 PUSH2 0x2D6E JUMP JUMPDEST PUSH2 0x14EE JUMP JUMPDEST PUSH2 0x2A2 PUSH2 0x48B CALLDATASIZE PUSH1 0x4 PUSH2 0x2CDB JUMP JUMPDEST PUSH2 0x1504 JUMP JUMPDEST PUSH2 0x302 PUSH2 0x1675 JUMP JUMPDEST PUSH2 0x302 PUSH2 0x1689 JUMP JUMPDEST PUSH2 0x2A2 PUSH2 0x4AE CALLDATASIZE PUSH1 0x4 PUSH2 0x2CDB JUMP JUMPDEST PUSH2 0x1698 JUMP JUMPDEST PUSH2 0x31F PUSH2 0x4C1 CALLDATASIZE PUSH1 0x4 PUSH2 0x3055 JUMP JUMPDEST PUSH2 0x182F JUMP JUMPDEST PUSH2 0x2E5 PUSH2 0x1AA7 JUMP JUMPDEST PUSH2 0x2A2 PUSH2 0x4DC CALLDATASIZE PUSH1 0x4 PUSH2 0x3055 JUMP JUMPDEST PUSH2 0x1AC2 JUMP JUMPDEST PUSH2 0x302 PUSH2 0x1B44 JUMP JUMPDEST PUSH2 0x2A2 PUSH2 0x1B53 JUMP JUMPDEST PUSH2 0x4F9 PUSH2 0x1D4D JUMP JUMPDEST PUSH1 0x1 PUSH1 0x1 PUSH1 0xA0 SHL SUB AND CALLER PUSH1 0x1 PUSH1 0x1 PUSH1 0xA0 SHL SUB AND EQ PUSH2 0x532 JUMPI PUSH1 0x40 MLOAD PUSH3 0x461BCD PUSH1 0xE5 SHL DUP2 MSTORE PUSH1 0x4 ADD PUSH2 0x529 SWAP1 PUSH2 0x33AF JUMP JUMPDEST PUSH1 0x40 MLOAD DUP1 SWAP2 SUB SWAP1 REVERT JUMPDEST PUSH1 0x5 SLOAD PUSH1 0x1 PUSH1 0x1 PUSH1 0xA0 SHL SUB DUP3 DUP2 AND SWAP2 AND EQ ISZERO PUSH2 0x560 JUMPI PUSH1 0x40 MLOAD PUSH3 0x461BCD PUSH1 0xE5 SHL DUP2 MSTORE PUSH1 0x4 ADD PUSH2 0x529 SWAP1 PUSH2 0x3269 JUMP JUMPDEST PUSH1 0x1 SLOAD PUSH1 0x1 PUSH1 0x1 PUSH1 0xA0 SHL SUB DUP3 DUP2 AND SWAP2 AND EQ ISZERO PUSH2 0x58E JUMPI PUSH1 0x40 MLOAD PUSH3 0x461BCD PUSH1 0xE5 SHL DUP2 MSTORE PUSH1 0x4 ADD PUSH2 0x529 SWAP1 PUSH2 0x3357 JUMP JUMPDEST PUSH1 0x60 PUSH2 0x598 PUSH2 0x1DCA JUMP JUMPDEST SWAP1 POP PUSH1 0x0 JUMPDEST DUP2 MLOAD DUP2 LT ISZERO PUSH2 0x5F3 JUMPI DUP2 DUP2 DUP2 MLOAD DUP2 LT PUSH2 0x5B2 JUMPI INVALID JUMPDEST PUSH1 0x20 MUL PUSH1 0x20 ADD ADD MLOAD PUSH1 0x1 PUSH1 0x1 PUSH1 0xA0 SHL SUB AND DUP4 PUSH1 0x1 PUSH1 0x1 PUSH1 0xA0 SHL SUB AND EQ ISZERO PUSH2 0x5EB JUMPI PUSH1 0x40 MLOAD PUSH3 0x461BCD PUSH1 0xE5 SHL DUP2 MSTORE PUSH1 0x4 ADD PUSH2 0x529 SWAP1 PUSH2 0x341E JUMP JUMPDEST PUSH1 0x1 ADD PUSH2 0x59D JUMP JUMPDEST POP PUSH2 0x68C PUSH2 0x5FF PUSH2 0x1D4D JUMP JUMPDEST PUSH1 0x40 MLOAD PUSH4 0x70A08231 PUSH1 0xE0 SHL DUP2 MSTORE PUSH1 0x1 PUSH1 0x1 PUSH1 0xA0 SHL SUB DUP6 AND SWAP1 PUSH4 0x70A08231 SWAP1 PUSH2 0x62B SWAP1 ADDRESS SWAP1 PUSH1 0x4 ADD PUSH2 0x30D6 JUMP JUMPDEST PUSH1 0x20 PUSH1 0x40 MLOAD DUP1 DUP4 SUB DUP2 DUP7 DUP1 EXTCODESIZE ISZERO DUP1 ISZERO PUSH2 0x643 JUMPI PUSH1 0x0 DUP1 REVERT JUMPDEST POP GAS STATICCALL ISZERO DUP1 ISZERO PUSH2 0x657 JUMPI RETURNDATASIZE PUSH1 0x0 DUP1 RETURNDATACOPY RETURNDATASIZE PUSH1 0x0 REVERT JUMPDEST POP POP POP POP PUSH1 0x40 MLOAD RETURNDATASIZE PUSH1 0x1F NOT PUSH1 0x1F DUP3 ADD AND DUP3 ADD DUP1 PUSH1 0x40 MSTORE POP DUP2 ADD SWAP1 PUSH2 0x67B SWAP2 SWAP1 PUSH2 0x306D JUMP JUMPDEST PUSH1 0x1 PUSH1 0x1 PUSH1 0xA0 SHL SUB DUP6 AND SWAP2 SWAP1 PUSH2 0x1E7C JUMP JUMPDEST POP POP JUMP JUMPDEST PUSH1 0x0 DUP1 SLOAD PUSH1 0x40 DUP1 MLOAD PUSH1 0x20 PUSH1 0x2 PUSH1 0x1 DUP6 AND ISZERO PUSH2 0x100 MUL PUSH1 0x0 NOT ADD SWAP1 SWAP5 AND SWAP4 SWAP1 SWAP4 DIV PUSH1 0x1F DUP2 ADD DUP5 SWAP1 DIV DUP5 MUL DUP3 ADD DUP5 ADD SWAP1 SWAP3 MSTORE DUP2 DUP2 MSTORE SWAP3 SWAP2 DUP4 ADD DUP3 DUP3 DUP1 ISZERO PUSH2 0x716 JUMPI DUP1 PUSH1 0x1F LT PUSH2 0x6EB JUMPI PUSH2 0x100 DUP1 DUP4 SLOAD DIV MUL DUP4 MSTORE SWAP2 PUSH1 0x20 ADD SWAP2 PUSH2 0x716 JUMP JUMPDEST DUP3 ADD SWAP2 SWAP1 PUSH1 0x0 MSTORE PUSH1 0x20 PUSH1 0x0 KECCAK256 SWAP1 JUMPDEST DUP2 SLOAD DUP2 MSTORE SWAP1 PUSH1 0x1 ADD SWAP1 PUSH1 0x20 ADD DUP1 DUP4 GT PUSH2 0x6F9 JUMPI DUP3 SWAP1 SUB PUSH1 0x1F AND DUP3 ADD SWAP2 JUMPDEST POP POP POP POP POP DUP2 JUMP JUMPDEST PUSH1 0x5 SLOAD PUSH1 0x40 DUP1 MLOAD PUSH4 0x6FDDE03 PUSH1 0xE0 SHL DUP2 MSTORE SWAP1 MLOAD PUSH1 0x60 SWAP3 PUSH1 0x1 PUSH1 0x1 PUSH1 0xA0 SHL SUB AND SWAP2 PUSH4 0x6FDDE03 SWAP2 PUSH1 0x4 DUP1 DUP4 ADD SWAP3 PUSH1 0x0 SWAP3 SWAP2 SWAP1 DUP3 SWAP1 SUB ADD DUP2 DUP7 DUP1 EXTCODESIZE ISZERO DUP1 ISZERO PUSH2 0x763 JUMPI PUSH1 0x0 DUP1 REVERT JUMPDEST POP GAS STATICCALL ISZERO DUP1 ISZERO PUSH2 0x777 JUMPI RETURNDATASIZE PUSH1 0x0 DUP1 RETURNDATACOPY RETURNDATASIZE PUSH1 0x0 REVERT JUMPDEST POP POP POP POP PUSH1 0x40 MLOAD RETURNDATASIZE PUSH1 0x0 DUP3 RETURNDATACOPY PUSH1 0x1F RETURNDATASIZE SWAP1 DUP2 ADD PUSH1 0x1F NOT AND DUP3 ADD PUSH1 0x40 MSTORE PUSH2 0x79F SWAP2 SWAP1 DUP2 ADD SWAP1 PUSH2 0x2F4B JUMP JUMPDEST PUSH1 0x40 MLOAD PUSH1 0x20 ADD PUSH2 0x7AF SWAP2 SWAP1 PUSH2 0x30A1 JUMP JUMPDEST PUSH1 0x40 MLOAD PUSH1 0x20 DUP2 DUP4 SUB SUB DUP2 MSTORE SWAP1 PUSH1 0x40 MSTORE SWAP1 POP SWAP1 JUMP JUMPDEST PUSH1 0x2 SLOAD PUSH1 0x1 PUSH1 0x1 PUSH1 0xA0 SHL SUB AND CALLER EQ DUP1 PUSH2 0x7F4 JUMPI POP PUSH2 0x7DF PUSH2 0x1D4D JUMP JUMPDEST PUSH1 0x1 PUSH1 0x1 PUSH1 0xA0 SHL SUB AND CALLER PUSH1 0x1 PUSH1 0x1 PUSH1 0xA0 SHL SUB AND EQ JUMPDEST PUSH2 0x810 JUMPI PUSH1 0x40 MLOAD PUSH3 0x461BCD PUSH1 0xE5 SHL DUP2 MSTORE PUSH1 0x4 ADD PUSH2 0x529 SWAP1 PUSH2 0x33AF JUMP JUMPDEST PUSH1 0x9 DUP2 SWAP1 SSTORE PUSH1 0x40 MLOAD PUSH32 0xA68BA126373D04C004C5748C300C9FCA12BD444B3D4332E261F3BD2BAC4A8600 SWAP1 PUSH2 0x845 SWAP1 DUP4 SWAP1 PUSH2 0x3498 JUMP JUMPDEST PUSH1 0x40 MLOAD DUP1 SWAP2 SUB SWAP1 LOG1 POP JUMP JUMPDEST PUSH1 0xF SLOAD PUSH1 0x40 MLOAD PUSH4 0x70A08231 PUSH1 0xE0 SHL DUP2 MSTORE PUSH1 0x0 SWAP2 PUSH1 0x1 PUSH1 0x1 PUSH1 0xA0 SHL SUB AND SWAP1 PUSH4 0x70A08231 SWAP1 PUSH2 0x881 SWAP1 ADDRESS SWAP1 PUSH1 0x4 ADD PUSH2 0x30D6 JUMP JUMPDEST PUSH1 0x20 PUSH1 0x40 MLOAD DUP1 DUP4 SUB DUP2 DUP7 DUP1 EXTCODESIZE ISZERO DUP1 ISZERO PUSH2 0x899 JUMPI PUSH1 0x0 DUP1 REVERT JUMPDEST POP GAS STATICCALL ISZERO DUP1 ISZERO PUSH2 0x8AD JUMPI RETURNDATASIZE PUSH1 0x0 DUP1 RETURNDATACOPY RETURNDATASIZE PUSH1 0x0 REVERT JUMPDEST POP POP POP POP PUSH1 0x40 MLOAD RETURNDATASIZE PUSH1 0x1F NOT PUSH1 0x1F DUP3 ADD AND DUP3 ADD DUP1 PUSH1 0x40 MSTORE POP DUP2 ADD SWAP1 PUSH2 0x8D1 SWAP2 SWAP1 PUSH2 0x306D JUMP JUMPDEST SWAP1 POP SWAP1 JUMP JUMPDEST PUSH1 0x9 SLOAD DUP2 JUMP JUMPDEST PUSH1 0x5 SLOAD PUSH1 0x1 PUSH1 0x1 PUSH1 0xA0 SHL SUB AND DUP2 JUMP JUMPDEST PUSH1 0x2 SLOAD PUSH1 0x1 PUSH1 0x1 PUSH1 0xA0 SHL SUB AND DUP2 JUMP JUMPDEST PUSH1 0x1 SLOAD PUSH1 0x40 MLOAD PUSH4 0x39EBF823 PUSH1 0xE0 SHL DUP2 MSTORE PUSH1 0x0 SWAP2 DUP3 SWAP2 PUSH1 0x1 PUSH1 0x1 PUSH1 0xA0 SHL SUB SWAP1 SWAP2 AND SWAP1 PUSH4 0x39EBF823 SWAP1 PUSH2 0x92F SWAP1 ADDRESS SWAP1 PUSH1 0x4 ADD PUSH2 0x30D6 JUMP JUMPDEST PUSH2 0x120 PUSH1 0x40 MLOAD DUP1 DUP4 SUB DUP2 DUP7 DUP1 EXTCODESIZE ISZERO DUP1 ISZERO PUSH2 0x948 JUMPI PUSH1 0x0 DUP1 REVERT JUMPDEST POP GAS STATICCALL ISZERO DUP1 ISZERO PUSH2 0x95C JUMPI RETURNDATASIZE PUSH1 0x0 DUP1 RETURNDATACOPY RETURNDATASIZE PUSH1 0x0 REVERT JUMPDEST POP POP POP POP PUSH1 0x40 MLOAD RETURNDATASIZE PUSH1 0x1F NOT PUSH1 0x1F DUP3 ADD AND DUP3 ADD DUP1 PUSH1 0x40 MSTORE POP DUP2 ADD SWAP1 PUSH2 0x980 SWAP2 SWAP1 PUSH2 0x2FD7 JUMP JUMPDEST PUSH1 0x40 ADD MLOAD GT DUP1 PUSH2 0x8D1 JUMPI POP PUSH1 0x0 PUSH2 0x995 PUSH2 0x1AA7 JUMP JUMPDEST GT SWAP1 POP SWAP1 JUMP JUMPDEST PUSH1 0xC SLOAD PUSH1 0x1 PUSH1 0x1 PUSH1 0xA0 SHL SUB AND DUP2 JUMP JUMPDEST PUSH1 0x40 DUP1 MLOAD DUP1 DUP3 ADD SWAP1 SWAP2 MSTORE PUSH1 0x5 DUP2 MSTORE PUSH5 0x1817199719 PUSH1 0xD9 SHL PUSH1 0x20 DUP3 ADD MSTORE SWAP1 JUMP JUMPDEST PUSH1 0x7 SLOAD DUP2 JUMP JUMPDEST PUSH1 0x1 SLOAD PUSH1 0x0 SWAP1 PUSH1 0x1 PUSH1 0x1 PUSH1 0xA0 SHL SUB AND CALLER EQ PUSH2 0x9FC JUMPI PUSH1 0x40 MLOAD PUSH3 0x461BCD PUSH1 0xE5 SHL DUP2 MSTORE PUSH1 0x4 ADD PUSH2 0x529 SWAP1 PUSH2 0x3337 JUMP JUMPDEST PUSH1 0x0 PUSH2 0xA07 DUP4 PUSH2 0x1E9B JUMP JUMPDEST PUSH1 0x5 SLOAD SWAP1 SWAP4 POP SWAP1 SWAP2 POP PUSH2 0xA24 SWAP1 PUSH1 0x1 PUSH1 0x1 PUSH1 0xA0 SHL SUB AND CALLER DUP4 PUSH2 0x1E7C JUMP JUMPDEST POP SWAP2 SWAP1 POP JUMP JUMPDEST PUSH1 0x2 SLOAD PUSH1 0x1 PUSH1 0x1 PUSH1 0xA0 SHL SUB AND CALLER EQ DUP1 PUSH2 0xA5B JUMPI POP PUSH2 0xA46 PUSH2 0x1D4D JUMP JUMPDEST PUSH1 0x1 PUSH1 0x1 PUSH1 0xA0 SHL SUB AND CALLER PUSH1 0x1 PUSH1 0x1 PUSH1 0xA0 SHL SUB AND EQ JUMPDEST PUSH2 0xA77 JUMPI PUSH1 0x40 MLOAD PUSH3 0x461BCD PUSH1 0xE5 SHL DUP2 MSTORE PUSH1 0x4 ADD PUSH2 0x529 SWAP1 PUSH2 0x33AF JUMP JUMPDEST PUSH1 0x6 DUP2 SWAP1 SSTORE PUSH1 0x40 MLOAD PUSH32 0xBB2C369A0355A34B02AB5FCE0643150C87E1C8DFE7C918D465591879F57948B1 SWAP1 PUSH2 0x845 SWAP1 DUP4 SWAP1 PUSH2 0x3498 JUMP JUMPDEST PUSH1 0x4 SLOAD PUSH1 0x1 PUSH1 0x1 PUSH1 0xA0 SHL SUB AND CALLER EQ DUP1 PUSH2 0xACF JUMPI POP PUSH1 0x2 SLOAD PUSH1 0x1 PUSH1 0x1 PUSH1 0xA0 SHL SUB AND CALLER EQ JUMPDEST DUP1 PUSH2 0xAF2 JUMPI POP PUSH2 0xADD PUSH2 0x1D4D JUMP JUMPDEST PUSH1 0x1 PUSH1 0x1 PUSH1 0xA0 SHL SUB AND CALLER PUSH1 0x1 PUSH1 0x1 PUSH1 0xA0 SHL SUB AND EQ JUMPDEST DUP1 PUSH2 0xB93 JUMPI POP PUSH1 0x1 PUSH1 0x0 SWAP1 SLOAD SWAP1 PUSH2 0x100 EXP SWAP1 DIV PUSH1 0x1 PUSH1 0x1 PUSH1 0xA0 SHL SUB AND PUSH1 0x1 PUSH1 0x1 PUSH1 0xA0 SHL SUB AND PUSH4 0x452A9320 PUSH1 0x40 MLOAD DUP2 PUSH4 0xFFFFFFFF AND PUSH1 0xE0 SHL DUP2 MSTORE PUSH1 0x4 ADD PUSH1 0x20 PUSH1 0x40 MLOAD DUP1 DUP4 SUB DUP2 DUP7 DUP1 EXTCODESIZE ISZERO DUP1 ISZERO PUSH2 0xB46 JUMPI PUSH1 0x0 DUP1 REVERT JUMPDEST POP GAS STATICCALL ISZERO DUP1 ISZERO PUSH2 0xB5A JUMPI RETURNDATASIZE PUSH1 0x0 DUP1 RETURNDATACOPY RETURNDATASIZE PUSH1 0x0 REVERT JUMPDEST POP POP POP POP PUSH1 0x40 MLOAD RETURNDATASIZE PUSH1 0x1F NOT PUSH1 0x1F DUP3 ADD AND DUP3 ADD DUP1 PUSH1 0x40 MSTORE POP DUP2 ADD SWAP1 PUSH2 0xB7E SWAP2 SWAP1 PUSH2 0x2CF7 JUMP JUMPDEST PUSH1 0x1 PUSH1 0x1 PUSH1 0xA0 SHL SUB AND CALLER PUSH1 0x1 PUSH1 0x1 PUSH1 0xA0 SHL SUB AND EQ JUMPDEST DUP1 PUSH2 0xC34 JUMPI POP PUSH1 0x1 PUSH1 0x0 SWAP1 SLOAD SWAP1 PUSH2 0x100 EXP SWAP1 DIV PUSH1 0x1 PUSH1 0x1 PUSH1 0xA0 SHL SUB AND PUSH1 0x1 PUSH1 0x1 PUSH1 0xA0 SHL SUB AND PUSH4 0x88A8D602 PUSH1 0x40 MLOAD DUP2 PUSH4 0xFFFFFFFF AND PUSH1 0xE0 SHL DUP2 MSTORE PUSH1 0x4 ADD PUSH1 0x20 PUSH1 0x40 MLOAD DUP1 DUP4 SUB DUP2 DUP7 DUP1 EXTCODESIZE ISZERO DUP1 ISZERO PUSH2 0xBE7 JUMPI PUSH1 0x0 DUP1 REVERT JUMPDEST POP GAS STATICCALL ISZERO DUP1 ISZERO PUSH2 0xBFB JUMPI RETURNDATASIZE PUSH1 0x0 DUP1 RETURNDATACOPY RETURNDATASIZE PUSH1 0x0 REVERT JUMPDEST POP POP POP POP PUSH1 0x40 MLOAD RETURNDATASIZE PUSH1 0x1F NOT PUSH1 0x1F DUP3 ADD AND DUP3 ADD DUP1 PUSH1 0x40 MSTORE POP DUP2 ADD SWAP1 PUSH2 0xC1F SWAP2 SWAP1 PUSH2 0x2CF7 JUMP JUMPDEST PUSH1 0x1 PUSH1 0x1 PUSH1 0xA0 SHL SUB AND CALLER PUSH1 0x1 PUSH1 0x1 PUSH1 0xA0 SHL SUB AND EQ JUMPDEST PUSH2 0xC50 JUMPI PUSH1 0x40 MLOAD PUSH3 0x461BCD PUSH1 0xE5 SHL DUP2 MSTORE PUSH1 0x4 ADD PUSH2 0x529 SWAP1 PUSH2 0x33AF JUMP JUMPDEST PUSH1 0x1 SLOAD PUSH1 0x40 DUP1 MLOAD PUSH4 0xBF3759B5 PUSH1 0xE0 SHL DUP2 MSTORE SWAP1 MLOAD PUSH2 0xCD3 SWAP3 PUSH1 0x1 PUSH1 0x1 PUSH1 0xA0 SHL SUB AND SWAP2 PUSH4 0xBF3759B5 SWAP2 PUSH1 0x4 DUP1 DUP4 ADD SWAP3 PUSH1 0x20 SWAP3 SWAP2 SWAP1 DUP3 SWAP1 SUB ADD DUP2 DUP7 DUP1 EXTCODESIZE ISZERO DUP1 ISZERO PUSH2 0xC96 JUMPI PUSH1 0x0 DUP1 REVERT JUMPDEST POP GAS STATICCALL ISZERO DUP1 ISZERO PUSH2 0xCAA JUMPI RETURNDATASIZE PUSH1 0x0 DUP1 RETURNDATACOPY RETURNDATASIZE PUSH1 0x0 REVERT JUMPDEST POP POP POP POP PUSH1 0x40 MLOAD RETURNDATASIZE PUSH1 0x1F NOT PUSH1 0x1F DUP3 ADD AND DUP3 ADD DUP1 PUSH1 0x40 MSTORE POP DUP2 ADD SWAP1 PUSH2 0xCCE SWAP2 SWAP1 PUSH2 0x306D JUMP JUMPDEST PUSH2 0x1EFA JUMP JUMPDEST JUMP JUMPDEST PUSH1 0x4 SLOAD PUSH1 0x1 PUSH1 0x1 PUSH1 0xA0 SHL SUB AND CALLER EQ DUP1 PUSH2 0xCF8 JUMPI POP PUSH1 0x2 SLOAD PUSH1 0x1 PUSH1 0x1 PUSH1 0xA0 SHL SUB AND CALLER EQ JUMPDEST DUP1 PUSH2 0xD1B JUMPI POP PUSH2 0xD06 PUSH2 0x1D4D JUMP JUMPDEST PUSH1 0x1 PUSH1 0x1 PUSH1 0xA0 SHL SUB AND CALLER PUSH1 0x1 PUSH1 0x1 PUSH1 0xA0 SHL SUB AND EQ JUMPDEST DUP1 PUSH2 0xDBC JUMPI POP PUSH1 0x1 PUSH1 0x0 SWAP1 SLOAD SWAP1 PUSH2 0x100 EXP SWAP1 DIV PUSH1 0x1 PUSH1 0x1 PUSH1 0xA0 SHL SUB AND PUSH1 0x1 PUSH1 0x1 PUSH1 0xA0 SHL SUB AND PUSH4 0x452A9320 PUSH1 0x40 MLOAD DUP2 PUSH4 0xFFFFFFFF AND PUSH1 0xE0 SHL DUP2 MSTORE PUSH1 0x4 ADD PUSH1 0x20 PUSH1 0x40 MLOAD DUP1 DUP4 SUB DUP2 DUP7 DUP1 EXTCODESIZE ISZERO DUP1 ISZERO PUSH2 0xD6F JUMPI PUSH1 0x0 DUP1 REVERT JUMPDEST POP GAS STATICCALL ISZERO DUP1 ISZERO PUSH2 0xD83 JUMPI RETURNDATASIZE PUSH1 0x0 DUP1 RETURNDATACOPY RETURNDATASIZE PUSH1 0x0 REVERT JUMPDEST POP POP POP POP PUSH1 0x40 MLOAD RETURNDATASIZE PUSH1 0x1F NOT PUSH1 0x1F DUP3 ADD AND DUP3 ADD DUP1 PUSH1 0x40 MSTORE POP DUP2 ADD SWAP1 PUSH2 0xDA7 SWAP2 SWAP1 PUSH2 0x2CF7 JUMP JUMPDEST PUSH1 0x1 PUSH1 0x1 PUSH1 0xA0 SHL SUB AND CALLER PUSH1 0x1 PUSH1 0x1 PUSH1 0xA0 SHL SUB AND EQ JUMPDEST DUP1 PUSH2 0xE5D JUMPI POP PUSH1 0x1 PUSH1 0x0 SWAP1 SLOAD SWAP1 PUSH2 0x100 EXP SWAP1 DIV PUSH1 0x1 PUSH1 0x1 PUSH1 0xA0 SHL SUB AND PUSH1 0x1 PUSH1 0x1 PUSH1 0xA0 SHL SUB AND PUSH4 0x88A8D602 PUSH1 0x40 MLOAD DUP2 PUSH4 0xFFFFFFFF AND PUSH1 0xE0 SHL DUP2 MSTORE PUSH1 0x4 ADD PUSH1 0x20 PUSH1 0x40 MLOAD DUP1 DUP4 SUB DUP2 DUP7 DUP1 EXTCODESIZE ISZERO DUP1 ISZERO PUSH2 0xE10 JUMPI PUSH1 0x0 DUP1 REVERT JUMPDEST POP GAS STATICCALL ISZERO DUP1 ISZERO PUSH2 0xE24 JUMPI RETURNDATASIZE PUSH1 0x0 DUP1 RETURNDATACOPY RETURNDATASIZE PUSH1 0x0 REVERT JUMPDEST POP POP POP POP PUSH1 0x40 MLOAD RETURNDATASIZE PUSH1 0x1F NOT PUSH1 0x1F DUP3 ADD AND DUP3 ADD DUP1 PUSH1 0x40 MSTORE POP DUP2 ADD SWAP1 PUSH2 0xE48 SWAP2 SWAP1 PUSH2 0x2CF7 JUMP JUMPDEST PUSH1 0x1 PUSH1 0x1 PUSH1 0xA0 SHL SUB AND CALLER PUSH1 0x1 PUSH1 0x1 PUSH1 0xA0 SHL SUB AND EQ JUMPDEST PUSH2 0xE79 JUMPI PUSH1 0x40 MLOAD PUSH3 0x461BCD PUSH1 0xE5 SHL DUP2 MSTORE PUSH1 0x4 ADD PUSH2 0x529 SWAP1 PUSH2 0x33AF JUMP JUMPDEST PUSH1 0x0 DUP1 PUSH1 0x0 PUSH1 0x1 PUSH1 0x0 SWAP1 SLOAD SWAP1 PUSH2 0x100 EXP SWAP1 DIV PUSH1 0x1 PUSH1 0x1 PUSH1 0xA0 SHL SUB AND PUSH1 0x1 PUSH1 0x1 PUSH1 0xA0 SHL SUB AND PUSH4 0xBF3759B5 PUSH1 0x40 MLOAD DUP2 PUSH4 0xFFFFFFFF AND PUSH1 0xE0 SHL DUP2 MSTORE PUSH1 0x4 ADD PUSH1 0x20 PUSH1 0x40 MLOAD DUP1 DUP4 SUB DUP2 DUP7 DUP1 EXTCODESIZE ISZERO DUP1 ISZERO PUSH2 0xECC JUMPI PUSH1 0x0 DUP1 REVERT JUMPDEST POP GAS STATICCALL ISZERO DUP1 ISZERO PUSH2 0xEE0 JUMPI RETURNDATASIZE PUSH1 0x0 DUP1 RETURNDATACOPY RETURNDATASIZE PUSH1 0x0 REVERT JUMPDEST POP POP POP POP PUSH1 0x40 MLOAD RETURNDATASIZE PUSH1 0x1F NOT PUSH1 0x1F DUP3 ADD AND DUP3 ADD DUP1 PUSH1 0x40 MSTORE POP DUP2 ADD SWAP1 PUSH2 0xF04 SWAP2 SWAP1 PUSH2 0x306D JUMP JUMPDEST PUSH1 0xA SLOAD SWAP1 SWAP2 POP PUSH1 0x0 SWAP1 PUSH1 0xFF AND ISZERO PUSH2 0xF5A JUMPI PUSH1 0x0 PUSH2 0xF1F PUSH2 0x1AA7 JUMP JUMPDEST SWAP1 POP PUSH2 0xF38 DUP4 DUP3 GT PUSH2 0xF31 JUMPI DUP4 PUSH2 0xF33 JUMP JUMPDEST DUP2 JUMPDEST PUSH2 0x1E9B JUMP JUMPDEST SWAP5 POP SWAP2 POP DUP3 DUP3 GT ISZERO PUSH2 0xF54 JUMPI PUSH2 0xF4E DUP3 DUP5 PUSH2 0x1FAD JUMP JUMPDEST SWAP5 POP DUP3 SWAP2 POP JUMPDEST POP PUSH2 0xF6B JUMP JUMPDEST PUSH2 0xF63 DUP3 PUSH2 0x1FF8 JUMP JUMPDEST SWAP2 SWAP6 POP SWAP4 POP SWAP1 POP JUMPDEST PUSH1 0x1 SLOAD PUSH1 0x40 MLOAD PUSH4 0x28766EBF PUSH1 0xE2 SHL DUP2 MSTORE PUSH1 0x1 PUSH1 0x1 PUSH1 0xA0 SHL SUB SWAP1 SWAP2 AND SWAP1 PUSH4 0xA1D9BAFC SWAP1 PUSH2 0xF9F SWAP1 DUP8 SWAP1 DUP8 SWAP1 DUP7 SWAP1 PUSH1 0x4 ADD PUSH2 0x3511 JUMP JUMPDEST PUSH1 0x20 PUSH1 0x40 MLOAD DUP1 DUP4 SUB DUP2 PUSH1 0x0 DUP8 DUP1 EXTCODESIZE ISZERO DUP1 ISZERO PUSH2 0xFB9 JUMPI PUSH1 0x0 DUP1 REVERT JUMPDEST POP GAS CALL ISZERO DUP1 ISZERO PUSH2 0xFCD JUMPI RETURNDATASIZE PUSH1 0x0 DUP1 RETURNDATACOPY RETURNDATASIZE PUSH1 0x0 REVERT JUMPDEST POP POP POP POP PUSH1 0x40 MLOAD RETURNDATASIZE PUSH1 0x1F NOT PUSH1 0x1F DUP3 ADD AND DUP3 ADD DUP1 PUSH1 0x40 MSTORE POP DUP2 ADD SWAP1 PUSH2 0xFF1 SWAP2 SWAP1 PUSH2 0x306D JUMP JUMPDEST SWAP2 POP PUSH2 0xFFC DUP3 PUSH2 0x1EFA JUMP JUMPDEST PUSH32 0x4C0F499FFE6BEFA0CA7C826B0916CF87BEA98DE658013E76938489368D60D509 DUP5 DUP5 DUP4 DUP6 PUSH1 0x40 MLOAD PUSH2 0x1031 SWAP5 SWAP4 SWAP3 SWAP2 SWAP1 PUSH2 0x3527 JUMP JUMPDEST PUSH1 0x40 MLOAD DUP1 SWAP2 SUB SWAP1 LOG1 POP POP POP POP JUMP JUMPDEST PUSH1 0xA SLOAD PUSH1 0xFF AND DUP2 JUMP JUMPDEST PUSH2 0x1054 DUP5 DUP5 DUP5 DUP5 PUSH2 0x225B JUMP JUMPDEST POP POP POP POP JUMP JUMPDEST PUSH1 0x0 JUMPDEST SWAP2 SWAP1 POP JUMP JUMPDEST PUSH1 0xF SLOAD PUSH1 0x1 PUSH1 0x1 PUSH1 0xA0 SHL SUB AND DUP2 JUMP JUMPDEST PUSH1 0x2 SLOAD PUSH1 0x1 PUSH1 0x1 PUSH1 0xA0 SHL SUB AND CALLER EQ DUP1 PUSH2 0x10A2 JUMPI POP PUSH2 0x108D PUSH2 0x1D4D JUMP JUMPDEST PUSH1 0x1 PUSH1 0x1 PUSH1 0xA0 SHL SUB AND CALLER PUSH1 0x1 PUSH1 0x1 PUSH1 0xA0 SHL SUB AND EQ JUMPDEST PUSH2 0x10BE JUMPI PUSH1 0x40 MLOAD PUSH3 0x461BCD PUSH1 0xE5 SHL DUP2 MSTORE PUSH1 0x4 ADD PUSH2 0x529 SWAP1 PUSH2 0x33AF JUMP JUMPDEST PUSH1 0x1 PUSH1 0x1 PUSH1 0xA0 SHL SUB DUP2 AND PUSH2 0x10D1 JUMPI PUSH1 0x0 DUP1 REVERT JUMPDEST PUSH1 0x4 DUP1 SLOAD PUSH1 0x1 PUSH1 0x1 PUSH1 0xA0 SHL SUB NOT AND PUSH1 0x1 PUSH1 0x1 PUSH1 0xA0 SHL SUB DUP4 AND OR SWAP1 SSTORE PUSH1 0x40 MLOAD PUSH32 0x2F202DDB4A2E345F6323ED90F8FC8559D770A7ABBBEEE84DDE8ACA3351FE7154 SWAP1 PUSH2 0x845 SWAP1 DUP4 SWAP1 PUSH2 0x30D6 JUMP JUMPDEST PUSH1 0x2 SLOAD PUSH1 0x1 PUSH1 0x1 PUSH1 0xA0 SHL SUB AND CALLER EQ DUP1 PUSH2 0x114D JUMPI POP PUSH2 0x1138 PUSH2 0x1D4D JUMP JUMPDEST PUSH1 0x1 PUSH1 0x1 PUSH1 0xA0 SHL SUB AND CALLER PUSH1 0x1 PUSH1 0x1 PUSH1 0xA0 SHL SUB AND EQ JUMPDEST PUSH2 0x1169 JUMPI PUSH1 0x40 MLOAD PUSH3 0x461BCD PUSH1 0xE5 SHL DUP2 MSTORE PUSH1 0x4 ADD PUSH2 0x529 SWAP1 PUSH2 0x33AF JUMP JUMPDEST PUSH2 0x1175 PUSH1 0x0 DUP4 DUP4 PUSH2 0x2BFC JUMP JUMPDEST POP PUSH32 0x300E67D5A415B6D015A471D9C7B95DD58F3E8290AF965E84E0F845DE2996DDA6 DUP3 DUP3 PUSH1 0x40 MLOAD PUSH2 0x11A7 SWAP3 SWAP2 SWAP1 PUSH2 0x31E2 JUMP JUMPDEST PUSH1 0x40 MLOAD DUP1 SWAP2 SUB SWAP1 LOG1 POP POP JUMP JUMPDEST PUSH1 0xD SLOAD PUSH1 0x1 PUSH1 0x1 PUSH1 0xA0 SHL SUB AND DUP2 JUMP JUMPDEST PUSH1 0x40 MLOAD PUSH20 0x3D602D80600A3D3981F3363D3D373D3D3D363D73 PUSH1 0x60 SHL DUP2 MSTORE ADDRESS PUSH1 0x60 SHL PUSH1 0x14 DUP3 ADD DUP2 SWAP1 MSTORE PUSH15 0x5AF43D82803E903D91602B57FD5BF3 PUSH1 0x88 SHL PUSH1 0x28 DUP4 ADD MSTORE PUSH1 0x0 SWAP2 PUSH1 0x37 DUP2 DUP5 CREATE PUSH1 0x40 MLOAD PUSH4 0xB45D183 PUSH1 0xE3 SHL DUP2 MSTORE SWAP1 SWAP4 POP PUSH1 0x1 PUSH1 0x1 PUSH1 0xA0 SHL SUB DUP5 AND SWAP2 POP PUSH4 0x5A2E8C18 SWAP1 PUSH2 0x1240 SWAP1 DUP16 SWAP1 DUP16 SWAP1 DUP16 SWAP1 DUP16 SWAP1 PUSH1 0x4 ADD PUSH2 0x3104 JUMP JUMPDEST PUSH1 0x0 PUSH1 0x40 MLOAD DUP1 DUP4 SUB DUP2 PUSH1 0x0 DUP8 DUP1 EXTCODESIZE ISZERO DUP1 ISZERO PUSH2 0x125A JUMPI PUSH1 0x0 DUP1 REVERT JUMPDEST POP GAS CALL ISZERO DUP1 ISZERO PUSH2 0x126E JUMPI RETURNDATASIZE PUSH1 0x0 DUP1 RETURNDATACOPY RETURNDATASIZE PUSH1 0x0 REVERT JUMPDEST POP POP PUSH1 0x40 MLOAD PUSH4 0xCC2A9A5B PUSH1 0xE0 SHL DUP2 MSTORE PUSH1 0x1 PUSH1 0x1 PUSH1 0xA0 SHL SUB DUP6 AND SWAP3 POP PUSH4 0xCC2A9A5B SWAP2 POP PUSH2 0x12A8 SWAP1 DUP12 SWAP1 DUP12 SWAP1 DUP12 SWAP1 DUP12 SWAP1 DUP12 SWAP1 DUP12 SWAP1 PUSH1 0x4 ADD PUSH2 0x312F JUMP JUMPDEST PUSH1 0x0 PUSH1 0x40 MLOAD DUP1 DUP4 SUB DUP2 PUSH1 0x0 DUP8 DUP1 EXTCODESIZE ISZERO DUP1 ISZERO PUSH2 0x12C2 JUMPI PUSH1 0x0 DUP1 REVERT JUMPDEST POP GAS CALL ISZERO DUP1 ISZERO PUSH2 0x12D6 JUMPI RETURNDATASIZE PUSH1 0x0 DUP1 RETURNDATACOPY RETURNDATASIZE PUSH1 0x0 REVERT JUMPDEST POP POP POP POP POP SWAP11 SWAP10 POP POP POP POP POP POP POP POP POP POP JUMP JUMPDEST PUSH1 0x8 SLOAD DUP2 JUMP JUMPDEST PUSH1 0x0 SWAP1 JUMP JUMPDEST PUSH1 0x2 SLOAD PUSH1 0x1 PUSH1 0x1 PUSH1 0xA0 SHL SUB AND CALLER EQ DUP1 PUSH2 0x1325 JUMPI POP PUSH2 0x1310 PUSH2 0x1D4D JUMP JUMPDEST PUSH1 0x1 PUSH1 0x1 PUSH1 0xA0 SHL SUB AND CALLER PUSH1 0x1 PUSH1 0x1 PUSH1 0xA0 SHL SUB AND EQ JUMPDEST PUSH2 0x1341 JUMPI PUSH1 0x40 MLOAD PUSH3 0x461BCD PUSH1 0xE5 SHL DUP2 MSTORE PUSH1 0x4 ADD PUSH2 0x529 SWAP1 PUSH2 0x33AF JUMP JUMPDEST PUSH1 0x8 DUP2 SWAP1 SSTORE PUSH1 0x40 MLOAD PUSH32 0xD94596337DF4C2F0F44D30A7FC5DB1C7BB60D9ACA4185ED77C6FD96EB45EC298 SWAP1 PUSH2 0x845 SWAP1 DUP4 SWAP1 PUSH2 0x3498 JUMP JUMPDEST PUSH1 0x6 SLOAD DUP2 JUMP JUMPDEST PUSH1 0x3 SLOAD PUSH1 0x1 PUSH1 0x1 PUSH1 0xA0 SHL SUB AND DUP2 JUMP JUMPDEST PUSH2 0x1393 PUSH2 0x1D4D JUMP JUMPDEST PUSH1 0x1 PUSH1 0x1 PUSH1 0xA0 SHL SUB AND CALLER PUSH1 0x1 PUSH1 0x1 PUSH1 0xA0 SHL SUB AND EQ PUSH2 0x13C3 JUMPI PUSH1 0x40 MLOAD PUSH3 0x461BCD PUSH1 0xE5 SHL DUP2 MSTORE PUSH1 0x4 ADD PUSH2 0x529 SWAP1 PUSH2 0x33AF JUMP JUMPDEST PUSH1 0x10 DUP1 SLOAD PUSH1 0x1 PUSH1 0x1 PUSH1 0xA0 SHL SUB NOT AND PUSH1 0x1 PUSH1 0x1 PUSH1 0xA0 SHL SUB SWAP3 SWAP1 SWAP3 AND SWAP2 SWAP1 SWAP2 OR SWAP1 SSTORE JUMP JUMPDEST PUSH1 0x10 SLOAD PUSH1 0x1 PUSH1 0x1 PUSH1 0xA0 SHL SUB AND DUP2 JUMP JUMPDEST PUSH1 0x4 SLOAD PUSH1 0x1 PUSH1 0x1 PUSH1 0xA0 SHL SUB AND DUP2 JUMP JUMPDEST PUSH1 0x5 SLOAD PUSH1 0x40 MLOAD PUSH4 0x70A08231 PUSH1 0xE0 SHL DUP2 MSTORE PUSH1 0x0 SWAP2 PUSH1 0x1 PUSH1 0x1 PUSH1 0xA0 SHL SUB AND SWAP1 PUSH4 0x70A08231 SWAP1 PUSH2 0x881 SWAP1 ADDRESS SWAP1 PUSH1 0x4 ADD PUSH2 0x30D6 JUMP JUMPDEST PUSH1 0x2 SLOAD PUSH1 0x1 PUSH1 0x1 PUSH1 0xA0 SHL SUB AND CALLER EQ DUP1 PUSH2 0x1465 JUMPI POP PUSH2 0x1450 PUSH2 0x1D4D JUMP JUMPDEST PUSH1 0x1 PUSH1 0x1 PUSH1 0xA0 SHL SUB AND CALLER PUSH1 0x1 PUSH1 0x1 PUSH1 0xA0 SHL SUB AND EQ JUMPDEST PUSH2 0x1481 JUMPI PUSH1 0x40 MLOAD PUSH3 0x461BCD PUSH1 0xE5 SHL DUP2 MSTORE PUSH1 0x4 ADD PUSH2 0x529 SWAP1 PUSH2 0x33AF JUMP JUMPDEST PUSH1 0x1 PUSH1 0x1 PUSH1 0xA0 SHL SUB DUP2 AND PUSH2 0x1494 JUMPI PUSH1 0x0 DUP1 REVERT JUMPDEST PUSH1 0x2 DUP1 SLOAD PUSH1 0x1 PUSH1 0x1 PUSH1 0xA0 SHL SUB NOT AND PUSH1 0x1 PUSH1 0x1 PUSH1 0xA0 SHL SUB DUP4 AND OR SWAP1 SSTORE PUSH1 0x40 MLOAD PUSH32 0x352ECECAE6D7D1E6D26BCF2C549DFD55BE1637E9B22DC0CF3B71DDB36097A6B4 SWAP1 PUSH2 0x845 SWAP1 DUP4 SWAP1 PUSH2 0x30D6 JUMP JUMPDEST PUSH1 0xB SLOAD PUSH1 0x1 PUSH1 0x1 PUSH1 0xA0 SHL SUB AND DUP2 JUMP JUMPDEST PUSH2 0x14FC DUP7 DUP7 DUP7 DUP7 DUP7 DUP7 PUSH2 0x2406 JUMP JUMPDEST POP POP POP POP POP POP JUMP JUMPDEST PUSH1 0x1 SLOAD PUSH1 0x1 PUSH1 0x1 PUSH1 0xA0 SHL SUB AND CALLER EQ DUP1 PUSH2 0x1535 JUMPI POP PUSH2 0x1520 PUSH2 0x1D4D JUMP JUMPDEST PUSH1 0x1 PUSH1 0x1 PUSH1 0xA0 SHL SUB AND CALLER PUSH1 0x1 PUSH1 0x1 PUSH1 0xA0 SHL SUB AND EQ JUMPDEST PUSH2 0x153E JUMPI PUSH1 0x0 DUP1 REVERT JUMPDEST PUSH1 0x1 SLOAD PUSH1 0x40 DUP1 MLOAD PUSH4 0xFBFA77CF PUSH1 0xE0 SHL DUP2 MSTORE SWAP1 MLOAD PUSH1 0x1 PUSH1 0x1 PUSH1 0xA0 SHL SUB SWAP3 DUP4 AND SWAP3 DUP5 AND SWAP2 PUSH4 0xFBFA77CF SWAP2 PUSH1 0x4 DUP1 DUP4 ADD SWAP3 PUSH1 0x20 SWAP3 SWAP2 SWAP1 DUP3 SWAP1 SUB ADD DUP2 DUP7 DUP1 EXTCODESIZE ISZERO DUP1 ISZERO PUSH2 0x1585 JUMPI PUSH1 0x0 DUP1 REVERT JUMPDEST POP GAS STATICCALL ISZERO DUP1 ISZERO PUSH2 0x1599 JUMPI RETURNDATASIZE PUSH1 0x0 DUP1 RETURNDATACOPY RETURNDATASIZE PUSH1 0x0 REVERT JUMPDEST POP POP POP POP PUSH1 0x40 MLOAD RETURNDATASIZE PUSH1 0x1F NOT PUSH1 0x1F DUP3 ADD AND DUP3 ADD DUP1 PUSH1 0x40 MSTORE POP DUP2 ADD SWAP1 PUSH2 0x15BD SWAP2 SWAP1 PUSH2 0x2CF7 JUMP JUMPDEST PUSH1 0x1 PUSH1 0x1 PUSH1 0xA0 SHL SUB AND EQ PUSH2 0x15D0 JUMPI PUSH1 0x0 DUP1 REVERT JUMPDEST PUSH2 0x15D9 DUP2 PUSH2 0x24CA JUMP JUMPDEST PUSH1 0x5 SLOAD PUSH1 0x40 MLOAD PUSH4 0x70A08231 PUSH1 0xE0 SHL DUP2 MSTORE PUSH2 0x1672 SWAP2 DUP4 SWAP2 PUSH1 0x1 PUSH1 0x1 PUSH1 0xA0 SHL SUB SWAP1 SWAP2 AND SWAP1 PUSH4 0x70A08231 SWAP1 PUSH2 0x160F SWAP1 ADDRESS SWAP1 PUSH1 0x4 ADD PUSH2 0x30D6 JUMP JUMPDEST PUSH1 0x20 PUSH1 0x40 MLOAD DUP1 DUP4 SUB DUP2 DUP7 DUP1 EXTCODESIZE ISZERO DUP1 ISZERO PUSH2 0x1627 JUMPI PUSH1 0x0 DUP1 REVERT JUMPDEST POP GAS STATICCALL ISZERO DUP1 ISZERO PUSH2 0x163B JUMPI RETURNDATASIZE PUSH1 0x0 DUP1 RETURNDATACOPY RETURNDATASIZE PUSH1 0x0 REVERT JUMPDEST POP POP POP POP PUSH1 0x40 MLOAD RETURNDATASIZE PUSH1 0x1F NOT PUSH1 0x1F DUP3 ADD AND DUP3 ADD DUP1 PUSH1 0x40 MSTORE POP DUP2 ADD SWAP1 PUSH2 0x165F SWAP2 SWAP1 PUSH2 0x306D JUMP JUMPDEST PUSH1 0x5 SLOAD PUSH1 0x1 PUSH1 0x1 PUSH1 0xA0 SHL SUB AND SWAP2 SWAP1 PUSH2 0x1E7C JUMP JUMPDEST POP JUMP JUMPDEST PUSH1 0xA SLOAD PUSH2 0x100 SWAP1 DIV PUSH1 0x1 PUSH1 0x1 PUSH1 0xA0 SHL SUB AND DUP2 JUMP JUMPDEST PUSH1 0xE SLOAD PUSH1 0x1 PUSH1 0x1 PUSH1 0xA0 SHL SUB AND DUP2 JUMP JUMPDEST PUSH1 0x2 SLOAD PUSH1 0x1 PUSH1 0x1 PUSH1 0xA0 SHL SUB AND CALLER EQ PUSH2 0x16C2 JUMPI PUSH1 0x40 MLOAD PUSH3 0x461BCD PUSH1 0xE5 SHL DUP2 MSTORE PUSH1 0x4 ADD PUSH2 0x529 SWAP1 PUSH2 0x3244 JUMP JUMPDEST PUSH1 0x1 PUSH1 0x1 PUSH1 0xA0 SHL SUB DUP2 AND PUSH2 0x16D5 JUMPI PUSH1 0x0 DUP1 REVERT JUMPDEST PUSH1 0x1 SLOAD PUSH1 0x3 SLOAD PUSH1 0x40 MLOAD PUSH4 0x95EA7B3 PUSH1 0xE0 SHL DUP2 MSTORE PUSH1 0x1 PUSH1 0x1 PUSH1 0xA0 SHL SUB SWAP3 DUP4 AND SWAP3 PUSH4 0x95EA7B3 SWAP3 PUSH2 0x170C SWAP3 SWAP2 AND SWAP1 PUSH1 0x0 SWAP1 PUSH1 0x4 ADD PUSH2 0x3169 JUMP JUMPDEST PUSH1 0x20 PUSH1 0x40 MLOAD DUP1 DUP4 SUB DUP2 PUSH1 0x0 DUP8 DUP1 EXTCODESIZE ISZERO DUP1 ISZERO PUSH2 0x1726 JUMPI PUSH1 0x0 DUP1 REVERT JUMPDEST POP GAS CALL ISZERO DUP1 ISZERO PUSH2 0x173A JUMPI RETURNDATASIZE PUSH1 0x0 DUP1 RETURNDATACOPY RETURNDATASIZE PUSH1 0x0 REVERT JUMPDEST POP POP POP POP PUSH1 0x40 MLOAD RETURNDATASIZE PUSH1 0x1F NOT PUSH1 0x1F DUP3 ADD AND DUP3 ADD DUP1 PUSH1 0x40 MSTORE POP DUP2 ADD SWAP1 PUSH2 0x175E SWAP2 SWAP1 PUSH2 0x2EBE JUMP JUMPDEST POP PUSH1 0x3 DUP1 SLOAD PUSH1 0x1 PUSH1 0x1 PUSH1 0xA0 SHL SUB NOT AND PUSH1 0x1 PUSH1 0x1 PUSH1 0xA0 SHL SUB DUP4 DUP2 AND SWAP2 SWAP1 SWAP2 OR SWAP2 DUP3 SWAP1 SSTORE PUSH1 0x1 SLOAD PUSH1 0x40 MLOAD PUSH4 0x95EA7B3 PUSH1 0xE0 SHL DUP2 MSTORE SWAP1 DUP3 AND SWAP3 PUSH4 0x95EA7B3 SWAP3 PUSH2 0x17AD SWAP3 SWAP2 AND SWAP1 PUSH1 0x0 NOT SWAP1 PUSH1 0x4 ADD PUSH2 0x3169 JUMP JUMPDEST PUSH1 0x20 PUSH1 0x40 MLOAD DUP1 DUP4 SUB DUP2 PUSH1 0x0 DUP8 DUP1 EXTCODESIZE ISZERO DUP1 ISZERO PUSH2 0x17C7 JUMPI PUSH1 0x0 DUP1 REVERT JUMPDEST POP GAS CALL ISZERO DUP1 ISZERO PUSH2 0x17DB JUMPI RETURNDATASIZE PUSH1 0x0 DUP1 RETURNDATACOPY RETURNDATASIZE PUSH1 0x0 REVERT JUMPDEST POP POP POP POP PUSH1 0x40 MLOAD RETURNDATASIZE PUSH1 0x1F NOT PUSH1 0x1F DUP3 ADD AND DUP3 ADD DUP1 PUSH1 0x40 MSTORE POP DUP2 ADD SWAP1 PUSH2 0x17FF SWAP2 SWAP1 PUSH2 0x2EBE JUMP JUMPDEST POP PUSH32 0xAFBB66ABF8F3B719799940473A4052A3717CDD8E40FB6C8A3FAADAB316B1A069 DUP2 PUSH1 0x40 MLOAD PUSH2 0x845 SWAP2 SWAP1 PUSH2 0x30D6 JUMP JUMPDEST PUSH1 0x0 PUSH2 0x1839 PUSH2 0x2C7A JUMP JUMPDEST PUSH1 0x1 SLOAD PUSH1 0x40 MLOAD PUSH4 0x39EBF823 PUSH1 0xE0 SHL DUP2 MSTORE PUSH1 0x1 PUSH1 0x1 PUSH1 0xA0 SHL SUB SWAP1 SWAP2 AND SWAP1 PUSH4 0x39EBF823 SWAP1 PUSH2 0x1869 SWAP1 ADDRESS SWAP1 PUSH1 0x4 ADD PUSH2 0x30D6 JUMP JUMPDEST PUSH2 0x120 PUSH1 0x40 MLOAD DUP1 DUP4 SUB DUP2 DUP7 DUP1 EXTCODESIZE ISZERO DUP1 ISZERO PUSH2 0x1882 JUMPI PUSH1 0x0 DUP1 REVERT JUMPDEST POP GAS STATICCALL ISZERO DUP1 ISZERO PUSH2 0x1896 JUMPI RETURNDATASIZE PUSH1 0x0 DUP1 RETURNDATACOPY RETURNDATASIZE PUSH1 0x0 REVERT JUMPDEST POP POP POP POP PUSH1 0x40 MLOAD RETURNDATASIZE PUSH1 0x1F NOT PUSH1 0x1F DUP3 ADD AND DUP3 ADD DUP1 PUSH1 0x40 MSTORE POP DUP2 ADD SWAP1 PUSH2 0x18BA SWAP2 SWAP1 PUSH2 0x2FD7 JUMP JUMPDEST SWAP1 POP DUP1 PUSH1 0x20 ADD MLOAD PUSH1 0x0 EQ ISZERO PUSH2 0x18D3 JUMPI PUSH1 0x0 SWAP2 POP POP PUSH2 0x105D JUMP JUMPDEST PUSH1 0x6 SLOAD PUSH1 0xA0 DUP3 ADD MLOAD PUSH2 0x18E6 SWAP1 TIMESTAMP SWAP1 PUSH2 0x1FAD JUMP JUMPDEST LT ISZERO PUSH2 0x18F6 JUMPI PUSH1 0x0 SWAP2 POP POP PUSH2 0x105D JUMP JUMPDEST PUSH1 0x7 SLOAD PUSH1 0xA0 DUP3 ADD MLOAD PUSH2 0x1909 SWAP1 TIMESTAMP SWAP1 PUSH2 0x1FAD JUMP JUMPDEST LT PUSH2 0x1918 JUMPI PUSH1 0x1 SWAP2 POP POP PUSH2 0x105D JUMP JUMPDEST PUSH1 0x1 SLOAD PUSH1 0x40 DUP1 MLOAD PUSH4 0xBF3759B5 PUSH1 0xE0 SHL DUP2 MSTORE SWAP1 MLOAD PUSH1 0x0 SWAP3 PUSH1 0x1 PUSH1 0x1 PUSH1 0xA0 SHL SUB AND SWAP2 PUSH4 0xBF3759B5 SWAP2 PUSH1 0x4 DUP1 DUP4 ADD SWAP3 PUSH1 0x20 SWAP3 SWAP2 SWAP1 DUP3 SWAP1 SUB ADD DUP2 DUP7 DUP1 EXTCODESIZE ISZERO DUP1 ISZERO PUSH2 0x195D JUMPI PUSH1 0x0 DUP1 REVERT JUMPDEST POP GAS STATICCALL ISZERO DUP1 ISZERO PUSH2 0x1971 JUMPI RETURNDATASIZE PUSH1 0x0 DUP1 RETURNDATACOPY RETURNDATASIZE PUSH1 0x0 REVERT JUMPDEST POP POP POP POP PUSH1 0x40 MLOAD RETURNDATASIZE PUSH1 0x1F NOT PUSH1 0x1F DUP3 ADD AND DUP3 ADD DUP1 PUSH1 0x40 MSTORE POP DUP2 ADD SWAP1 PUSH2 0x1995 SWAP2 SWAP1 PUSH2 0x306D JUMP JUMPDEST SWAP1 POP PUSH1 0x9 SLOAD DUP2 GT ISZERO PUSH2 0x19AC JUMPI PUSH1 0x1 SWAP3 POP POP POP PUSH2 0x105D JUMP JUMPDEST PUSH1 0x0 PUSH2 0x19B6 PUSH2 0x1AA7 JUMP JUMPDEST SWAP1 POP DUP3 PUSH1 0xC0 ADD MLOAD PUSH2 0x19D2 PUSH1 0x9 SLOAD DUP4 PUSH2 0x27B7 SWAP1 SWAP2 SWAP1 PUSH4 0xFFFFFFFF AND JUMP JUMPDEST LT ISZERO PUSH2 0x19E4 JUMPI PUSH1 0x1 SWAP4 POP POP POP POP PUSH2 0x105D JUMP JUMPDEST PUSH1 0x0 DUP4 PUSH1 0xC0 ADD MLOAD DUP3 GT ISZERO PUSH2 0x1A05 JUMPI PUSH1 0xC0 DUP5 ADD MLOAD PUSH2 0x1A02 SWAP1 DUP4 SWAP1 PUSH2 0x1FAD JUMP JUMPDEST SWAP1 POP JUMPDEST PUSH1 0x1 SLOAD PUSH1 0x40 DUP1 MLOAD PUSH4 0x112C1F9B PUSH1 0xE0 SHL DUP2 MSTORE SWAP1 MLOAD PUSH1 0x0 SWAP3 PUSH1 0x1 PUSH1 0x1 PUSH1 0xA0 SHL SUB AND SWAP2 PUSH4 0x112C1F9B SWAP2 PUSH1 0x4 DUP1 DUP4 ADD SWAP3 PUSH1 0x20 SWAP3 SWAP2 SWAP1 DUP3 SWAP1 SUB ADD DUP2 DUP7 DUP1 EXTCODESIZE ISZERO DUP1 ISZERO PUSH2 0x1A4A JUMPI PUSH1 0x0 DUP1 REVERT JUMPDEST POP GAS STATICCALL ISZERO DUP1 ISZERO PUSH2 0x1A5E JUMPI RETURNDATASIZE PUSH1 0x0 DUP1 RETURNDATACOPY RETURNDATASIZE PUSH1 0x0 REVERT JUMPDEST POP POP POP POP PUSH1 0x40 MLOAD RETURNDATASIZE PUSH1 0x1F NOT PUSH1 0x1F DUP3 ADD AND DUP3 ADD DUP1 PUSH1 0x40 MSTORE POP DUP2 ADD SWAP1 PUSH2 0x1A82 SWAP2 SWAP1 PUSH2 0x306D JUMP JUMPDEST SWAP1 POP PUSH2 0x1A8E DUP2 DUP4 PUSH2 0x27B7 JUMP JUMPDEST PUSH1 0x8 SLOAD PUSH2 0x1A9B SWAP1 DUP10 PUSH2 0x27DC JUMP JUMPDEST LT SWAP8 SWAP7 POP POP POP POP POP POP POP JUMP JUMPDEST PUSH1 0x0 PUSH2 0x8D1 PUSH2 0x1AB4 PUSH2 0x850 JUMP JUMPDEST PUSH2 0x1ABC PUSH2 0x1403 JUMP JUMPDEST SWAP1 PUSH2 0x27B7 JUMP JUMPDEST PUSH1 0x2 SLOAD PUSH1 0x1 PUSH1 0x1 PUSH1 0xA0 SHL SUB AND CALLER EQ DUP1 PUSH2 0x1AF3 JUMPI POP PUSH2 0x1ADE PUSH2 0x1D4D JUMP JUMPDEST PUSH1 0x1 PUSH1 0x1 PUSH1 0xA0 SHL SUB AND CALLER PUSH1 0x1 PUSH1 0x1 PUSH1 0xA0 SHL SUB AND EQ JUMPDEST PUSH2 0x1B0F JUMPI PUSH1 0x40 MLOAD PUSH3 0x461BCD PUSH1 0xE5 SHL DUP2 MSTORE PUSH1 0x4 ADD PUSH2 0x529 SWAP1 PUSH2 0x33AF JUMP JUMPDEST PUSH1 0x7 DUP2 SWAP1 SSTORE PUSH1 0x40 MLOAD PUSH32 0x5430E11864AD7AA9775B07D12657FE52DF9AA2BA734355BD8EF8747BE2C800C5 SWAP1 PUSH2 0x845 SWAP1 DUP4 SWAP1 PUSH2 0x3498 JUMP JUMPDEST PUSH1 0x1 SLOAD PUSH1 0x1 PUSH1 0x1 PUSH1 0xA0 SHL SUB AND DUP2 JUMP JUMPDEST PUSH1 0x2 SLOAD PUSH1 0x1 PUSH1 0x1 PUSH1 0xA0 SHL SUB AND CALLER EQ DUP1 PUSH2 0x1B84 JUMPI POP PUSH2 0x1B6F PUSH2 0x1D4D JUMP JUMPDEST PUSH1 0x1 PUSH1 0x1 PUSH1 0xA0 SHL SUB AND CALLER PUSH1 0x1 PUSH1 0x1 PUSH1 0xA0 SHL SUB AND EQ JUMPDEST PUSH2 0x1BA0 JUMPI PUSH1 0x40 MLOAD PUSH3 0x461BCD PUSH1 0xE5 SHL DUP2 MSTORE PUSH1 0x4 ADD PUSH2 0x529 SWAP1 PUSH2 0x33AF JUMP JUMPDEST PUSH1 0xA DUP1 SLOAD PUSH1 0xFF NOT AND PUSH1 0x1 SWAP1 DUP2 OR SWAP1 SWAP2 SSTORE SLOAD PUSH1 0x40 DUP1 MLOAD PUSH4 0x507257CD PUSH1 0xE1 SHL DUP2 MSTORE SWAP1 MLOAD PUSH1 0x1 PUSH1 0x1 PUSH1 0xA0 SHL SUB SWAP1 SWAP3 AND SWAP2 PUSH4 0xA0E4AF9A SWAP2 PUSH1 0x4 DUP1 DUP3 ADD SWAP3 PUSH1 0x0 SWAP3 SWAP1 SWAP2 SWAP1 DUP3 SWAP1 SUB ADD DUP2 DUP4 DUP8 DUP1 EXTCODESIZE ISZERO DUP1 ISZERO PUSH2 0x1BF4 JUMPI PUSH1 0x0 DUP1 REVERT JUMPDEST POP GAS CALL ISZERO DUP1 ISZERO PUSH2 0x1C08 JUMPI RETURNDATASIZE PUSH1 0x0 DUP1 RETURNDATACOPY RETURNDATASIZE PUSH1 0x0 REVERT JUMPDEST POP POP PUSH1 0x40 MLOAD PUSH32 0x97E963041E952738788B9D4871D854D282065B8F90A464928D6528F2E9A4FD0B SWAP3 POP PUSH1 0x0 SWAP2 POP LOG1 JUMP JUMPDEST DUP1 ISZERO DUP1 PUSH2 0x1CBF JUMPI POP PUSH1 0x40 MLOAD PUSH4 0x6EB1769F PUSH1 0xE1 SHL DUP2 MSTORE PUSH1 0x1 PUSH1 0x1 PUSH1 0xA0 SHL SUB DUP5 AND SWAP1 PUSH4 0xDD62ED3E SWAP1 PUSH2 0x1C6D SWAP1 ADDRESS SWAP1 DUP7 SWAP1 PUSH1 0x4 ADD PUSH2 0x30EA JUMP JUMPDEST PUSH1 0x20 PUSH1 0x40 MLOAD DUP1 DUP4 SUB DUP2 DUP7 DUP1 EXTCODESIZE ISZERO DUP1 ISZERO PUSH2 0x1C85 JUMPI PUSH1 0x0 DUP1 REVERT JUMPDEST POP GAS STATICCALL ISZERO DUP1 ISZERO PUSH2 0x1C99 JUMPI RETURNDATASIZE PUSH1 0x0 DUP1 RETURNDATACOPY RETURNDATASIZE PUSH1 0x0 REVERT JUMPDEST POP POP POP POP PUSH1 0x40 MLOAD RETURNDATASIZE PUSH1 0x1F NOT PUSH1 0x1F DUP3 ADD AND DUP3 ADD DUP1 PUSH1 0x40 MSTORE POP DUP2 ADD SWAP1 PUSH2 0x1CBD SWAP2 SWAP1 PUSH2 0x306D JUMP JUMPDEST ISZERO JUMPDEST PUSH2 0x1CDB JUMPI PUSH1 0x40 MLOAD PUSH3 0x461BCD PUSH1 0xE5 SHL DUP2 MSTORE PUSH1 0x4 ADD PUSH2 0x529 SWAP1 PUSH2 0x3442 JUMP JUMPDEST PUSH2 0x1D31 DUP4 PUSH4 0x95EA7B3 PUSH1 0xE0 SHL DUP5 DUP5 PUSH1 0x40 MLOAD PUSH1 0x24 ADD PUSH2 0x1CFA SWAP3 SWAP2 SWAP1 PUSH2 0x3169 JUMP JUMPDEST PUSH1 0x40 DUP1 MLOAD PUSH1 0x1F NOT DUP2 DUP5 SUB ADD DUP2 MSTORE SWAP2 SWAP1 MSTORE PUSH1 0x20 DUP2 ADD DUP1 MLOAD PUSH1 0x1 PUSH1 0x1 PUSH1 0xE0 SHL SUB AND PUSH1 0x1 PUSH1 0x1 PUSH1 0xE0 SHL SUB NOT SWAP1 SWAP4 AND SWAP3 SWAP1 SWAP3 OR SWAP1 SWAP2 MSTORE PUSH2 0x2816 JUMP JUMPDEST POP POP POP JUMP JUMPDEST PUSH1 0x60 PUSH2 0x1D45 DUP5 DUP5 PUSH1 0x0 DUP6 PUSH2 0x28A5 JUMP JUMPDEST SWAP5 SWAP4 POP POP POP POP JUMP JUMPDEST PUSH1 0x1 SLOAD PUSH1 0x40 DUP1 MLOAD PUSH4 0x5AA6E675 PUSH1 0xE0 SHL DUP2 MSTORE SWAP1 MLOAD PUSH1 0x0 SWAP3 PUSH1 0x1 PUSH1 0x1 PUSH1 0xA0 SHL SUB AND SWAP2 PUSH4 0x5AA6E675 SWAP2 PUSH1 0x4 DUP1 DUP4 ADD SWAP3 PUSH1 0x20 SWAP3 SWAP2 SWAP1 DUP3 SWAP1 SUB ADD DUP2 DUP7 DUP1 EXTCODESIZE ISZERO DUP1 ISZERO PUSH2 0x1D92 JUMPI PUSH1 0x0 DUP1 REVERT JUMPDEST POP GAS STATICCALL ISZERO DUP1 ISZERO PUSH2 0x1DA6 JUMPI RETURNDATASIZE PUSH1 0x0 DUP1 RETURNDATACOPY RETURNDATASIZE PUSH1 0x0 REVERT JUMPDEST POP POP POP POP PUSH1 0x40 MLOAD RETURNDATASIZE PUSH1 0x1F NOT PUSH1 0x1F DUP3 ADD AND DUP3 ADD DUP1 PUSH1 0x40 MSTORE POP DUP2 ADD SWAP1 PUSH2 0x8D1 SWAP2 SWAP1 PUSH2 0x2CF7 JUMP JUMPDEST PUSH1 0x40 DUP1 MLOAD PUSH1 0x3 DUP1 DUP3 MSTORE PUSH1 0x80 DUP3 ADD SWAP1 SWAP3 MSTORE PUSH1 0x60 SWAP2 DUP3 SWAP2 SWAP1 PUSH1 0x20 DUP3 ADD DUP4 DUP1 CALLDATASIZE DUP4 CALLDATACOPY POP POP PUSH1 0xF SLOAD DUP3 MLOAD SWAP3 SWAP4 POP PUSH1 0x1 PUSH1 0x1 PUSH1 0xA0 SHL SUB AND SWAP2 DUP4 SWAP2 POP PUSH1 0x0 SWAP1 PUSH2 0x1E09 JUMPI INVALID JUMPDEST PUSH1 0x1 PUSH1 0x1 PUSH1 0xA0 SHL SUB SWAP3 DUP4 AND PUSH1 0x20 SWAP2 DUP3 MUL SWAP3 SWAP1 SWAP3 ADD ADD MSTORE PUSH1 0xB SLOAD DUP3 MLOAD SWAP2 AND SWAP1 DUP3 SWAP1 PUSH1 0x1 SWAP1 DUP2 LT PUSH2 0x1E34 JUMPI INVALID JUMPDEST PUSH1 0x1 PUSH1 0x1 PUSH1 0xA0 SHL SUB SWAP3 DUP4 AND PUSH1 0x20 SWAP2 DUP3 MUL SWAP3 SWAP1 SWAP3 ADD ADD MSTORE PUSH1 0xD SLOAD DUP3 MLOAD SWAP2 AND SWAP1 DUP3 SWAP1 PUSH1 0x2 SWAP1 DUP2 LT PUSH2 0x1E5F JUMPI INVALID JUMPDEST PUSH1 0x1 PUSH1 0x1 PUSH1 0xA0 SHL SUB SWAP1 SWAP3 AND PUSH1 0x20 SWAP3 DUP4 MUL SWAP2 SWAP1 SWAP2 ADD SWAP1 SWAP2 ADD MSTORE SWAP1 POP SWAP1 JUMP JUMPDEST PUSH2 0x1D31 DUP4 PUSH4 0xA9059CBB PUSH1 0xE0 SHL DUP5 DUP5 PUSH1 0x40 MLOAD PUSH1 0x24 ADD PUSH2 0x1CFA SWAP3 SWAP2 SWAP1 PUSH2 0x3169 JUMP JUMPDEST PUSH1 0x0 DUP1 DUP3 PUSH2 0x1EA7 PUSH2 0x1403 JUMP JUMPDEST LT ISZERO PUSH2 0x1EC9 JUMPI PUSH2 0x1EC7 PUSH2 0x1EC2 PUSH2 0x1EBB PUSH2 0x1403 JUMP JUMPDEST DUP6 SWAP1 PUSH2 0x1FAD JUMP JUMPDEST PUSH2 0x2969 JUMP JUMPDEST POP JUMPDEST PUSH1 0x0 PUSH2 0x1ED3 PUSH2 0x1403 JUMP JUMPDEST SWAP1 POP DUP4 DUP2 LT PUSH2 0x1EE4 JUMPI DUP4 SWAP3 POP PUSH2 0x1EF4 JUMP JUMPDEST SWAP2 POP DUP2 PUSH2 0x1EF1 DUP5 DUP3 PUSH2 0x1FAD JUMP JUMPDEST SWAP2 POP JUMPDEST POP SWAP2 POP SWAP2 JUMP JUMPDEST PUSH1 0xA SLOAD PUSH1 0xFF AND ISZERO PUSH2 0x1F0A JUMPI PUSH2 0x1672 JUMP JUMPDEST PUSH2 0x1F12 PUSH2 0x1403 JUMP JUMPDEST DUP2 GT ISZERO PUSH2 0x1F1E JUMPI PUSH2 0x1672 JUMP JUMPDEST PUSH1 0x0 PUSH2 0x1F32 DUP3 PUSH2 0x1F2C PUSH2 0x1403 JUMP JUMPDEST SWAP1 PUSH2 0x1FAD JUMP JUMPDEST SWAP1 POP DUP1 ISZERO PUSH2 0x68C JUMPI PUSH1 0xA SLOAD PUSH1 0xF SLOAD PUSH1 0x10 SLOAD PUSH1 0x40 MLOAD PUSH4 0xE323F825 PUSH1 0xE0 SHL DUP2 MSTORE PUSH2 0x100 SWAP1 SWAP4 DIV PUSH1 0x1 PUSH1 0x1 PUSH1 0xA0 SHL SUB SWAP1 DUP2 AND SWAP4 PUSH4 0xE323F825 SWAP4 PUSH2 0x1F7F SWAP4 ADDRESS SWAP4 DUP9 SWAP4 SWAP3 DUP2 AND SWAP3 SWAP2 AND SWAP1 PUSH1 0x4 ADD PUSH2 0x3182 JUMP JUMPDEST PUSH1 0x0 PUSH1 0x40 MLOAD DUP1 DUP4 SUB DUP2 PUSH1 0x0 DUP8 DUP1 EXTCODESIZE ISZERO DUP1 ISZERO PUSH2 0x1F99 JUMPI PUSH1 0x0 DUP1 REVERT JUMPDEST POP GAS CALL ISZERO DUP1 ISZERO PUSH2 0x14FC JUMPI RETURNDATASIZE PUSH1 0x0 DUP1 RETURNDATACOPY RETURNDATASIZE PUSH1 0x0 REVERT JUMPDEST PUSH1 0x0 PUSH2 0x1FEF DUP4 DUP4 PUSH1 0x40 MLOAD DUP1 PUSH1 0x40 ADD PUSH1 0x40 MSTORE DUP1 PUSH1 0x1E DUP2 MSTORE PUSH1 0x20 ADD PUSH32 0x536166654D6174683A207375627472616374696F6E206F766572666C6F770000 DUP2 MSTORE POP PUSH2 0x2A09 JUMP JUMPDEST SWAP1 POP JUMPDEST SWAP3 SWAP2 POP POP JUMP JUMPDEST PUSH1 0x0 DUP1 DUP1 DUP4 ISZERO PUSH2 0x201F JUMPI PUSH1 0x0 PUSH2 0x200D DUP6 PUSH2 0x1E9B JUMP JUMPDEST SWAP4 POP SWAP1 POP PUSH2 0x201B DUP2 DUP7 PUSH2 0x2A35 JUMP JUMPDEST SWAP2 POP POP JUMPDEST PUSH1 0x0 PUSH2 0x2029 PUSH2 0x1403 JUMP JUMPDEST PUSH1 0x1 SLOAD PUSH1 0x40 MLOAD PUSH4 0x39EBF823 PUSH1 0xE0 SHL DUP2 MSTORE SWAP2 SWAP3 POP PUSH1 0x0 SWAP2 PUSH1 0x1 PUSH1 0x1 PUSH1 0xA0 SHL SUB SWAP1 SWAP2 AND SWAP1 PUSH4 0x39EBF823 SWAP1 PUSH2 0x205F SWAP1 ADDRESS SWAP1 PUSH1 0x4 ADD PUSH2 0x30D6 JUMP JUMPDEST PUSH2 0x120 PUSH1 0x40 MLOAD DUP1 DUP4 SUB DUP2 DUP7 DUP1 EXTCODESIZE ISZERO DUP1 ISZERO PUSH2 0x2078 JUMPI PUSH1 0x0 DUP1 REVERT JUMPDEST POP GAS STATICCALL ISZERO DUP1 ISZERO PUSH2 0x208C JUMPI RETURNDATASIZE PUSH1 0x0 DUP1 RETURNDATACOPY RETURNDATASIZE PUSH1 0x0 REVERT JUMPDEST POP POP POP POP PUSH1 0x40 MLOAD RETURNDATASIZE PUSH1 0x1F NOT PUSH1 0x1F DUP3 ADD AND DUP3 ADD DUP1 PUSH1 0x40 MSTORE POP DUP2 ADD SWAP1 PUSH2 0x20B0 SWAP2 SWAP1 PUSH2 0x2FD7 JUMP JUMPDEST PUSH1 0xC0 ADD MLOAD SWAP1 POP PUSH1 0x0 PUSH2 0x20C0 PUSH2 0x1AA7 JUMP JUMPDEST SWAP1 POP DUP2 DUP2 GT ISZERO PUSH2 0x20E5 JUMPI PUSH1 0x0 PUSH2 0x20D6 DUP3 DUP5 PUSH2 0x1FAD JUMP JUMPDEST SWAP1 POP PUSH2 0x20E1 DUP2 PUSH2 0x1E9B JUMP JUMPDEST POP POP POP JUMPDEST PUSH2 0x20ED PUSH2 0x2A4B JUMP JUMPDEST PUSH1 0xB SLOAD PUSH1 0x40 MLOAD PUSH4 0x70A08231 PUSH1 0xE0 SHL DUP2 MSTORE PUSH1 0x0 SWAP2 PUSH1 0x1 PUSH1 0x1 PUSH1 0xA0 SHL SUB AND SWAP1 PUSH4 0x70A08231 SWAP1 PUSH2 0x211E SWAP1 ADDRESS SWAP1 PUSH1 0x4 ADD PUSH2 0x30D6 JUMP JUMPDEST PUSH1 0x20 PUSH1 0x40 MLOAD DUP1 DUP4 SUB DUP2 DUP7 DUP1 EXTCODESIZE ISZERO DUP1 ISZERO PUSH2 0x2136 JUMPI PUSH1 0x0 DUP1 REVERT JUMPDEST POP GAS STATICCALL ISZERO DUP1 ISZERO PUSH2 0x214A JUMPI RETURNDATASIZE PUSH1 0x0 DUP1 RETURNDATACOPY RETURNDATASIZE PUSH1 0x0 REVERT JUMPDEST POP POP POP POP PUSH1 0x40 MLOAD RETURNDATASIZE PUSH1 0x1F NOT PUSH1 0x1F DUP3 ADD AND DUP3 ADD DUP1 PUSH1 0x40 MSTORE POP DUP2 ADD SWAP1 PUSH2 0x216E SWAP2 SWAP1 PUSH2 0x306D JUMP JUMPDEST SWAP1 POP DUP1 ISZERO PUSH2 0x218D JUMPI PUSH1 0xB SLOAD PUSH2 0x218D SWAP1 DUP3 SWAP1 PUSH1 0x1 PUSH1 0x1 PUSH1 0xA0 SHL SUB AND PUSH2 0x2AA9 JUMP JUMPDEST PUSH1 0xD SLOAD PUSH1 0x40 MLOAD PUSH4 0x70A08231 PUSH1 0xE0 SHL DUP2 MSTORE PUSH1 0x0 SWAP2 PUSH1 0x1 PUSH1 0x1 PUSH1 0xA0 SHL SUB AND SWAP1 PUSH4 0x70A08231 SWAP1 PUSH2 0x21BE SWAP1 ADDRESS SWAP1 PUSH1 0x4 ADD PUSH2 0x30D6 JUMP JUMPDEST PUSH1 0x20 PUSH1 0x40 MLOAD DUP1 DUP4 SUB DUP2 DUP7 DUP1 EXTCODESIZE ISZERO DUP1 ISZERO PUSH2 0x21D6 JUMPI PUSH1 0x0 DUP1 REVERT JUMPDEST POP GAS STATICCALL ISZERO DUP1 ISZERO PUSH2 0x21EA JUMPI RETURNDATASIZE PUSH1 0x0 DUP1 RETURNDATACOPY RETURNDATASIZE PUSH1 0x0 REVERT JUMPDEST POP POP POP POP PUSH1 0x40 MLOAD RETURNDATASIZE PUSH1 0x1F NOT PUSH1 0x1F DUP3 ADD AND DUP3 ADD DUP1 PUSH1 0x40 MSTORE POP DUP2 ADD SWAP1 PUSH2 0x220E SWAP2 SWAP1 PUSH2 0x306D JUMP JUMPDEST SWAP1 POP DUP1 ISZERO PUSH2 0x222D JUMPI PUSH1 0xD SLOAD PUSH2 0x222D SWAP1 DUP3 SWAP1 PUSH1 0x1 PUSH1 0x1 PUSH1 0xA0 SHL SUB AND PUSH2 0x2AA9 JUMP JUMPDEST PUSH1 0x0 PUSH2 0x2237 PUSH2 0x1403 JUMP JUMPDEST SWAP1 POP DUP6 DUP2 GT ISZERO PUSH2 0x224E JUMPI PUSH2 0x224B DUP2 DUP8 PUSH2 0x1FAD JUMP JUMPDEST SWAP9 POP JUMPDEST POP POP POP POP POP POP SWAP2 SWAP4 SWAP1 SWAP3 POP JUMP JUMPDEST PUSH1 0x5 SLOAD PUSH1 0x1 PUSH1 0x1 PUSH1 0xA0 SHL SUB AND ISZERO PUSH2 0x2284 JUMPI PUSH1 0x40 MLOAD PUSH3 0x461BCD PUSH1 0xE5 SHL DUP2 MSTORE PUSH1 0x4 ADD PUSH2 0x529 SWAP1 PUSH2 0x32BF JUMP JUMPDEST PUSH1 0x1 DUP1 SLOAD PUSH1 0x1 PUSH1 0x1 PUSH1 0xA0 SHL SUB NOT AND PUSH1 0x1 PUSH1 0x1 PUSH1 0xA0 SHL SUB DUP7 DUP2 AND SWAP2 SWAP1 SWAP2 OR SWAP2 DUP3 SWAP1 SSTORE PUSH1 0x40 DUP1 MLOAD PUSH4 0x7E062A35 PUSH1 0xE1 SHL DUP2 MSTORE SWAP1 MLOAD SWAP3 SWAP1 SWAP2 AND SWAP2 PUSH4 0xFC0C546A SWAP2 PUSH1 0x4 DUP1 DUP3 ADD SWAP3 PUSH1 0x20 SWAP3 SWAP1 SWAP2 SWAP1 DUP3 SWAP1 SUB ADD DUP2 DUP7 DUP1 EXTCODESIZE ISZERO DUP1 ISZERO PUSH2 0x22E0 JUMPI PUSH1 0x0 DUP1 REVERT JUMPDEST POP GAS STATICCALL ISZERO DUP1 ISZERO PUSH2 0x22F4 JUMPI RETURNDATASIZE PUSH1 0x0 DUP1 RETURNDATACOPY RETURNDATASIZE PUSH1 0x0 REVERT JUMPDEST POP POP POP POP PUSH1 0x40 MLOAD RETURNDATASIZE PUSH1 0x1F NOT PUSH1 0x1F DUP3 ADD AND DUP3 ADD DUP1 PUSH1 0x40 MSTORE POP DUP2 ADD SWAP1 PUSH2 0x2318 SWAP2 SWAP1 PUSH2 0x2CF7 JUMP JUMPDEST PUSH1 0x5 DUP1 SLOAD PUSH1 0x1 PUSH1 0x1 PUSH1 0xA0 SHL SUB NOT AND PUSH1 0x1 PUSH1 0x1 PUSH1 0xA0 SHL SUB SWAP3 DUP4 AND OR SWAP1 DUP2 SWAP1 SSTORE PUSH2 0x2344 SWAP2 AND DUP6 PUSH1 0x0 NOT PUSH2 0x1C37 JUMP JUMPDEST PUSH1 0x2 DUP1 SLOAD PUSH1 0x1 PUSH1 0x1 PUSH1 0xA0 SHL SUB DUP1 DUP7 AND PUSH1 0x1 PUSH1 0x1 PUSH1 0xA0 SHL SUB NOT SWAP3 DUP4 AND OR SWAP1 SWAP3 SSTORE PUSH1 0x3 DUP1 SLOAD DUP6 DUP5 AND SWAP1 DUP4 AND OR SWAP1 DUP2 SWAP1 SSTORE PUSH1 0x4 DUP1 SLOAD DUP6 DUP6 AND SWAP4 AND SWAP3 SWAP1 SWAP3 OR DUP3 SSTORE PUSH1 0x1 SLOAD PUSH1 0x40 MLOAD PUSH4 0x95EA7B3 PUSH1 0xE0 SHL DUP2 MSTORE SWAP1 DUP5 AND SWAP4 PUSH4 0x95EA7B3 SWAP4 PUSH2 0x23AD SWAP4 SWAP1 SWAP2 AND SWAP2 PUSH1 0x0 NOT SWAP2 ADD PUSH2 0x3169 JUMP JUMPDEST PUSH1 0x20 PUSH1 0x40 MLOAD DUP1 DUP4 SUB DUP2 PUSH1 0x0 DUP8 DUP1 EXTCODESIZE ISZERO DUP1 ISZERO PUSH2 0x23C7 JUMPI PUSH1 0x0 DUP1 REVERT JUMPDEST POP GAS CALL ISZERO DUP1 ISZERO PUSH2 0x23DB JUMPI RETURNDATASIZE PUSH1 0x0 DUP1 RETURNDATACOPY RETURNDATASIZE PUSH1 0x0 REVERT JUMPDEST POP POP POP POP PUSH1 0x40 MLOAD RETURNDATASIZE PUSH1 0x1F NOT PUSH1 0x1F DUP3 ADD AND DUP3 ADD DUP1 PUSH1 0x40 MSTORE POP DUP2 ADD SWAP1 PUSH2 0x23FF SWAP2 SWAP1 PUSH2 0x2EBE JUMP JUMPDEST POP POP POP POP POP JUMP JUMPDEST PUSH1 0xA DUP1 SLOAD PUSH2 0x100 PUSH1 0x1 PUSH1 0xA8 SHL SUB NOT AND PUSH2 0x100 PUSH1 0x1 PUSH1 0x1 PUSH1 0xA0 SHL SUB DUP10 DUP2 AND DUP3 MUL SWAP3 SWAP1 SWAP3 OR SWAP3 DUP4 SWAP1 SSTORE PUSH1 0xB DUP1 SLOAD PUSH1 0x1 PUSH1 0x1 PUSH1 0xA0 SHL SUB NOT SWAP1 DUP2 AND DUP11 DUP6 AND OR SWAP1 SWAP2 SSTORE PUSH1 0xC DUP1 SLOAD DUP3 AND DUP10 DUP6 AND OR SWAP1 SSTORE PUSH1 0xD DUP1 SLOAD DUP3 AND DUP9 DUP6 AND OR SWAP1 SSTORE PUSH1 0xE DUP1 SLOAD DUP3 AND DUP8 DUP6 AND OR SWAP1 SSTORE PUSH1 0xF DUP1 SLOAD SWAP1 SWAP2 AND DUP6 DUP5 AND OR SWAP1 SSTORE PUSH1 0x5 SLOAD PUSH2 0x248C SWAP4 SWAP1 DUP4 AND SWAP3 SWAP2 SWAP1 DIV AND PUSH1 0x0 NOT PUSH2 0x1C37 JUMP JUMPDEST PUSH1 0xC SLOAD PUSH1 0xB SLOAD PUSH2 0x24AB SWAP2 PUSH1 0x1 PUSH1 0x1 PUSH1 0xA0 SHL SUB SWAP2 DUP3 AND SWAP2 AND PUSH1 0x0 NOT PUSH2 0x1C37 JUMP JUMPDEST PUSH1 0xC SLOAD PUSH1 0xD SLOAD PUSH2 0x14FC SWAP2 PUSH1 0x1 PUSH1 0x1 PUSH1 0xA0 SHL SUB SWAP2 DUP3 AND SWAP2 AND PUSH1 0x0 NOT PUSH2 0x1C37 JUMP JUMPDEST PUSH1 0xB SLOAD PUSH1 0x40 MLOAD PUSH4 0x70A08231 PUSH1 0xE0 SHL DUP2 MSTORE PUSH1 0x1 PUSH1 0x1 PUSH1 0xA0 SHL SUB SWAP1 SWAP2 AND SWAP1 PUSH4 0xA9059CBB SWAP1 DUP4 SWAP1 DUP4 SWAP1 PUSH4 0x70A08231 SWAP1 PUSH2 0x2504 SWAP1 ADDRESS SWAP1 PUSH1 0x4 ADD PUSH2 0x30D6 JUMP JUMPDEST PUSH1 0x20 PUSH1 0x40 MLOAD DUP1 DUP4 SUB DUP2 DUP7 DUP1 EXTCODESIZE ISZERO DUP1 ISZERO PUSH2 0x251C JUMPI PUSH1 0x0 DUP1 REVERT JUMPDEST POP GAS STATICCALL ISZERO DUP1 ISZERO PUSH2 0x2530 JUMPI RETURNDATASIZE PUSH1 0x0 DUP1 RETURNDATACOPY RETURNDATASIZE PUSH1 0x0 REVERT JUMPDEST POP POP POP POP PUSH1 0x40 MLOAD RETURNDATASIZE PUSH1 0x1F NOT PUSH1 0x1F DUP3 ADD AND DUP3 ADD DUP1 PUSH1 0x40 MSTORE POP DUP2 ADD SWAP1 PUSH2 0x2554 SWAP2 SWAP1 PUSH2 0x306D JUMP JUMPDEST PUSH1 0x40 MLOAD DUP4 PUSH4 0xFFFFFFFF AND PUSH1 0xE0 SHL DUP2 MSTORE PUSH1 0x4 ADD PUSH2 0x2571 SWAP3 SWAP2 SWAP1 PUSH2 0x3169 JUMP JUMPDEST PUSH1 0x20 PUSH1 0x40 MLOAD DUP1 DUP4 SUB DUP2 PUSH1 0x0 DUP8 DUP1 EXTCODESIZE ISZERO DUP1 ISZERO PUSH2 0x258B JUMPI PUSH1 0x0 DUP1 REVERT JUMPDEST POP GAS CALL ISZERO DUP1 ISZERO PUSH2 0x259F JUMPI RETURNDATASIZE PUSH1 0x0 DUP1 RETURNDATACOPY RETURNDATASIZE PUSH1 0x0 REVERT JUMPDEST POP POP POP POP PUSH1 0x40 MLOAD RETURNDATASIZE PUSH1 0x1F NOT PUSH1 0x1F DUP3 ADD AND DUP3 ADD DUP1 PUSH1 0x40 MSTORE POP DUP2 ADD SWAP1 PUSH2 0x25C3 SWAP2 SWAP1 PUSH2 0x2EBE JUMP JUMPDEST POP PUSH1 0xD SLOAD PUSH1 0x40 MLOAD PUSH4 0x70A08231 PUSH1 0xE0 SHL DUP2 MSTORE PUSH1 0x1 PUSH1 0x1 PUSH1 0xA0 SHL SUB SWAP1 SWAP2 AND SWAP1 PUSH4 0xA9059CBB SWAP1 DUP4 SWAP1 DUP4 SWAP1 PUSH4 0x70A08231 SWAP1 PUSH2 0x25FE SWAP1 ADDRESS SWAP1 PUSH1 0x4 ADD PUSH2 0x30D6 JUMP JUMPDEST PUSH1 0x20 PUSH1 0x40 MLOAD DUP1 DUP4 SUB DUP2 DUP7 DUP1 EXTCODESIZE ISZERO DUP1 ISZERO PUSH2 0x2616 JUMPI PUSH1 0x0 DUP1 REVERT JUMPDEST POP GAS STATICCALL ISZERO DUP1 ISZERO PUSH2 0x262A JUMPI RETURNDATASIZE PUSH1 0x0 DUP1 RETURNDATACOPY RETURNDATASIZE PUSH1 0x0 REVERT JUMPDEST POP POP POP POP PUSH1 0x40 MLOAD RETURNDATASIZE PUSH1 0x1F NOT PUSH1 0x1F DUP3 ADD AND DUP3 ADD DUP1 PUSH1 0x40 MSTORE POP DUP2 ADD SWAP1 PUSH2 0x264E SWAP2 SWAP1 PUSH2 0x306D JUMP JUMPDEST PUSH1 0x40 MLOAD DUP4 PUSH4 0xFFFFFFFF AND PUSH1 0xE0 SHL DUP2 MSTORE PUSH1 0x4 ADD PUSH2 0x266B SWAP3 SWAP2 SWAP1 PUSH2 0x3169 JUMP JUMPDEST PUSH1 0x20 PUSH1 0x40 MLOAD DUP1 DUP4 SUB DUP2 PUSH1 0x0 DUP8 DUP1 EXTCODESIZE ISZERO DUP1 ISZERO PUSH2 0x2685 JUMPI PUSH1 0x0 DUP1 REVERT JUMPDEST POP GAS CALL ISZERO DUP1 ISZERO PUSH2 0x2699 JUMPI RETURNDATASIZE PUSH1 0x0 DUP1 RETURNDATACOPY RETURNDATASIZE PUSH1 0x0 REVERT JUMPDEST POP POP POP POP PUSH1 0x40 MLOAD RETURNDATASIZE PUSH1 0x1F NOT PUSH1 0x1F DUP3 ADD AND DUP3 ADD DUP1 PUSH1 0x40 MSTORE POP DUP2 ADD SWAP1 PUSH2 0x26BD SWAP2 SWAP1 PUSH2 0x2EBE JUMP JUMPDEST POP PUSH1 0xF SLOAD PUSH1 0x40 MLOAD PUSH4 0x70A08231 PUSH1 0xE0 SHL DUP2 MSTORE PUSH1 0x1 PUSH1 0x1 PUSH1 0xA0 SHL SUB SWAP1 SWAP2 AND SWAP1 PUSH4 0xA9059CBB SWAP1 DUP4 SWAP1 DUP4 SWAP1 PUSH4 0x70A08231 SWAP1 PUSH2 0x26F8 SWAP1 ADDRESS SWAP1 PUSH1 0x4 ADD PUSH2 0x30D6 JUMP JUMPDEST PUSH1 0x20 PUSH1 0x40 MLOAD DUP1 DUP4 SUB DUP2 DUP7 DUP1 EXTCODESIZE ISZERO DUP1 ISZERO PUSH2 0x2710 JUMPI PUSH1 0x0 DUP1 REVERT JUMPDEST POP GAS STATICCALL ISZERO DUP1 ISZERO PUSH2 0x2724 JUMPI RETURNDATASIZE PUSH1 0x0 DUP1 RETURNDATACOPY RETURNDATASIZE PUSH1 0x0 REVERT JUMPDEST POP POP POP POP PUSH1 0x40 MLOAD RETURNDATASIZE PUSH1 0x1F NOT PUSH1 0x1F DUP3 ADD AND DUP3 ADD DUP1 PUSH1 0x40 MSTORE POP DUP2 ADD SWAP1 PUSH2 0x2748 SWAP2 SWAP1 PUSH2 0x306D JUMP JUMPDEST PUSH1 0x40 MLOAD DUP4 PUSH4 0xFFFFFFFF AND PUSH1 0xE0 SHL DUP2 MSTORE PUSH1 0x4 ADD PUSH2 0x2765 SWAP3 SWAP2 SWAP1 PUSH2 0x3169 JUMP JUMPDEST PUSH1 0x20 PUSH1 0x40 MLOAD DUP1 DUP4 SUB DUP2 PUSH1 0x0 DUP8 DUP1 EXTCODESIZE ISZERO DUP1 ISZERO PUSH2 0x277F JUMPI PUSH1 0x0 DUP1 REVERT JUMPDEST POP GAS CALL ISZERO DUP1 ISZERO PUSH2 0x2793 JUMPI RETURNDATASIZE PUSH1 0x0 DUP1 RETURNDATACOPY RETURNDATASIZE PUSH1 0x0 REVERT JUMPDEST POP POP POP POP PUSH1 0x40 MLOAD RETURNDATASIZE PUSH1 0x1F NOT PUSH1 0x1F DUP3 ADD AND DUP3 ADD DUP1 PUSH1 0x40 MSTORE POP DUP2 ADD SWAP1 PUSH2 0x68C SWAP2 SWAP1 PUSH2 0x2EBE JUMP JUMPDEST PUSH1 0x0 DUP3 DUP3 ADD DUP4 DUP2 LT ISZERO PUSH2 0x1FEF JUMPI PUSH1 0x40 MLOAD PUSH3 0x461BCD PUSH1 0xE5 SHL DUP2 MSTORE PUSH1 0x4 ADD PUSH2 0x529 SWAP1 PUSH2 0x3288 JUMP JUMPDEST PUSH1 0x0 DUP3 PUSH2 0x27EB JUMPI POP PUSH1 0x0 PUSH2 0x1FF2 JUMP JUMPDEST DUP3 DUP3 MUL DUP3 DUP5 DUP3 DUP2 PUSH2 0x27F8 JUMPI INVALID JUMPDEST DIV EQ PUSH2 0x1FEF JUMPI PUSH1 0x40 MLOAD PUSH3 0x461BCD PUSH1 0xE5 SHL DUP2 MSTORE PUSH1 0x4 ADD PUSH2 0x529 SWAP1 PUSH2 0x32F6 JUMP JUMPDEST PUSH1 0x60 PUSH2 0x286B DUP3 PUSH1 0x40 MLOAD DUP1 PUSH1 0x40 ADD PUSH1 0x40 MSTORE DUP1 PUSH1 0x20 DUP2 MSTORE PUSH1 0x20 ADD PUSH32 0x5361666545524332303A206C6F772D6C6576656C2063616C6C206661696C6564 DUP2 MSTORE POP DUP6 PUSH1 0x1 PUSH1 0x1 PUSH1 0xA0 SHL SUB AND PUSH2 0x1D36 SWAP1 SWAP3 SWAP2 SWAP1 PUSH4 0xFFFFFFFF AND JUMP JUMPDEST DUP1 MLOAD SWAP1 SWAP2 POP ISZERO PUSH2 0x1D31 JUMPI DUP1 DUP1 PUSH1 0x20 ADD SWAP1 MLOAD DUP2 ADD SWAP1 PUSH2 0x2889 SWAP2 SWAP1 PUSH2 0x2EBE JUMP JUMPDEST PUSH2 0x1D31 JUMPI PUSH1 0x40 MLOAD PUSH3 0x461BCD PUSH1 0xE5 SHL DUP2 MSTORE PUSH1 0x4 ADD PUSH2 0x529 SWAP1 PUSH2 0x33D4 JUMP JUMPDEST PUSH1 0x60 PUSH2 0x28B0 DUP6 PUSH2 0x2BC3 JUMP JUMPDEST PUSH2 0x28CC JUMPI PUSH1 0x40 MLOAD PUSH3 0x461BCD PUSH1 0xE5 SHL DUP2 MSTORE PUSH1 0x4 ADD PUSH2 0x529 SWAP1 PUSH2 0x3378 JUMP JUMPDEST PUSH1 0x0 PUSH1 0x60 DUP7 PUSH1 0x1 PUSH1 0x1 PUSH1 0xA0 SHL SUB AND DUP6 DUP8 PUSH1 0x40 MLOAD PUSH2 0x28E9 SWAP2 SWAP1 PUSH2 0x3085 JUMP JUMPDEST PUSH1 0x0 PUSH1 0x40 MLOAD DUP1 DUP4 SUB DUP2 DUP6 DUP8 GAS CALL SWAP3 POP POP POP RETURNDATASIZE DUP1 PUSH1 0x0 DUP2 EQ PUSH2 0x2926 JUMPI PUSH1 0x40 MLOAD SWAP2 POP PUSH1 0x1F NOT PUSH1 0x3F RETURNDATASIZE ADD AND DUP3 ADD PUSH1 0x40 MSTORE RETURNDATASIZE DUP3 MSTORE RETURNDATASIZE PUSH1 0x0 PUSH1 0x20 DUP5 ADD RETURNDATACOPY PUSH2 0x292B JUMP JUMPDEST PUSH1 0x60 SWAP2 POP JUMPDEST POP SWAP2 POP SWAP2 POP DUP2 ISZERO PUSH2 0x293F JUMPI SWAP2 POP PUSH2 0x1D45 SWAP1 POP JUMP JUMPDEST DUP1 MLOAD ISZERO PUSH2 0x294F JUMPI DUP1 MLOAD DUP1 DUP3 PUSH1 0x20 ADD REVERT JUMPDEST DUP4 PUSH1 0x40 MLOAD PUSH3 0x461BCD PUSH1 0xE5 SHL DUP2 MSTORE PUSH1 0x4 ADD PUSH2 0x529 SWAP2 SWAP1 PUSH2 0x3211 JUMP JUMPDEST PUSH1 0x0 DUP1 PUSH2 0x2974 PUSH2 0x1403 JUMP JUMPDEST PUSH1 0xA SLOAD PUSH1 0xF SLOAD PUSH1 0x40 MLOAD PUSH4 0xA016240B PUSH1 0xE0 SHL DUP2 MSTORE SWAP3 SWAP4 POP PUSH1 0x1 PUSH1 0x1 PUSH1 0xA0 SHL SUB PUSH2 0x100 SWAP1 SWAP3 DIV DUP3 AND SWAP3 PUSH4 0xA016240B SWAP3 PUSH2 0x29C1 SWAP3 ADDRESS SWAP3 DUP10 SWAP3 SWAP2 SWAP1 SWAP2 AND SWAP1 PUSH9 0x56BC75E2D63100000 SWAP1 PUSH1 0x4 ADD PUSH2 0x31AD JUMP JUMPDEST PUSH1 0x0 PUSH1 0x40 MLOAD DUP1 DUP4 SUB DUP2 PUSH1 0x0 DUP8 DUP1 EXTCODESIZE ISZERO DUP1 ISZERO PUSH2 0x29DB JUMPI PUSH1 0x0 DUP1 REVERT JUMPDEST POP GAS CALL ISZERO DUP1 ISZERO PUSH2 0x29EF JUMPI RETURNDATASIZE PUSH1 0x0 DUP1 RETURNDATACOPY RETURNDATASIZE PUSH1 0x0 REVERT JUMPDEST POP POP POP POP PUSH1 0x0 PUSH2 0x29FD PUSH2 0x1403 JUMP JUMPDEST SWAP1 POP PUSH2 0x1D45 DUP2 DUP4 PUSH2 0x1FAD JUMP JUMPDEST PUSH1 0x0 DUP2 DUP5 DUP5 GT ISZERO PUSH2 0x2A2D JUMPI PUSH1 0x40 MLOAD PUSH3 0x461BCD PUSH1 0xE5 SHL DUP2 MSTORE PUSH1 0x4 ADD PUSH2 0x529 SWAP2 SWAP1 PUSH2 0x3211 JUMP JUMPDEST POP POP POP SWAP1 SUB SWAP1 JUMP JUMPDEST PUSH1 0x0 DUP2 DUP4 LT PUSH2 0x2A44 JUMPI DUP2 PUSH2 0x1FEF JUMP JUMPDEST POP SWAP1 SWAP2 SWAP1 POP JUMP JUMPDEST PUSH1 0xE SLOAD PUSH1 0x40 MLOAD PUSH4 0xF41A04D PUSH1 0xE1 SHL DUP2 MSTORE PUSH1 0x1 PUSH1 0x1 PUSH1 0xA0 SHL SUB SWAP1 SWAP2 AND SWAP1 PUSH4 0x1E83409A SWAP1 PUSH2 0x2A7B SWAP1 ADDRESS SWAP1 PUSH1 0x4 ADD PUSH2 0x30D6 JUMP JUMPDEST PUSH1 0x0 PUSH1 0x40 MLOAD DUP1 DUP4 SUB DUP2 PUSH1 0x0 DUP8 DUP1 EXTCODESIZE ISZERO DUP1 ISZERO PUSH2 0x2A95 JUMPI PUSH1 0x0 DUP1 REVERT JUMPDEST POP GAS CALL ISZERO DUP1 ISZERO PUSH2 0x1054 JUMPI RETURNDATASIZE PUSH1 0x0 DUP1 RETURNDATACOPY RETURNDATASIZE PUSH1 0x0 REVERT JUMPDEST PUSH1 0x40 DUP1 MLOAD PUSH1 0x3 DUP1 DUP3 MSTORE PUSH1 0x80 DUP3 ADD SWAP1 SWAP3 MSTORE PUSH1 0x60 SWAP2 PUSH1 0x20 DUP3 ADD DUP4 DUP1 CALLDATASIZE DUP4 CALLDATACOPY ADD SWAP1 POP POP SWAP1 POP DUP2 DUP2 PUSH1 0x0 DUP2 MLOAD DUP2 LT PUSH2 0x2AD9 JUMPI INVALID JUMPDEST PUSH1 0x20 MUL PUSH1 0x20 ADD ADD SWAP1 PUSH1 0x1 PUSH1 0x1 PUSH1 0xA0 SHL SUB AND SWAP1 DUP2 PUSH1 0x1 PUSH1 0x1 PUSH1 0xA0 SHL SUB AND DUP2 MSTORE POP POP PUSH20 0xC02AAA39B223FE8D0A0E5C4F27EAD9083C756CC2 DUP2 PUSH1 0x1 DUP2 MLOAD DUP2 LT PUSH2 0x2B1B JUMPI INVALID JUMPDEST PUSH1 0x1 PUSH1 0x1 PUSH1 0xA0 SHL SUB SWAP3 DUP4 AND PUSH1 0x20 SWAP2 DUP3 MUL SWAP3 SWAP1 SWAP3 ADD ADD MSTORE PUSH1 0x5 SLOAD DUP3 MLOAD SWAP2 AND SWAP1 DUP3 SWAP1 PUSH1 0x2 SWAP1 DUP2 LT PUSH2 0x2B46 JUMPI INVALID JUMPDEST PUSH1 0x1 PUSH1 0x1 PUSH1 0xA0 SHL SUB SWAP3 DUP4 AND PUSH1 0x20 SWAP2 DUP3 MUL SWAP3 SWAP1 SWAP3 ADD ADD MSTORE PUSH1 0xC SLOAD PUSH1 0x40 MLOAD PUSH4 0x38ED1739 PUSH1 0xE0 SHL DUP2 MSTORE SWAP2 AND SWAP1 PUSH4 0x38ED1739 SWAP1 PUSH2 0x2B8C SWAP1 DUP7 SWAP1 PUSH1 0x0 SWAP1 DUP7 SWAP1 ADDRESS SWAP1 TIMESTAMP SWAP1 PUSH1 0x4 ADD PUSH2 0x34A1 JUMP JUMPDEST PUSH1 0x0 PUSH1 0x40 MLOAD DUP1 DUP4 SUB DUP2 PUSH1 0x0 DUP8 DUP1 EXTCODESIZE ISZERO DUP1 ISZERO PUSH2 0x2BA6 JUMPI PUSH1 0x0 DUP1 REVERT JUMPDEST POP GAS CALL ISZERO DUP1 ISZERO PUSH2 0x2BBA JUMPI RETURNDATASIZE PUSH1 0x0 DUP1 RETURNDATACOPY RETURNDATASIZE PUSH1 0x0 REVERT JUMPDEST POP POP POP POP POP POP POP JUMP JUMPDEST PUSH1 0x0 DUP2 EXTCODEHASH PUSH32 0xC5D2460186F7233C927E7DB2DCC703C0E500B653CA82273B7BFAD8045D85A470 DUP2 DUP2 EQ DUP1 ISZERO SWAP1 PUSH2 0x1D45 JUMPI POP POP ISZERO ISZERO SWAP3 SWAP2 POP POP JUMP JUMPDEST DUP3 DUP1 SLOAD PUSH1 0x1 DUP2 PUSH1 0x1 AND ISZERO PUSH2 0x100 MUL SUB AND PUSH1 0x2 SWAP1 DIV SWAP1 PUSH1 0x0 MSTORE PUSH1 0x20 PUSH1 0x0 KECCAK256 SWAP1 PUSH1 0x1F ADD PUSH1 0x20 SWAP1 DIV DUP2 ADD SWAP3 DUP3 PUSH1 0x1F LT PUSH2 0x2C3D JUMPI DUP3 DUP1 ADD PUSH1 0xFF NOT DUP3 CALLDATALOAD AND OR DUP6 SSTORE PUSH2 0x2C6A JUMP JUMPDEST DUP3 DUP1 ADD PUSH1 0x1 ADD DUP6 SSTORE DUP3 ISZERO PUSH2 0x2C6A JUMPI SWAP2 DUP3 ADD JUMPDEST DUP3 DUP2 GT ISZERO PUSH2 0x2C6A JUMPI DUP3 CALLDATALOAD DUP3 SSTORE SWAP2 PUSH1 0x20 ADD SWAP2 SWAP1 PUSH1 0x1 ADD SWAP1 PUSH2 0x2C4F JUMP JUMPDEST POP PUSH2 0x2C76 SWAP3 SWAP2 POP PUSH2 0x2CC6 JUMP JUMPDEST POP SWAP1 JUMP JUMPDEST PUSH1 0x40 MLOAD DUP1 PUSH2 0x120 ADD PUSH1 0x40 MSTORE DUP1 PUSH1 0x0 DUP2 MSTORE PUSH1 0x20 ADD PUSH1 0x0 DUP2 MSTORE PUSH1 0x20 ADD PUSH1 0x0 DUP2 MSTORE PUSH1 0x20 ADD PUSH1 0x0 DUP2 MSTORE PUSH1 0x20 ADD PUSH1 0x0 DUP2 MSTORE PUSH1 0x20 ADD PUSH1 0x0 DUP2 MSTORE PUSH1 0x20 ADD PUSH1 0x0 DUP2 MSTORE PUSH1 0x20 ADD PUSH1 0x0 DUP2 MSTORE PUSH1 0x20 ADD PUSH1 0x0 DUP2 MSTORE POP SWAP1 JUMP JUMPDEST JUMPDEST DUP1 DUP3 GT ISZERO PUSH2 0x2C76 JUMPI PUSH1 0x0 DUP2 SSTORE PUSH1 0x1 ADD PUSH2 0x2CC7 JUMP JUMPDEST PUSH1 0x0 PUSH1 0x20 DUP3 DUP5 SUB SLT ISZERO PUSH2 0x2CEC JUMPI DUP1 DUP2 REVERT JUMPDEST DUP2 CALLDATALOAD PUSH2 0x1FEF DUP2 PUSH2 0x3595 JUMP JUMPDEST PUSH1 0x0 PUSH1 0x20 DUP3 DUP5 SUB SLT ISZERO PUSH2 0x2D08 JUMPI DUP1 DUP2 REVERT JUMPDEST DUP2 MLOAD PUSH2 0x1FEF DUP2 PUSH2 0x3595 JUMP JUMPDEST PUSH1 0x0 DUP1 PUSH1 0x0 DUP1 PUSH1 0x80 DUP6 DUP8 SUB SLT ISZERO PUSH2 0x2D28 JUMPI DUP3 DUP4 REVERT JUMPDEST DUP5 CALLDATALOAD PUSH2 0x2D33 DUP2 PUSH2 0x3595 JUMP JUMPDEST SWAP4 POP PUSH1 0x20 DUP6 ADD CALLDATALOAD PUSH2 0x2D43 DUP2 PUSH2 0x3595 JUMP JUMPDEST SWAP3 POP PUSH1 0x40 DUP6 ADD CALLDATALOAD PUSH2 0x2D53 DUP2 PUSH2 0x3595 JUMP JUMPDEST SWAP2 POP PUSH1 0x60 DUP6 ADD CALLDATALOAD PUSH2 0x2D63 DUP2 PUSH2 0x3595 JUMP JUMPDEST SWAP4 SWAP7 SWAP3 SWAP6 POP SWAP1 SWAP4 POP POP JUMP JUMPDEST PUSH1 0x0 DUP1 PUSH1 0x0 DUP1 PUSH1 0x0 DUP1 PUSH1 0xC0 DUP8 DUP10 SUB SLT ISZERO PUSH2 0x2D86 JUMPI DUP2 DUP3 REVERT JUMPDEST DUP7 CALLDATALOAD PUSH2 0x2D91 DUP2 PUSH2 0x3595 JUMP JUMPDEST SWAP6 POP PUSH1 0x20 DUP8 ADD CALLDATALOAD PUSH2 0x2DA1 DUP2 PUSH2 0x3595 JUMP JUMPDEST SWAP5 POP PUSH1 0x40 DUP8 ADD CALLDATALOAD PUSH2 0x2DB1 DUP2 PUSH2 0x3595 JUMP JUMPDEST SWAP4 POP PUSH1 0x60 DUP8 ADD CALLDATALOAD PUSH2 0x2DC1 DUP2 PUSH2 0x3595 JUMP JUMPDEST SWAP3 POP PUSH1 0x80 DUP8 ADD CALLDATALOAD PUSH2 0x2DD1 DUP2 PUSH2 0x3595 JUMP JUMPDEST SWAP2 POP PUSH1 0xA0 DUP8 ADD CALLDATALOAD PUSH2 0x2DE1 DUP2 PUSH2 0x3595 JUMP JUMPDEST DUP1 SWAP2 POP POP SWAP3 SWAP6 POP SWAP3 SWAP6 POP SWAP3 SWAP6 JUMP JUMPDEST PUSH1 0x0 DUP1 PUSH1 0x0 DUP1 PUSH1 0x0 DUP1 PUSH1 0x0 DUP1 PUSH1 0x0 DUP1 PUSH2 0x140 DUP12 DUP14 SUB SLT ISZERO PUSH2 0x2E0E JUMPI DUP4 DUP5 REVERT JUMPDEST DUP11 CALLDATALOAD PUSH2 0x2E19 DUP2 PUSH2 0x3595 JUMP JUMPDEST SWAP10 POP PUSH1 0x20 DUP12 ADD CALLDATALOAD PUSH2 0x2E29 DUP2 PUSH2 0x3595 JUMP JUMPDEST SWAP9 POP PUSH1 0x40 DUP12 ADD CALLDATALOAD PUSH2 0x2E39 DUP2 PUSH2 0x3595 JUMP JUMPDEST SWAP8 POP PUSH1 0x60 DUP12 ADD CALLDATALOAD PUSH2 0x2E49 DUP2 PUSH2 0x3595 JUMP JUMPDEST SWAP7 POP PUSH1 0x80 DUP12 ADD CALLDATALOAD PUSH2 0x2E59 DUP2 PUSH2 0x3595 JUMP JUMPDEST SWAP6 POP PUSH1 0xA0 DUP12 ADD CALLDATALOAD PUSH2 0x2E69 DUP2 PUSH2 0x3595 JUMP JUMPDEST SWAP5 POP PUSH1 0xC0 DUP12 ADD CALLDATALOAD PUSH2 0x2E79 DUP2 PUSH2 0x3595 JUMP JUMPDEST SWAP4 POP PUSH1 0xE0 DUP12 ADD CALLDATALOAD PUSH2 0x2E89 DUP2 PUSH2 0x3595 JUMP JUMPDEST SWAP3 POP PUSH2 0x100 DUP12 ADD CALLDATALOAD PUSH2 0x2E9A DUP2 PUSH2 0x3595 JUMP JUMPDEST SWAP2 POP PUSH2 0x120 DUP12 ADD CALLDATALOAD PUSH2 0x2EAB DUP2 PUSH2 0x3595 JUMP JUMPDEST DUP1 SWAP2 POP POP SWAP3 SWAP6 SWAP9 SWAP12 SWAP2 SWAP5 SWAP8 SWAP11 POP SWAP3 SWAP6 SWAP9 POP JUMP JUMPDEST PUSH1 0x0 PUSH1 0x20 DUP3 DUP5 SUB SLT ISZERO PUSH2 0x2ECF JUMPI DUP1 DUP2 REVERT JUMPDEST DUP2 MLOAD DUP1 ISZERO ISZERO DUP2 EQ PUSH2 0x1FEF JUMPI DUP2 DUP3 REVERT JUMPDEST PUSH1 0x0 DUP1 PUSH1 0x20 DUP4 DUP6 SUB SLT ISZERO PUSH2 0x2EF0 JUMPI DUP2 DUP3 REVERT JUMPDEST DUP3 CALLDATALOAD PUSH8 0xFFFFFFFFFFFFFFFF DUP1 DUP3 GT ISZERO PUSH2 0x2F07 JUMPI DUP4 DUP5 REVERT JUMPDEST DUP2 DUP6 ADD SWAP2 POP DUP6 PUSH1 0x1F DUP4 ADD SLT PUSH2 0x2F1A JUMPI DUP4 DUP5 REVERT JUMPDEST DUP2 CALLDATALOAD DUP2 DUP2 GT ISZERO PUSH2 0x2F28 JUMPI DUP5 DUP6 REVERT JUMPDEST DUP7 PUSH1 0x20 DUP3 DUP6 ADD ADD GT ISZERO PUSH2 0x2F39 JUMPI DUP5 DUP6 REVERT JUMPDEST PUSH1 0x20 SWAP3 SWAP1 SWAP3 ADD SWAP7 SWAP2 SWAP6 POP SWAP1 SWAP4 POP POP POP POP JUMP JUMPDEST PUSH1 0x0 PUSH1 0x20 DUP3 DUP5 SUB SLT ISZERO PUSH2 0x2F5C JUMPI DUP1 DUP2 REVERT JUMPDEST DUP2 MLOAD PUSH8 0xFFFFFFFFFFFFFFFF DUP1 DUP3 GT ISZERO PUSH2 0x2F73 JUMPI DUP3 DUP4 REVERT JUMPDEST DUP2 DUP5 ADD SWAP2 POP DUP5 PUSH1 0x1F DUP4 ADD SLT PUSH2 0x2F86 JUMPI DUP3 DUP4 REVERT JUMPDEST DUP2 MLOAD DUP2 DUP2 GT ISZERO PUSH2 0x2F94 JUMPI DUP4 DUP5 REVERT JUMPDEST PUSH2 0x2FA7 PUSH1 0x1F DUP3 ADD PUSH1 0x1F NOT AND PUSH1 0x20 ADD PUSH2 0x3542 JUMP JUMPDEST SWAP2 POP DUP1 DUP3 MSTORE DUP6 PUSH1 0x20 DUP3 DUP6 ADD ADD GT ISZERO PUSH2 0x2FBD JUMPI DUP4 DUP5 REVERT JUMPDEST PUSH2 0x2FCE DUP2 PUSH1 0x20 DUP5 ADD PUSH1 0x20 DUP7 ADD PUSH2 0x3569 JUMP JUMPDEST POP SWAP5 SWAP4 POP POP POP POP JUMP JUMPDEST PUSH1 0x0 PUSH2 0x120 DUP1 DUP4 DUP6 SUB SLT ISZERO PUSH2 0x2FEA JUMPI DUP2 DUP3 REVERT JUMPDEST PUSH2 0x2FF3 DUP2 PUSH2 0x3542 JUMP JUMPDEST SWAP1 POP DUP3 MLOAD DUP2 MSTORE PUSH1 0x20 DUP4 ADD MLOAD PUSH1 0x20 DUP3 ADD MSTORE PUSH1 0x40 DUP4 ADD MLOAD PUSH1 0x40 DUP3 ADD MSTORE PUSH1 0x60 DUP4 ADD MLOAD PUSH1 0x60 DUP3 ADD MSTORE PUSH1 0x80 DUP4 ADD MLOAD PUSH1 0x80 DUP3 ADD MSTORE PUSH1 0xA0 DUP4 ADD MLOAD PUSH1 0xA0 DUP3 ADD MSTORE PUSH1 0xC0 DUP4 ADD MLOAD PUSH1 0xC0 DUP3 ADD MSTORE PUSH1 0xE0 DUP4 ADD MLOAD PUSH1 0xE0 DUP3 ADD MSTORE PUSH2 0x100 DUP1 DUP5 ADD MLOAD DUP2 DUP4 ADD MSTORE POP DUP1 SWAP2 POP POP SWAP3 SWAP2 POP POP JUMP JUMPDEST PUSH1 0x0 PUSH1 0x20 DUP3 DUP5 SUB SLT ISZERO PUSH2 0x3066 JUMPI DUP1 DUP2 REVERT JUMPDEST POP CALLDATALOAD SWAP2 SWAP1 POP JUMP JUMPDEST PUSH1 0x0 PUSH1 0x20 DUP3 DUP5 SUB SLT ISZERO PUSH2 0x307E JUMPI DUP1 DUP2 REVERT JUMPDEST POP MLOAD SWAP2 SWAP1 POP JUMP JUMPDEST PUSH1 0x0 DUP3 MLOAD PUSH2 0x3097 DUP2 DUP5 PUSH1 0x20 DUP8 ADD PUSH2 0x3569 JUMP JUMPDEST SWAP2 SWAP1 SWAP2 ADD SWAP3 SWAP2 POP POP JUMP JUMPDEST PUSH1 0x0 PUSH13 0x2837B7B62A37B3B2BA3432B91 PUSH1 0x9D SHL DUP3 MSTORE DUP3 MLOAD PUSH2 0x30C9 DUP2 PUSH1 0xD DUP6 ADD PUSH1 0x20 DUP8 ADD PUSH2 0x3569 JUMP JUMPDEST SWAP2 SWAP1 SWAP2 ADD PUSH1 0xD ADD SWAP3 SWAP2 POP POP JUMP JUMPDEST PUSH1 0x1 PUSH1 0x1 PUSH1 0xA0 SHL SUB SWAP2 SWAP1 SWAP2 AND DUP2 MSTORE PUSH1 0x20 ADD SWAP1 JUMP JUMPDEST PUSH1 0x1 PUSH1 0x1 PUSH1 0xA0 SHL SUB SWAP3 DUP4 AND DUP2 MSTORE SWAP2 AND PUSH1 0x20 DUP3 ADD MSTORE PUSH1 0x40 ADD SWAP1 JUMP JUMPDEST PUSH1 0x1 PUSH1 0x1 PUSH1 0xA0 SHL SUB SWAP5 DUP6 AND DUP2 MSTORE SWAP3 DUP5 AND PUSH1 0x20 DUP5 ADD MSTORE SWAP1 DUP4 AND PUSH1 0x40 DUP4 ADD MSTORE SWAP1 SWAP2 AND PUSH1 0x60 DUP3 ADD MSTORE PUSH1 0x80 ADD SWAP1 JUMP JUMPDEST PUSH1 0x1 PUSH1 0x1 PUSH1 0xA0 SHL SUB SWAP7 DUP8 AND DUP2 MSTORE SWAP5 DUP7 AND PUSH1 0x20 DUP7 ADD MSTORE SWAP3 DUP6 AND PUSH1 0x40 DUP6 ADD MSTORE SWAP1 DUP5 AND PUSH1 0x60 DUP5 ADD MSTORE DUP4 AND PUSH1 0x80 DUP4 ADD MSTORE SWAP1 SWAP2 AND PUSH1 0xA0 DUP3 ADD MSTORE PUSH1 0xC0 ADD SWAP1 JUMP JUMPDEST PUSH1 0x1 PUSH1 0x1 PUSH1 0xA0 SHL SUB SWAP3 SWAP1 SWAP3 AND DUP3 MSTORE PUSH1 0x20 DUP3 ADD MSTORE PUSH1 0x40 ADD SWAP1 JUMP JUMPDEST PUSH1 0x1 PUSH1 0x1 PUSH1 0xA0 SHL SUB SWAP5 DUP6 AND DUP2 MSTORE PUSH1 0x20 DUP2 ADD SWAP4 SWAP1 SWAP4 MSTORE SWAP1 DUP4 AND PUSH1 0x40 DUP4 ADD MSTORE SWAP1 SWAP2 AND PUSH1 0x60 DUP3 ADD MSTORE PUSH1 0x80 ADD SWAP1 JUMP JUMPDEST PUSH1 0x1 PUSH1 0x1 PUSH1 0xA0 SHL SUB SWAP5 DUP6 AND DUP2 MSTORE PUSH1 0x20 DUP2 ADD SWAP4 SWAP1 SWAP4 MSTORE SWAP3 AND PUSH1 0x40 DUP3 ADD MSTORE PUSH1 0x60 DUP2 ADD SWAP2 SWAP1 SWAP2 MSTORE PUSH1 0x80 ADD SWAP1 JUMP JUMPDEST SWAP1 ISZERO ISZERO DUP2 MSTORE PUSH1 0x20 ADD SWAP1 JUMP JUMPDEST PUSH1 0x0 PUSH1 0x20 DUP3 MSTORE DUP3 PUSH1 0x20 DUP4 ADD MSTORE DUP3 DUP5 PUSH1 0x40 DUP5 ADD CALLDATACOPY DUP2 DUP4 ADD PUSH1 0x40 SWAP1 DUP2 ADD SWAP2 SWAP1 SWAP2 MSTORE PUSH1 0x1F SWAP1 SWAP3 ADD PUSH1 0x1F NOT AND ADD ADD SWAP2 SWAP1 POP JUMP JUMPDEST PUSH1 0x0 PUSH1 0x20 DUP3 MSTORE DUP3 MLOAD DUP1 PUSH1 0x20 DUP5 ADD MSTORE PUSH2 0x3230 DUP2 PUSH1 0x40 DUP6 ADD PUSH1 0x20 DUP8 ADD PUSH2 0x3569 JUMP JUMPDEST PUSH1 0x1F ADD PUSH1 0x1F NOT AND SWAP2 SWAP1 SWAP2 ADD PUSH1 0x40 ADD SWAP3 SWAP2 POP POP JUMP JUMPDEST PUSH1 0x20 DUP1 DUP3 MSTORE PUSH1 0xB SWAP1 DUP3 ADD MSTORE PUSH11 0x85CDD1C985D1959DA5CDD PUSH1 0xAA SHL PUSH1 0x40 DUP3 ADD MSTORE PUSH1 0x60 ADD SWAP1 JUMP JUMPDEST PUSH1 0x20 DUP1 DUP3 MSTORE PUSH1 0x5 SWAP1 DUP3 ADD MSTORE PUSH5 0x85DD85B9D PUSH1 0xDA SHL PUSH1 0x40 DUP3 ADD MSTORE PUSH1 0x60 ADD SWAP1 JUMP JUMPDEST PUSH1 0x20 DUP1 DUP3 MSTORE PUSH1 0x1B SWAP1 DUP3 ADD MSTORE PUSH32 0x536166654D6174683A206164646974696F6E206F766572666C6F770000000000 PUSH1 0x40 DUP3 ADD MSTORE PUSH1 0x60 ADD SWAP1 JUMP JUMPDEST PUSH1 0x20 DUP1 DUP3 MSTORE PUSH1 0x1C SWAP1 DUP3 ADD MSTORE PUSH32 0x537472617465677920616C726561647920696E697469616C697A656400000000 PUSH1 0x40 DUP3 ADD MSTORE PUSH1 0x60 ADD SWAP1 JUMP JUMPDEST PUSH1 0x20 DUP1 DUP3 MSTORE PUSH1 0x21 SWAP1 DUP3 ADD MSTORE PUSH32 0x536166654D6174683A206D756C7469706C69636174696F6E206F766572666C6F PUSH1 0x40 DUP3 ADD MSTORE PUSH1 0x77 PUSH1 0xF8 SHL PUSH1 0x60 DUP3 ADD MSTORE PUSH1 0x80 ADD SWAP1 JUMP JUMPDEST PUSH1 0x20 DUP1 DUP3 MSTORE PUSH1 0x6 SWAP1 DUP3 ADD MSTORE PUSH6 0x85D985D5B1D PUSH1 0xD2 SHL PUSH1 0x40 DUP3 ADD MSTORE PUSH1 0x60 ADD SWAP1 JUMP JUMPDEST PUSH1 0x20 DUP1 DUP3 MSTORE PUSH1 0x7 SWAP1 DUP3 ADD MSTORE PUSH7 0x21736861726573 PUSH1 0xC8 SHL PUSH1 0x40 DUP3 ADD MSTORE PUSH1 0x60 ADD SWAP1 JUMP JUMPDEST PUSH1 0x20 DUP1 DUP3 MSTORE PUSH1 0x1D SWAP1 DUP3 ADD MSTORE PUSH32 0x416464726573733A2063616C6C20746F206E6F6E2D636F6E7472616374000000 PUSH1 0x40 DUP3 ADD MSTORE PUSH1 0x60 ADD SWAP1 JUMP JUMPDEST PUSH1 0x20 DUP1 DUP3 MSTORE PUSH1 0xB SWAP1 DUP3 ADD MSTORE PUSH11 0x8585D5D1A1BDC9A5E9959 PUSH1 0xAA SHL PUSH1 0x40 DUP3 ADD MSTORE PUSH1 0x60 ADD SWAP1 JUMP JUMPDEST PUSH1 0x20 DUP1 DUP3 MSTORE PUSH1 0x2A SWAP1 DUP3 ADD MSTORE PUSH32 0x5361666545524332303A204552433230206F7065726174696F6E20646964206E PUSH1 0x40 DUP3 ADD MSTORE PUSH10 0x1BDD081CDD58D8D95959 PUSH1 0xB2 SHL PUSH1 0x60 DUP3 ADD MSTORE PUSH1 0x80 ADD SWAP1 JUMP JUMPDEST PUSH1 0x20 DUP1 DUP3 MSTORE PUSH1 0xA SWAP1 DUP3 ADD MSTORE PUSH10 0x85C1C9BDD1958DD1959 PUSH1 0xB2 SHL PUSH1 0x40 DUP3 ADD MSTORE PUSH1 0x60 ADD SWAP1 JUMP JUMPDEST PUSH1 0x20 DUP1 DUP3 MSTORE PUSH1 0x36 SWAP1 DUP3 ADD MSTORE PUSH32 0x5361666545524332303A20617070726F76652066726F6D206E6F6E2D7A65726F PUSH1 0x40 DUP3 ADD MSTORE PUSH22 0x20746F206E6F6E2D7A65726F20616C6C6F77616E6365 PUSH1 0x50 SHL PUSH1 0x60 DUP3 ADD MSTORE PUSH1 0x80 ADD SWAP1 JUMP JUMPDEST SWAP1 DUP2 MSTORE PUSH1 0x20 ADD SWAP1 JUMP JUMPDEST PUSH1 0x0 PUSH1 0xA0 DUP3 ADD DUP8 DUP4 MSTORE PUSH1 0x20 DUP8 DUP2 DUP6 ADD MSTORE PUSH1 0xA0 PUSH1 0x40 DUP6 ADD MSTORE DUP2 DUP8 MLOAD DUP1 DUP5 MSTORE PUSH1 0xC0 DUP7 ADD SWAP2 POP DUP3 DUP10 ADD SWAP4 POP DUP5 JUMPDEST DUP2 DUP2 LT ISZERO PUSH2 0x34F0 JUMPI DUP5 MLOAD PUSH1 0x1 PUSH1 0x1 PUSH1 0xA0 SHL SUB AND DUP4 MSTORE SWAP4 DUP4 ADD SWAP4 SWAP2 DUP4 ADD SWAP2 PUSH1 0x1 ADD PUSH2 0x34CB JUMP JUMPDEST POP POP PUSH1 0x1 PUSH1 0x1 PUSH1 0xA0 SHL SUB SWAP7 SWAP1 SWAP7 AND PUSH1 0x60 DUP6 ADD MSTORE POP POP POP PUSH1 0x80 ADD MSTORE SWAP4 SWAP3 POP POP POP JUMP JUMPDEST SWAP3 DUP4 MSTORE PUSH1 0x20 DUP4 ADD SWAP2 SWAP1 SWAP2 MSTORE PUSH1 0x40 DUP3 ADD MSTORE PUSH1 0x60 ADD SWAP1 JUMP JUMPDEST SWAP4 DUP5 MSTORE PUSH1 0x20 DUP5 ADD SWAP3 SWAP1 SWAP3 MSTORE PUSH1 0x40 DUP4 ADD MSTORE PUSH1 0x60 DUP3 ADD MSTORE PUSH1 0x80 ADD SWAP1 JUMP JUMPDEST PUSH1 0x40 MLOAD DUP2 DUP2 ADD PUSH8 0xFFFFFFFFFFFFFFFF DUP2 GT DUP3 DUP3 LT OR ISZERO PUSH2 0x3561 JUMPI PUSH1 0x0 DUP1 REVERT JUMPDEST PUSH1 0x40 MSTORE SWAP2 SWAP1 POP JUMP JUMPDEST PUSH1 0x0 JUMPDEST DUP4 DUP2 LT ISZERO PUSH2 0x3584 JUMPI DUP2 DUP2 ADD MLOAD DUP4 DUP3 ADD MSTORE PUSH1 0x20 ADD PUSH2 0x356C JUMP JUMPDEST DUP4 DUP2 GT ISZERO PUSH2 0x1054 JUMPI POP POP PUSH1 0x0 SWAP2 ADD MSTORE JUMP JUMPDEST PUSH1 0x1 PUSH1 0x1 PUSH1 0xA0 SHL SUB DUP2 AND DUP2 EQ PUSH2 0x1672 JUMPI PUSH1 0x0 DUP1 REVERT INVALID LOG2 PUSH5 0x6970667358 0x22 SLT KECCAK256 PUSH23 0x72616715242D81094C73284856E98576ED854896967A7 0xEF 0xF9 0x29 0x4C SDIV 0x4E PUSH2 0x1D64 PUSH20 0x6F6C634300060C00330000000000000000000000 ","sha1":"1fbd05d4480cf091dfef6e278f6c78328376ea6f","source":"// SPDX-License-Identifier: MIT\n\npragma experimental ABIEncoderV2;\npragma solidity 0.6.12;\n\nimport \"@openzeppelin/contracts/token/ERC20/IERC20.sol\";\nimport \"@openzeppelin/contracts/math/SafeMath.sol\";\nimport \"@openzeppelin/contracts/math/Math.sol\";\nimport \"@openzeppelin/contracts/utils/Address.sol\";\nimport \"@openzeppelin/contracts/token/ERC20/SafeERC20.sol\";\nimport {\n    BaseStrategyInitializable\n} from \"@yearnvaults/contracts/BaseStrategy.sol\";\n\nimport \"../../interfaces/poolTogether/IPoolTogether.sol\";\nimport \"../../interfaces/poolTogether/IPoolFaucet.sol\";\nimport \"../../interfaces/uniswap/Uni.sol\";\n\ninterface IName {\n    function name() external view returns (string memory);\n}\n\ncontract StrategyDAIPoolTogether is BaseStrategyInitializable {\n    using SafeERC20 for IERC20;\n    using Address for address;\n    using SafeMath for uint256;\n\n    address public wantPool;\n    address public poolToken;\n    address public unirouter;\n    address public bonus;\n    address public faucet;\n    address public ticket;\n    address public refer = address(0x16388463d60FFE0661Cf7F1f31a7D658aC790ff7);\n\n    constructor(address _vault) public BaseStrategyInitializable(_vault) {}\n\n    function _initialize(\n        address _wantPool,\n        address _poolToken,\n        address _unirouter,\n        address _bonus,\n        address _faucet,\n        address _ticket\n    ) internal {\n        wantPool = _wantPool;\n        poolToken = _poolToken;\n        unirouter = _unirouter;\n        bonus = _bonus;\n        faucet = _faucet;\n        ticket = _ticket;\n\n        IERC20(want).safeApprove(wantPool, uint256(-1));\n        IERC20(poolToken).safeApprove(unirouter, uint256(-1));\n        IERC20(bonus).safeApprove(unirouter, uint256(-1));\n    }\n\n    function initializeParent(\n        address _vault,\n        address _strategist,\n        address _rewards,\n        address _keeper\n    ) public {\n        super._initialize(_vault, _strategist, _rewards, _keeper);\n    }\n\n    function initialize(\n        address _wantPool,\n        address _poolToken,\n        address _unirouter,\n        address _bonus,\n        address _faucet,\n        address _ticket\n    ) external {\n        _initialize(\n            _wantPool,\n            _poolToken,\n            _unirouter,\n            _bonus,\n            _faucet,\n            _ticket\n        );\n    }\n\n    function clone(\n        address _vault,\n        address _strategist,\n        address _rewards,\n        address _keeper,\n        address _wantPool,\n        address _poolToken,\n        address _unirouter,\n        address _bonus,\n        address _faucet,\n        address _ticket\n    ) external returns (address newStrategy) {\n        // Copied from https://github.com/optionality/clone-factory/blob/master/contracts/CloneFactory.sol\n        bytes20 addressBytes = bytes20(address(this));\n\n        assembly {\n            // EIP-1167 bytecode\n            let clone_code := mload(0x40)\n            mstore(\n                clone_code,\n                0x3d602d80600a3d3981f3363d3d373d3d3d363d73000000000000000000000000\n            )\n            mstore(add(clone_code, 0x14), addressBytes)\n            mstore(\n                add(clone_code, 0x28),\n                0x5af43d82803e903d91602b57fd5bf30000000000000000000000000000000000\n            )\n            newStrategy := create(0, clone_code, 0x37)\n        }\n\n        StrategyDAIPoolTogether(newStrategy).initializeParent(\n            _vault,\n            _strategist,\n            _rewards,\n            _keeper\n        );\n        StrategyDAIPoolTogether(newStrategy).initialize(\n            _wantPool,\n            _poolToken,\n            _unirouter,\n            _bonus,\n            _faucet,\n            _ticket\n        );\n    }\n\n    function name() external view override returns (string memory) {\n        return\n            string(\n                abi.encodePacked(\"PoolTogether \", IName(address(want)).name())\n            );\n    }\n\n    function protectedTokens()\n        internal\n        view\n        override\n        returns (address[] memory)\n    {\n        address[] memory protected = new address[](3);\n        // (aka want) is already protected by default\n        protected[0] = ticket;\n        protected[1] = poolToken;\n        protected[2] = bonus;\n\n        return protected;\n    }\n\n    // returns sum of all assets, realized and unrealized\n    function estimatedTotalAssets() public view override returns (uint256) {\n        return balanceOfWant().add(balanceOfPool());\n    }\n\n    function prepareReturn(uint256 _debtOutstanding)\n        internal\n        override\n        returns (\n            uint256 _profit,\n            uint256 _loss,\n            uint256 _debtPayment\n        )\n    {\n        // We might need to return want to the vault\n        if (_debtOutstanding > 0) {\n            uint256 _amountFreed = 0;\n            (_amountFreed, _loss) = liquidatePosition(_debtOutstanding);\n            _debtPayment = Math.min(_amountFreed, _debtOutstanding);\n        }\n\n        // harvest() will track profit by estimated total assets compared to debt.\n        uint256 balanceOfWantBefore = balanceOfWant();\n        uint256 debt = vault.strategies(address(this)).totalDebt;\n\n        uint256 currentValue = estimatedTotalAssets();\n\n        // If we win we will have more value than debt!\n        // Let's convert tickets to want to calculate profit.\n        if (currentValue > debt) {\n            uint256 _amount = currentValue.sub(debt);\n            liquidatePosition(_amount);\n        }\n\n        claimReward();\n\n        uint256 _tokensAvailable = IERC20(poolToken).balanceOf(address(this));\n        if (_tokensAvailable > 0) {\n            _swap(_tokensAvailable, address(poolToken));\n        }\n\n        uint256 _bonusAvailable = IERC20(bonus).balanceOf(address(this));\n        if (_bonusAvailable > 0) {\n            _swap(_bonusAvailable, address(bonus));\n        }\n\n        uint256 balanceOfWantAfter = balanceOfWant();\n\n        if (balanceOfWantAfter > balanceOfWantBefore) {\n            _profit = balanceOfWantAfter.sub(balanceOfWantBefore);\n        }\n    }\n\n    function adjustPosition(uint256 _debtOutstanding) internal override {\n        //emergency exit is dealt with in prepareReturn\n        if (emergencyExit) {\n            return;\n        }\n\n        // do not invest if we have more debt than want\n        if (_debtOutstanding > balanceOfWant()) {\n            return;\n        }\n\n        // Invest the rest of the want\n        uint256 _wantAvailable = balanceOfWant().sub(_debtOutstanding);\n        if (_wantAvailable > 0) {\n            IPoolTogether(wantPool).depositTo(\n                address(this),\n                _wantAvailable,\n                ticket,\n                refer\n            );\n        }\n    }\n\n    //v0.3.0 - liquidatePosition is emergency exit. Supplants exitPosition\n    function liquidatePosition(uint256 _amountNeeded)\n        internal\n        override\n        returns (uint256 _liquidatedAmount, uint256 _loss)\n    {\n        if (balanceOfWant() < _amountNeeded) {\n            // We need to withdraw to get back more want\n            _withdrawSome(_amountNeeded.sub(balanceOfWant()));\n        }\n\n        uint256 balanceOfWant = balanceOfWant();\n\n        if (balanceOfWant >= _amountNeeded) {\n            _liquidatedAmount = _amountNeeded;\n        } else {\n            _liquidatedAmount = balanceOfWant;\n            _loss = (_amountNeeded.sub(balanceOfWant));\n        }\n    }\n\n    // withdraw some want from the vaults\n    function _withdrawSome(uint256 _amount) internal returns (uint256) {\n        uint256 balanceOfWantBefore = balanceOfWant();\n\n        IPoolTogether(wantPool).withdrawInstantlyFrom(\n            address(this),\n            _amount,\n            ticket,\n            1e20\n        );\n        uint256 balanceAfter = balanceOfWant();\n        return balanceAfter.sub(balanceOfWantBefore);\n    }\n\n    // transfers all tokens to new strategy\n    function prepareMigration(address _newStrategy) internal override {\n        // want is transferred by the base contract's migrate function\n        IERC20(poolToken).transfer(\n            _newStrategy,\n            IERC20(poolToken).balanceOf(address(this))\n        );\n        IERC20(bonus).transfer(\n            _newStrategy,\n            IERC20(bonus).balanceOf(address(this))\n        );\n        IERC20(ticket).transfer(\n            _newStrategy,\n            IERC20(ticket).balanceOf(address(this))\n        );\n    }\n\n    // returns value of total pool tickets\n    function balanceOfPool() public view returns (uint256) {\n        return IERC20(ticket).balanceOf(address(this));\n    }\n\n    // returns balance of want token\n    function balanceOfWant() public view returns (uint256) {\n        return want.balanceOf(address(this));\n    }\n\n    // swaps rewarded tokens for want\n    function _swap(uint256 _amountIn, address _token) internal {\n        address[] memory path = new address[](3);\n        path[0] = _token; // token to swap\n        path[1] = address(0xC02aaA39b223FE8D0A0e5C4F27eAD9083C756Cc2); // weth\n        path[2] = address(want);\n\n        Uni(unirouter).swapExactTokensForTokens(\n            _amountIn,\n            0,\n            path,\n            address(this),\n            now\n        );\n    }\n\n    // claims POOL from faucet\n    function claimReward() internal {\n        IPoolFaucet(faucet).claim(address(this));\n    }\n\n    function setReferrer(address _refer) external onlyGovernance {\n        refer = _refer;\n    }\n}\n","sourcePath":"contracts/StrategyDAIPoolTogether.sol","type":"contract","deployment":{"address":"0x460deD79F0EC2F3ccf19Ce64De35f5D3D1097E37","chainid":"4","blockHeight":8132290}}